{
  "abi": [
    {
      "inputs": [
        {
          "internalType": "address",
          "name": "_fundsRegister",
          "type": "address"
        },
        {
          "internalType": "address",
          "name": "_erc6551Implementation",
          "type": "address"
        },
        {
          "internalType": "address",
          "name": "_erc20Implementation",
          "type": "address"
        },
        {
          "internalType": "address",
          "name": "_stablecoin",
          "type": "address"
        }
      ],
      "stateMutability": "nonpayable",
      "type": "constructor"
    },
    {
      "inputs": [
        {
          "internalType": "address",
          "name": "sender",
          "type": "address"
        },
        {
          "internalType": "uint256",
          "name": "tokenId",
          "type": "uint256"
        },
        {
          "internalType": "address",
          "name": "owner",
          "type": "address"
        }
      ],
      "name": "ERC721IncorrectOwner",
      "type": "error"
    },
    {
      "inputs": [
        {
          "internalType": "address",
          "name": "operator",
          "type": "address"
        },
        {
          "internalType": "uint256",
          "name": "tokenId",
          "type": "uint256"
        }
      ],
      "name": "ERC721InsufficientApproval",
      "type": "error"
    },
    {
      "inputs": [
        {
          "internalType": "address",
          "name": "approver",
          "type": "address"
        }
      ],
      "name": "ERC721InvalidApprover",
      "type": "error"
    },
    {
      "inputs": [
        {
          "internalType": "address",
          "name": "operator",
          "type": "address"
        }
      ],
      "name": "ERC721InvalidOperator",
      "type": "error"
    },
    {
      "inputs": [
        {
          "internalType": "address",
          "name": "owner",
          "type": "address"
        }
      ],
      "name": "ERC721InvalidOwner",
      "type": "error"
    },
    {
      "inputs": [
        {
          "internalType": "address",
          "name": "receiver",
          "type": "address"
        }
      ],
      "name": "ERC721InvalidReceiver",
      "type": "error"
    },
    {
      "inputs": [
        {
          "internalType": "address",
          "name": "sender",
          "type": "address"
        }
      ],
      "name": "ERC721InvalidSender",
      "type": "error"
    },
    {
      "inputs": [
        {
          "internalType": "uint256",
          "name": "tokenId",
          "type": "uint256"
        }
      ],
      "name": "ERC721NonexistentToken",
      "type": "error"
    },
    {
      "inputs": [
        {
          "internalType": "address",
          "name": "owner",
          "type": "address"
        }
      ],
      "name": "OwnableInvalidOwner",
      "type": "error"
    },
    {
      "inputs": [
        {
          "internalType": "address",
          "name": "account",
          "type": "address"
        }
      ],
      "name": "OwnableUnauthorizedAccount",
      "type": "error"
    },
    {
      "anonymous": false,
      "inputs": [
        {
          "indexed": true,
          "internalType": "address",
          "name": "owner",
          "type": "address"
        },
        {
          "indexed": true,
          "internalType": "address",
          "name": "approved",
          "type": "address"
        },
        {
          "indexed": true,
          "internalType": "uint256",
          "name": "tokenId",
          "type": "uint256"
        }
      ],
      "name": "Approval",
      "type": "event"
    },
    {
      "anonymous": false,
      "inputs": [
        {
          "indexed": true,
          "internalType": "address",
          "name": "owner",
          "type": "address"
        },
        {
          "indexed": true,
          "internalType": "address",
          "name": "operator",
          "type": "address"
        },
        {
          "indexed": false,
          "internalType": "bool",
          "name": "approved",
          "type": "bool"
        }
      ],
      "name": "ApprovalForAll",
      "type": "event"
    },
    {
      "anonymous": false,
      "inputs": [
        {
          "indexed": true,
          "internalType": "address",
          "name": "fundAddress",
          "type": "address"
        },
        {
          "indexed": true,
          "internalType": "address",
          "name": "quotaTokenAddress",
          "type": "address"
        }
      ],
      "name": "FundCreated",
      "type": "event"
    },
    {
      "anonymous": false,
      "inputs": [
        {
          "indexed": true,
          "internalType": "address",
          "name": "fundAddress",
          "type": "address"
        },
        {
          "indexed": true,
          "internalType": "address",
          "name": "investor",
          "type": "address"
        },
        {
          "indexed": false,
          "internalType": "uint256",
          "name": "amount",
          "type": "uint256"
        }
      ],
      "name": "InvestimentMade",
      "type": "event"
    },
    {
      "anonymous": false,
      "inputs": [
        {
          "indexed": true,
          "internalType": "address",
          "name": "previousOwner",
          "type": "address"
        },
        {
          "indexed": true,
          "internalType": "address",
          "name": "newOwner",
          "type": "address"
        }
      ],
      "name": "OwnershipTransferred",
      "type": "event"
    },
    {
      "anonymous": false,
      "inputs": [
        {
          "indexed": true,
          "internalType": "address",
          "name": "fundAddress",
          "type": "address"
        },
        {
          "indexed": true,
          "internalType": "address",
          "name": "investor",
          "type": "address"
        },
        {
          "indexed": false,
          "internalType": "uint256",
          "name": "amount",
          "type": "uint256"
        }
      ],
      "name": "RedeemMade",
      "type": "event"
    },
    {
      "anonymous": false,
      "inputs": [
        {
          "indexed": true,
          "internalType": "address",
          "name": "from",
          "type": "address"
        },
        {
          "indexed": true,
          "internalType": "address",
          "name": "to",
          "type": "address"
        },
        {
          "indexed": true,
          "internalType": "uint256",
          "name": "tokenId",
          "type": "uint256"
        }
      ],
      "name": "Transfer",
      "type": "event"
    },
    {
      "inputs": [],
      "name": "_fundIdCounter",
      "outputs": [
        {
          "internalType": "uint256",
          "name": "",
          "type": "uint256"
        }
      ],
      "stateMutability": "view",
      "type": "function"
    },
    {
      "inputs": [
        {
          "internalType": "uint256",
          "name": "",
          "type": "uint256"
        }
      ],
      "name": "admFees",
      "outputs": [
        {
          "internalType": "uint256",
          "name": "",
          "type": "uint256"
        }
      ],
      "stateMutability": "view",
      "type": "function"
    },
    {
      "inputs": [
        {
          "internalType": "address",
          "name": "to",
          "type": "address"
        },
        {
          "internalType": "uint256",
          "name": "tokenId",
          "type": "uint256"
        }
      ],
      "name": "approve",
      "outputs": [],
      "stateMutability": "nonpayable",
      "type": "function"
    },
    {
      "inputs": [
        {
          "internalType": "address",
          "name": "owner",
          "type": "address"
        }
      ],
      "name": "balanceOf",
      "outputs": [
        {
          "internalType": "uint256",
          "name": "",
          "type": "uint256"
        }
      ],
      "stateMutability": "view",
      "type": "function"
    },
    {
      "inputs": [
        {
          "internalType": "uint256",
          "name": "",
          "type": "uint256"
        }
      ],
      "name": "closeInvestimentTimestamps",
      "outputs": [
        {
          "internalType": "uint256",
          "name": "",
          "type": "uint256"
        }
      ],
      "stateMutability": "view",
      "type": "function"
    },
    {
      "inputs": [
        {
          "internalType": "string",
          "name": "_symbol",
          "type": "string"
        },
        {
          "internalType": "address",
          "name": "_to",
          "type": "address"
        },
        {
          "internalType": "address[]",
          "name": "_allowedTokens",
          "type": "address[]"
        },
        {
          "internalType": "uint256",
          "name": "_admFee",
          "type": "uint256"
        },
        {
          "internalType": "uint256",
          "name": "_perfFee",
          "type": "uint256"
        },
        {
          "internalType": "uint256",
          "name": "_openInvestiment",
          "type": "uint256"
        },
        {
          "internalType": "uint256",
          "name": "_closeInvestiments",
          "type": "uint256"
        },
        {
          "internalType": "uint256",
          "name": "_openRedeem",
          "type": "uint256"
        }
      ],
      "name": "createFund",
      "outputs": [
        {
          "internalType": "uint256",
          "name": "",
          "type": "uint256"
        }
      ],
      "stateMutability": "nonpayable",
      "type": "function"
    },
    {
      "inputs": [],
      "name": "erc6551Implementation",
      "outputs": [
        {
          "internalType": "address",
          "name": "",
          "type": "address"
        }
      ],
      "stateMutability": "view",
      "type": "function"
    },
    {
      "inputs": [
        {
          "internalType": "uint256",
          "name": "",
          "type": "uint256"
        }
      ],
      "name": "fundsAddresses",
      "outputs": [
        {
          "internalType": "address",
          "name": "",
          "type": "address"
        }
      ],
      "stateMutability": "view",
      "type": "function"
    },
    {
      "inputs": [
        {
          "internalType": "uint256",
          "name": "",
          "type": "uint256"
        },
        {
          "internalType": "uint256",
          "name": "",
          "type": "uint256"
        }
      ],
      "name": "fundsAllowedTokens",
      "outputs": [
        {
          "internalType": "address",
          "name": "",
          "type": "address"
        }
      ],
      "stateMutability": "view",
      "type": "function"
    },
    {
      "inputs": [],
      "name": "fundsRegister",
      "outputs": [
        {
          "internalType": "contract IERC6551Registry",
          "name": "",
          "type": "address"
        }
      ],
      "stateMutability": "view",
      "type": "function"
    },
    {
      "inputs": [
        {
          "internalType": "uint256",
          "name": "tokenId",
          "type": "uint256"
        }
      ],
      "name": "getApproved",
      "outputs": [
        {
          "internalType": "address",
          "name": "",
          "type": "address"
        }
      ],
      "stateMutability": "view",
      "type": "function"
    },
    {
      "inputs": [
        {
          "internalType": "uint256",
          "name": "",
          "type": "uint256"
        }
      ],
      "name": "initialAmounts",
      "outputs": [
        {
          "internalType": "uint256",
          "name": "",
          "type": "uint256"
        }
      ],
      "stateMutability": "view",
      "type": "function"
    },
    {
      "inputs": [
        {
          "internalType": "uint256",
          "name": "_amount",
          "type": "uint256"
        },
        {
          "internalType": "uint256",
          "name": "fundId",
          "type": "uint256"
        }
      ],
      "name": "invest",
      "outputs": [],
      "stateMutability": "nonpayable",
      "type": "function"
    },
    {
      "inputs": [
        {
          "internalType": "address",
          "name": "owner",
          "type": "address"
        },
        {
          "internalType": "address",
          "name": "operator",
          "type": "address"
        }
      ],
      "name": "isApprovedForAll",
      "outputs": [
        {
          "internalType": "bool",
          "name": "",
          "type": "bool"
        }
      ],
      "stateMutability": "view",
      "type": "function"
    },
    {
      "inputs": [],
      "name": "name",
      "outputs": [
        {
          "internalType": "string",
          "name": "",
          "type": "string"
        }
      ],
      "stateMutability": "view",
      "type": "function"
    },
    {
      "inputs": [
        {
          "internalType": "uint256",
          "name": "",
          "type": "uint256"
        }
      ],
      "name": "openInvestimentTimestamps",
      "outputs": [
        {
          "internalType": "uint256",
          "name": "",
          "type": "uint256"
        }
      ],
      "stateMutability": "view",
      "type": "function"
    },
    {
      "inputs": [
        {
          "internalType": "uint256",
          "name": "",
          "type": "uint256"
        }
      ],
      "name": "openRedeemTimestamps",
      "outputs": [
        {
          "internalType": "uint256",
          "name": "",
          "type": "uint256"
        }
      ],
      "stateMutability": "view",
      "type": "function"
    },
    {
      "inputs": [],
      "name": "owner",
      "outputs": [
        {
          "internalType": "address",
          "name": "",
          "type": "address"
        }
      ],
      "stateMutability": "view",
      "type": "function"
    },
    {
      "inputs": [
        {
          "internalType": "uint256",
          "name": "tokenId",
          "type": "uint256"
        }
      ],
      "name": "ownerOf",
      "outputs": [
        {
          "internalType": "address",
          "name": "",
          "type": "address"
        }
      ],
      "stateMutability": "view",
      "type": "function"
    },
    {
      "inputs": [
        {
          "internalType": "uint256",
          "name": "",
          "type": "uint256"
        }
      ],
      "name": "perfFees",
      "outputs": [
        {
          "internalType": "uint256",
          "name": "",
          "type": "uint256"
        }
      ],
      "stateMutability": "view",
      "type": "function"
    },
    {
      "inputs": [],
      "name": "quotaTokenImplementation",
      "outputs": [
        {
          "internalType": "address",
          "name": "",
          "type": "address"
        }
      ],
      "stateMutability": "view",
      "type": "function"
    },
    {
      "inputs": [
        {
          "internalType": "uint256",
          "name": "",
          "type": "uint256"
        }
      ],
      "name": "quotasAddresses",
      "outputs": [
        {
          "internalType": "address",
          "name": "",
          "type": "address"
        }
      ],
      "stateMutability": "view",
      "type": "function"
    },
    {
      "inputs": [
        {
          "internalType": "uint256",
          "name": "fundId",
          "type": "uint256"
        }
      ],
      "name": "redeemYield",
      "outputs": [],
      "stateMutability": "nonpayable",
      "type": "function"
    },
    {
      "inputs": [
        {
          "internalType": "address",
          "name": "_token",
          "type": "address"
        }
      ],
      "name": "removeWhiteListedToken",
      "outputs": [],
      "stateMutability": "nonpayable",
      "type": "function"
    },
    {
      "inputs": [],
      "name": "renounceOwnership",
      "outputs": [],
      "stateMutability": "nonpayable",
      "type": "function"
    },
    {
      "inputs": [
        {
          "internalType": "address",
          "name": "from",
          "type": "address"
        },
        {
          "internalType": "address",
          "name": "to",
          "type": "address"
        },
        {
          "internalType": "uint256",
          "name": "tokenId",
          "type": "uint256"
        }
      ],
      "name": "safeTransferFrom",
      "outputs": [],
      "stateMutability": "nonpayable",
      "type": "function"
    },
    {
      "inputs": [
        {
          "internalType": "address",
          "name": "from",
          "type": "address"
        },
        {
          "internalType": "address",
          "name": "to",
          "type": "address"
        },
        {
          "internalType": "uint256",
          "name": "tokenId",
          "type": "uint256"
        },
        {
          "internalType": "bytes",
          "name": "data",
          "type": "bytes"
        }
      ],
      "name": "safeTransferFrom",
      "outputs": [],
      "stateMutability": "nonpayable",
      "type": "function"
    },
    {
      "inputs": [
        {
          "internalType": "address",
          "name": "operator",
          "type": "address"
        },
        {
          "internalType": "bool",
          "name": "approved",
          "type": "bool"
        }
      ],
      "name": "setApprovalForAll",
      "outputs": [],
      "stateMutability": "nonpayable",
      "type": "function"
    },
    {
      "inputs": [
        {
          "internalType": "address",
          "name": "_token",
          "type": "address"
        }
      ],
      "name": "setWhiteListedToken",
      "outputs": [],
      "stateMutability": "nonpayable",
      "type": "function"
    },
    {
      "inputs": [],
      "name": "stablecoin",
      "outputs": [
        {
          "internalType": "contract IERC20",
          "name": "",
          "type": "address"
        }
      ],
      "stateMutability": "view",
      "type": "function"
    },
    {
      "inputs": [
        {
          "internalType": "bytes4",
          "name": "interfaceId",
          "type": "bytes4"
        }
      ],
      "name": "supportsInterface",
      "outputs": [
        {
          "internalType": "bool",
          "name": "",
          "type": "bool"
        }
      ],
      "stateMutability": "view",
      "type": "function"
    },
    {
      "inputs": [],
      "name": "symbol",
      "outputs": [
        {
          "internalType": "string",
          "name": "",
          "type": "string"
        }
      ],
      "stateMutability": "view",
      "type": "function"
    },
    {
      "inputs": [
        {
          "internalType": "uint256",
          "name": "tokenId",
          "type": "uint256"
        }
      ],
      "name": "tokenURI",
      "outputs": [
        {
          "internalType": "string",
          "name": "",
          "type": "string"
        }
      ],
      "stateMutability": "view",
      "type": "function"
    },
    {
      "inputs": [
        {
          "internalType": "address",
          "name": "from",
          "type": "address"
        },
        {
          "internalType": "address",
          "name": "to",
          "type": "address"
        },
        {
          "internalType": "uint256",
          "name": "tokenId",
          "type": "uint256"
        }
      ],
      "name": "transferFrom",
      "outputs": [],
      "stateMutability": "nonpayable",
      "type": "function"
    },
    {
      "inputs": [
        {
          "internalType": "address",
          "name": "newOwner",
          "type": "address"
        }
      ],
      "name": "transferOwnership",
      "outputs": [],
      "stateMutability": "nonpayable",
      "type": "function"
    },
    {
      "inputs": [
        {
          "internalType": "address",
          "name": "",
          "type": "address"
        }
      ],
      "name": "whiteListedTokens",
      "outputs": [
        {
          "internalType": "bool",
          "name": "",
          "type": "bool"
        }
      ],
      "stateMutability": "view",
      "type": "function"
    }
  ],
  "bytecode": {
    "object": "0x60806040523480156200001157600080fd5b506040516200370238038062003702833981016040819052620000349162000196565b336040518060400160405280600c81526020016b5768616c6546696e616e636560a01b8152506040518060400160405280600381526020016257464960e81b815250816000908162000087919062000298565b50600162000096828262000298565b5050506001600160a01b038116620000c857604051631e4fbdf760e01b81526000600482015260240160405180910390fd5b620000d38162000127565b50600880546001600160a01b039586166001600160a01b0319918216179091556009805494861694821694909417909355600b8054918516918416919091179055600a805491909316911617905562000364565b600680546001600160a01b038381166001600160a01b0319831681179093556040519116919082907f8be0079c531659141344cd1fd0a4f28419497f9722a3daafe3b4186f6b6457e090600090a35050565b80516001600160a01b03811681146200019157600080fd5b919050565b60008060008060808587031215620001ad57600080fd5b620001b88562000179565b9350620001c86020860162000179565b9250620001d86040860162000179565b9150620001e86060860162000179565b905092959194509250565b634e487b7160e01b600052604160045260246000fd5b600181811c908216806200021e57607f821691505b6020821081036200023f57634e487b7160e01b600052602260045260246000fd5b50919050565b601f8211156200029357600081815260208120601f850160051c810160208610156200026e5750805b601f850160051c820191505b818110156200028f578281556001016200027a565b5050505b505050565b81516001600160401b03811115620002b457620002b4620001f3565b620002cc81620002c5845462000209565b8462000245565b602080601f831160018114620003045760008415620002eb5750858301515b600019600386901b1c1916600185901b1785556200028f565b600085815260208120601f198616915b82811015620003355788860151825594840194600190910190840162000314565b5085821015620003545787850151600019600388901b60f8161c191681555b5050505050600190811b01905550565b61338e80620003746000396000f3fe60806040523480156200001157600080fd5b50600436106200028d5760003560e01c8063822dde8d116200015f578063c2ae0e3e11620000cc578063e7e1f1c71162000097578063e9cbd822116200007a578063e9cbd822146200069a578063f2fde38b14620006bb578063fb91fb4214620006d257600080fd5b8063e7e1f1c71462000615578063e985e9c5146200064e57600080fd5b8063c2ae0e3e14620005a0578063c87b56dd14620005c1578063d3c2638314620005d8578063d87aa64314620005fe57600080fd5b8063995c8472116200012a578063b3dd12a2116200010d578063b3dd12a21462000551578063b5541dd81462000572578063b88d4fde146200058957600080fd5b8063995c84721462000517578063a22cb465146200053a57600080fd5b8063822dde8d14620004b65780638d18019514620004cd5780638da5cb5b14620004ee57806395d89b41146200050d57600080fd5b8063258d3c3311620001fe5780635ecd5be711620001c95780636352211e11620001ac5780636352211e146200047e57806370a082311462000495578063715018a614620004ac57600080fd5b80635ecd5be714620004505780636166cb93146200046757600080fd5b8063258d3c3314620003c657806342842e0e14620003dd5780634835a6be14620003f457806354d89c91146200042d57600080fd5b8063095ea7b3116200025c5780631c02225f116200023f5780631c02225f14620003825780631ec3e6c414620003a557806323b872dd14620003af57600080fd5b8063095ea7b314620003465780630d0a01cf146200035f57600080fd5b806301ffc9a71462000292578063069af24114620002be57806306fdde0314620002f0578063081812fc1462000309575b600080fd5b620002a9620002a336600462002555565b620006f5565b60405190151581526020015b60405180910390f35b620002e1620002cf36600462002575565b60126020526000908152604090205481565b604051908152602001620002b5565b620002fa620007dc565b604051620002b5919062002601565b620003206200031a36600462002575565b62000876565b60405173ffffffffffffffffffffffffffffffffffffffff9091168152602001620002b5565b6200035d620003573660046200264b565b620008af565b005b620002e16200037036600462002575565b600f6020526000908152604090205481565b620002e16200039336600462002575565b60116020526000908152604090205481565b620002e160075481565b6200035d620003c03660046200267a565b620008c0565b6200035d620003d736600462002575565b620009bb565b6200035d620003ee3660046200267a565b62000d48565b620003206200040536600462002575565b60156020526000908152604090205473ffffffffffffffffffffffffffffffffffffffff1681565b620002e16200043e36600462002575565b60136020526000908152604090205481565b620002e162000461366004620027d5565b62000d6a565b6200032062000478366004620028b4565b62001232565b620003206200048f36600462002575565b62001278565b620002e1620004a6366004620028d7565b62001285565b6200035d62001302565b6200035d620004c7366004620028d7565b6200131a565b600854620003209073ffffffffffffffffffffffffffffffffffffffff1681565b60065473ffffffffffffffffffffffffffffffffffffffff1662000320565b620002fa62001373565b620002e16200052836600462002575565b600e6020526000908152604090205481565b6200035d6200054b36600462002906565b62001384565b600954620003209073ffffffffffffffffffffffffffffffffffffffff1681565b6200035d62000583366004620028d7565b62001391565b6200035d6200059a36600462002944565b620013e7565b600a54620003209073ffffffffffffffffffffffffffffffffffffffff1681565b620002fa620005d236600462002575565b62001402565b620002a9620005e9366004620028d7565b600c6020526000908152604090205460ff1681565b6200035d6200060f366004620028b4565b62001480565b620003206200062636600462002575565b600d6020526000908152604090205473ffffffffffffffffffffffffffffffffffffffff1681565b620002a96200065f36600462002a33565b73ffffffffffffffffffffffffffffffffffffffff918216600090815260056020908152604080832093909416825291909152205460ff1690565b600b54620003209073ffffffffffffffffffffffffffffffffffffffff1681565b6200035d620006cc366004620028d7565b62001932565b620002e1620006e336600462002575565b60106020526000908152604090205481565b60007fffffffff0000000000000000000000000000000000000000000000000000000082167f80ac58cd0000000000000000000000000000000000000000000000000000000014806200078957507fffffffff0000000000000000000000000000000000000000000000000000000082167f5b5e139f00000000000000000000000000000000000000000000000000000000145b80620007d657507f01ffc9a7000000000000000000000000000000000000000000000000000000007fffffffff000000000000000000000000000000000000000000000000000000008316145b92915050565b606060008054620007ed9062002a66565b80601f01602080910402602001604051908101604052809291908181526020018280546200081b9062002a66565b80156200086c5780601f1062000840576101008083540402835291602001916200086c565b820191906000526020600020905b8154815290600101906020018083116200084e57829003601f168201915b5050505050905090565b600062000883826200199c565b5060008281526004602052604090205473ffffffffffffffffffffffffffffffffffffffff16620007d6565b620008bc828233620019fd565b5050565b73ffffffffffffffffffffffffffffffffffffffff821662000916576040517f64a0ae92000000000000000000000000000000000000000000000000000000008152600060048201526024015b60405180910390fd5b60006200092583833362001a0c565b90508373ffffffffffffffffffffffffffffffffffffffff168173ffffffffffffffffffffffffffffffffffffffff1614620009b5576040517f64283d7b00000000000000000000000000000000000000000000000000000000815273ffffffffffffffffffffffffffffffffffffffff808616600483015260248201849052821660448201526064016200090d565b50505050565b60008181526013602052604090205442101562000a35576040517f08c379a000000000000000000000000000000000000000000000000000000000815260206004820152601660248201527f52656465656d206973206e6f74206f70656e207965740000000000000000000060448201526064016200090d565b6000818152601560205260408082205490517f70a0823100000000000000000000000000000000000000000000000000000000815233600482015273ffffffffffffffffffffffffffffffffffffffff909116919082906370a0823190602401602060405180830381865afa15801562000ab3573d6000803e3d6000fd5b505050506040513d601f19601f8201168201806040525081019062000ad9919062002abb565b600b546000858152600d60205260408082205490517f70a0823100000000000000000000000000000000000000000000000000000000815273ffffffffffffffffffffffffffffffffffffffff918216600482015293945090929116906370a0823190602401602060405180830381865afa15801562000b5d573d6000803e3d6000fd5b505050506040513d601f19601f8201168201806040525081019062000b83919062002abb565b60008581526010602052604090205462000b9e908462002b04565b62000baa919062002b40565b600b546000868152600d6020526040908190205490517f23b872dd00000000000000000000000000000000000000000000000000000000815273ffffffffffffffffffffffffffffffffffffffff91821660048201523360248201526044810184905292935016906323b872dd906064016020604051808303816000875af115801562000c3b573d6000803e3d6000fd5b505050506040513d601f19601f8201168201806040525081019062000c61919062002b5a565b506040517f42966c680000000000000000000000000000000000000000000000000000000081526004810183905273ffffffffffffffffffffffffffffffffffffffff8416906342966c6890602401600060405180830381600087803b15801562000ccb57600080fd5b505af115801562000ce0573d6000803e3d6000fd5b5050506000858152600d602090815260409182902054915184815233935073ffffffffffffffffffffffffffffffffffffffff909216917f6c9b4e508889a1ad47d9f443fa4a922856051bb1cc015e2048740e560e0f46f1910160405180910390a350505050565b62000d6583838360405180602001604052806000815250620013e7565b505050565b6007805460009181908362000d7f8362002b7a565b919050555062000d90898262001b90565b60005b885181101562000f1257600c60008a838151811062000db65762000db662002bb5565b60209081029190910181015173ffffffffffffffffffffffffffffffffffffffff1682528101919091526040016000205460ff1662000e78576040517f08c379a000000000000000000000000000000000000000000000000000000000815260206004820152603760248201527f596f7520747269656420746f2063726561746520612066756e6420776974682060448201527f61206e6f6e2077686974656c697374656420746f6b656e00000000000000000060648201526084016200090d565b600082815260146020526040902089518a908390811062000e9d5762000e9d62002bb5565b60209081029190910181015182546001810184556000938452919092200180547fffffffffffffffffffffffff00000000000000000000000000000000000000001673ffffffffffffffffffffffffffffffffffffffff9092169190911790558062000f098162002b7a565b91505062000d93565b506008546009546040517fda7323b300000000000000000000000000000000000000000000000000000000815273ffffffffffffffffffffffffffffffffffffffff91821660048201524660248201523060448201526064810184905260006084820181905260c060a483015260c4820181905292919091169063da7323b39060e4016020604051808303816000875af115801562000fb5573d6000803e3d6000fd5b505050506040513d601f19601f8201168201806040525081019062000fdb919062002be4565b905080600d600084815260200190815260200160002060006101000a81548173ffffffffffffffffffffffffffffffffffffffff021916908373ffffffffffffffffffffffffffffffffffffffff16021790555087600e60008481526020019081526020016000208190555086600f6000848152602001908152602001600020819055508560116000848152602001908152602001600020819055508460126000848152602001908152602001600020819055508360136000848152602001908152602001600020819055506000600a60009054906101000a900473ffffffffffffffffffffffffffffffffffffffff1663e0921f8560e01b8e8e308b604051602401620010ed949392919062002c04565b604080517fffffffffffffffffffffffffffffffffffffffffffffffffffffffffffffffe08184030181529181526020820180517bffffffffffffffffffffffffffffffffffffffffffffffffffffffff167fffffffff00000000000000000000000000000000000000000000000000000000909416939093179092529051620011779062002518565b6200118492919062002c78565b604051809103906000f080158015620011a1573d6000803e3d6000fd5b5060008481526015602052604080822080547fffffffffffffffffffffffff00000000000000000000000000000000000000001673ffffffffffffffffffffffffffffffffffffffff85811691821790925591519394509092908516917f9de2be681a220396ec1518a4ecd6c853a760e34fb9174e9213d7aa5a8b12f37991a350909b9a5050505050505050505050565b601460205281600052604060002081815481106200124f57600080fd5b60009182526020909120015473ffffffffffffffffffffffffffffffffffffffff169150829050565b6000620007d6826200199c565b600073ffffffffffffffffffffffffffffffffffffffff8216620012d9576040517f89c62b64000000000000000000000000000000000000000000000000000000008152600060048201526024016200090d565b5073ffffffffffffffffffffffffffffffffffffffff1660009081526003602052604090205490565b6200130c62001c47565b62001318600062001c9c565b565b6200132462001c47565b73ffffffffffffffffffffffffffffffffffffffff166000908152600c6020526040902080547fffffffffffffffffffffffffffffffffffffffffffffffffffffffffffffff00166001179055565b606060018054620007ed9062002a66565b620008bc33838362001d13565b6200139b62001c47565b73ffffffffffffffffffffffffffffffffffffffff166000908152600c6020526040902080547fffffffffffffffffffffffffffffffffffffffffffffffffffffffffffffff00169055565b620013f4848484620008c0565b620009b58484848462001e12565b60606200140f826200199c565b5060006200142860408051602081019091526000815290565b905060008151116200144a576040518060200160405280600081525062001479565b80620014568462002016565b6040516020016200146992919062002ca9565b6040516020818303038152906040525b9392505050565b60008211620014ec576040517f08c379a000000000000000000000000000000000000000000000000000000000815260206004820152601e60248201527f596f75206e65656420746f20696e76657374206d6f7265207468616e2030000060448201526064016200090d565b60008181526011602052604090205442101562001566576040517f08c379a000000000000000000000000000000000000000000000000000000000815260206004820152601b60248201527f496e76657374696d656e74206973206e6f74206f70656e20796574000000000060448201526064016200090d565b600081815260126020526040902054421115620015e0576040517f08c379a000000000000000000000000000000000000000000000000000000000815260206004820152601560248201527f496e76657374696d656e7420697320636c6f736564000000000000000000000060448201526064016200090d565b6000818152600d602052604090205473ffffffffffffffffffffffffffffffffffffffff16806200166e576040517f08c379a000000000000000000000000000000000000000000000000000000000815260206004820152600e60248201527f46756e64206e6f7420666f756e6400000000000000000000000000000000000060448201526064016200090d565b6000828152600e6020526040812054612710906200168d908662002b40565b62001699919062002b04565b90506000620016a9828662002cdc565b600b546040517f23b872dd00000000000000000000000000000000000000000000000000000000815233600482015273ffffffffffffffffffffffffffffffffffffffff8681166024830152604482018490529293509116906323b872dd906064016020604051808303816000875af11580156200172b573d6000803e3d6000fd5b505050506040513d601f19601f8201168201806040525081019062001751919062002b5a565b50600b5473ffffffffffffffffffffffffffffffffffffffff166323b872dd336200177c8762001278565b6040517fffffffff0000000000000000000000000000000000000000000000000000000060e085901b16815273ffffffffffffffffffffffffffffffffffffffff928316600482015291166024820152604481018590526064016020604051808303816000875af1158015620017f6573d6000803e3d6000fd5b505050506040513d601f19601f820116820180604052508101906200181c919062002b5a565b50600084815260106020526040812080548392906200183d90849062002cf2565b9091555050600084815260156020526040908190205490517f40c10f190000000000000000000000000000000000000000000000000000000081523360048201526024810183905273ffffffffffffffffffffffffffffffffffffffff9091169081906340c10f1990604401600060405180830381600087803b158015620018c457600080fd5b505af1158015620018d9573d6000803e3d6000fd5b505060405188815233925073ffffffffffffffffffffffffffffffffffffffff871691507f15bcca398c35efcf80f9148394b3ff1b358089610b2e18b315a3a18050a509429060200160405180910390a3505050505050565b6200193c62001c47565b73ffffffffffffffffffffffffffffffffffffffff81166200198e576040517f1e4fbdf7000000000000000000000000000000000000000000000000000000008152600060048201526024016200090d565b620019998162001c9c565b50565b60008181526002602052604081205473ffffffffffffffffffffffffffffffffffffffff1680620007d6576040517f7e273289000000000000000000000000000000000000000000000000000000008152600481018490526024016200090d565b62000d658383836001620020db565b60008281526002602052604081205473ffffffffffffffffffffffffffffffffffffffff9081169083161562001a495762001a49818486620022af565b73ffffffffffffffffffffffffffffffffffffffff81161562001ac25762001a76600085600080620020db565b73ffffffffffffffffffffffffffffffffffffffff8116600090815260036020526040902080547fffffffffffffffffffffffffffffffffffffffffffffffffffffffffffffffff0190555b73ffffffffffffffffffffffffffffffffffffffff85161562001b0c5773ffffffffffffffffffffffffffffffffffffffff85166000908152600360205260409020805460010190555b60008481526002602052604080822080547fffffffffffffffffffffffff00000000000000000000000000000000000000001673ffffffffffffffffffffffffffffffffffffffff89811691821790925591518793918516917fddf252ad1be2c89b69c2b068fc378daa952ba7f163c4a11628f55a4df523b3ef91a4949350505050565b73ffffffffffffffffffffffffffffffffffffffff821662001be2576040517f64a0ae92000000000000000000000000000000000000000000000000000000008152600060048201526024016200090d565b600062001bf28383600062001a0c565b905073ffffffffffffffffffffffffffffffffffffffff81161562000d65576040517f73c6ac6e000000000000000000000000000000000000000000000000000000008152600060048201526024016200090d565b60065473ffffffffffffffffffffffffffffffffffffffff16331462001318576040517f118cdaa70000000000000000000000000000000000000000000000000000000081523360048201526024016200090d565b6006805473ffffffffffffffffffffffffffffffffffffffff8381167fffffffffffffffffffffffff0000000000000000000000000000000000000000831681179093556040519116919082907f8be0079c531659141344cd1fd0a4f28419497f9722a3daafe3b4186f6b6457e090600090a35050565b73ffffffffffffffffffffffffffffffffffffffff821662001d7a576040517f5b08ba1800000000000000000000000000000000000000000000000000000000815273ffffffffffffffffffffffffffffffffffffffff831660048201526024016200090d565b73ffffffffffffffffffffffffffffffffffffffff83811660008181526005602090815260408083209487168084529482529182902080547fffffffffffffffffffffffffffffffffffffffffffffffffffffffffffffff001686151590811790915591519182527f17307eab39ab6107e8899845ad3d59bd9653f200f220920489ca2b5937696c31910160405180910390a3505050565b73ffffffffffffffffffffffffffffffffffffffff83163b15620009b5576040517f150b7a0200000000000000000000000000000000000000000000000000000000815273ffffffffffffffffffffffffffffffffffffffff84169063150b7a029062001e8a90339088908790879060040162002d08565b6020604051808303816000875af192505050801562001ee6575060408051601f3d9081017fffffffffffffffffffffffffffffffffffffffffffffffffffffffffffffffe016820190925262001ee39181019062002d53565b60015b62001f7a573d80801562001f17576040519150601f19603f3d011682016040523d82523d6000602084013e62001f1c565b606091505b50805160000362001f72576040517f64a0ae9200000000000000000000000000000000000000000000000000000000815273ffffffffffffffffffffffffffffffffffffffff851660048201526024016200090d565b805181602001fd5b7fffffffff0000000000000000000000000000000000000000000000000000000081167f150b7a0200000000000000000000000000000000000000000000000000000000146200200f576040517f64a0ae9200000000000000000000000000000000000000000000000000000000815273ffffffffffffffffffffffffffffffffffffffff851660048201526024016200090d565b5050505050565b60606000620020258362002365565b600101905060008167ffffffffffffffff811115620020485762002048620026c0565b6040519080825280601f01601f19166020018201604052801562002073576020820181803683370190505b5090508181016020015b7fffffffffffffffffffffffffffffffffffffffffffffffffffffffffffffffff017f3031323334353637383961626364656600000000000000000000000000000000600a86061a8153600a85049450846200207d57509392505050565b8080620020fd575073ffffffffffffffffffffffffffffffffffffffff821615155b156200225a57600062002110846200199c565b905073ffffffffffffffffffffffffffffffffffffffff8316158015906200216457508273ffffffffffffffffffffffffffffffffffffffff168173ffffffffffffffffffffffffffffffffffffffff1614155b8015620021a4575073ffffffffffffffffffffffffffffffffffffffff80821660009081526005602090815260408083209387168352929052205460ff16155b15620021f5576040517fa9fbf51f00000000000000000000000000000000000000000000000000000000815273ffffffffffffffffffffffffffffffffffffffff841660048201526024016200090d565b81156200225857838573ffffffffffffffffffffffffffffffffffffffff168273ffffffffffffffffffffffffffffffffffffffff167f8c5be1e5ebec7d5bd14f71427d1e84f3dd0314c0f7b2291e5b200ac8c7c3b92560405160405180910390a45b505b5050600090815260046020526040902080547fffffffffffffffffffffffff00000000000000000000000000000000000000001673ffffffffffffffffffffffffffffffffffffffff92909216919091179055565b620022bc8383836200244e565b62000d655773ffffffffffffffffffffffffffffffffffffffff831662002313576040517f7e273289000000000000000000000000000000000000000000000000000000008152600481018290526024016200090d565b6040517f177e802f00000000000000000000000000000000000000000000000000000000815273ffffffffffffffffffffffffffffffffffffffff83166004820152602481018290526044016200090d565b6000807a184f03e93ff9f4daa797ed6e38ed64bf6a1f0100000000000000008310620023af577a184f03e93ff9f4daa797ed6e38ed64bf6a1f010000000000000000830492506040015b6d04ee2d6d415b85acef81000000008310620023dc576d04ee2d6d415b85acef8100000000830492506020015b662386f26fc100008310620023fb57662386f26fc10000830492506010015b6305f5e100831062002414576305f5e100830492506008015b61271083106200242957612710830492506004015b606483106200243c576064830492506002015b600a8310620007d65760010192915050565b600073ffffffffffffffffffffffffffffffffffffffff8316158015906200251057508273ffffffffffffffffffffffffffffffffffffffff168473ffffffffffffffffffffffffffffffffffffffff161480620024de575073ffffffffffffffffffffffffffffffffffffffff80851660009081526005602090815260408083209387168352929052205460ff165b8062002510575060008281526004602052604090205473ffffffffffffffffffffffffffffffffffffffff8481169116145b949350505050565b6105e58062002d7483390190565b7fffffffff00000000000000000000000000000000000000000000000000000000811681146200199957600080fd5b6000602082840312156200256857600080fd5b8135620014798162002526565b6000602082840312156200258857600080fd5b5035919050565b60005b83811015620025ac57818101518382015260200162002592565b50506000910152565b60008151808452620025cf8160208601602086016200258f565b601f017fffffffffffffffffffffffffffffffffffffffffffffffffffffffffffffffe0169290920160200192915050565b602081526000620014796020830184620025b5565b73ffffffffffffffffffffffffffffffffffffffff811681146200199957600080fd5b8035620026468162002616565b919050565b600080604083850312156200265f57600080fd5b82356200266c8162002616565b946020939093013593505050565b6000806000606084860312156200269057600080fd5b83356200269d8162002616565b92506020840135620026af8162002616565b929592945050506040919091013590565b7f4e487b7100000000000000000000000000000000000000000000000000000000600052604160045260246000fd5b604051601f82017fffffffffffffffffffffffffffffffffffffffffffffffffffffffffffffffe016810167ffffffffffffffff81118282101715620027395762002739620026c0565b604052919050565b600082601f8301126200275357600080fd5b8135602067ffffffffffffffff821115620027725762002772620026c0565b8160051b62002783828201620026ef565b92835284810182019282810190878511156200279e57600080fd5b83870192505b84831015620027ca578235620027ba8162002616565b82529183019190830190620027a4565b979650505050505050565b60008060008060008060008060006101008a8c031215620027f557600080fd5b893567ffffffffffffffff808211156200280e57600080fd5b818c0191508c601f8301126200282357600080fd5b8135818111156200283357600080fd5b8d60208285010111156200284657600080fd5b602083019b50809a50506200285e60208d0162002639565b985060408c01359150808211156200287557600080fd5b50620028848c828d0162002741565b999c989b5096996060810135986080820135985060a0820135975060c0820135965060e090910135945092505050565b60008060408385031215620028c857600080fd5b50508035926020909101359150565b600060208284031215620028ea57600080fd5b8135620014798162002616565b80151581146200199957600080fd5b600080604083850312156200291a57600080fd5b8235620029278162002616565b915060208301356200293981620028f7565b809150509250929050565b600080600080608085870312156200295b57600080fd5b8435620029688162002616565b93506020858101356200297b8162002616565b935060408601359250606086013567ffffffffffffffff80821115620029a057600080fd5b818801915088601f830112620029b557600080fd5b813581811115620029ca57620029ca620026c0565b620029fc847fffffffffffffffffffffffffffffffffffffffffffffffffffffffffffffffe0601f84011601620026ef565b9150808252898482850101111562002a1357600080fd5b808484018584013760008482840101525080935050505092959194509250565b6000806040838503121562002a4757600080fd5b823562002a548162002616565b91506020830135620029398162002616565b600181811c9082168062002a7b57607f821691505b60208210810362002ab5577f4e487b7100000000000000000000000000000000000000000000000000000000600052602260045260246000fd5b50919050565b60006020828403121562002ace57600080fd5b5051919050565b7f4e487b7100000000000000000000000000000000000000000000000000000000600052601160045260246000fd5b60008262002b3b577f4e487b7100000000000000000000000000000000000000000000000000000000600052601260045260246000fd5b500490565b8082028115828204841417620007d657620007d662002ad5565b60006020828403121562002b6d57600080fd5b81516200147981620028f7565b60007fffffffffffffffffffffffffffffffffffffffffffffffffffffffffffffffff820362002bae5762002bae62002ad5565b5060010190565b7f4e487b7100000000000000000000000000000000000000000000000000000000600052603260045260246000fd5b60006020828403121562002bf757600080fd5b8151620014798162002616565b6060815283606082015283856080830137600060808583010152600060807fffffffffffffffffffffffffffffffffffffffffffffffffffffffffffffffe0601f870116830101905073ffffffffffffffffffffffffffffffffffffffff8416602083015282604083015295945050505050565b73ffffffffffffffffffffffffffffffffffffffff83168152604060208201526000620025106040830184620025b5565b6000835162002cbd8184602088016200258f565b83519083019062002cd38183602088016200258f565b01949350505050565b81810381811115620007d657620007d662002ad5565b80820180821115620007d657620007d662002ad5565b600073ffffffffffffffffffffffffffffffffffffffff80871683528086166020840152508360408301526080606083015262002d496080830184620025b5565b9695505050505050565b60006020828403121562002d6657600080fd5b815162001479816200252656fe60a06040526040516105e53803806105e583398101604081905261002291610387565b61002c828261003e565b506001600160a01b031660805261047e565b610047826100fe565b6040516001600160a01b038316907f1cf3b03a6cf19fa2baba4df148e9dcabedea7f8a5c07840e207e5c089be95d3e90600090a28051156100f2576100ed826001600160a01b0316635c60da1b6040518163ffffffff1660e01b8152600401602060405180830381865afa1580156100c3573d6000803e3d6000fd5b505050506040513d601f19601f820116820180604052508101906100e79190610447565b82610211565b505050565b6100fa610288565b5050565b806001600160a01b03163b60000361013957604051631933b43b60e21b81526001600160a01b03821660048201526024015b60405180910390fd5b807fa3f0ad74e5423aebfd80d3ef4346578335a9a72aeaee59ff6cb3582b35133d5080546001600160a01b0319166001600160a01b0392831617905560408051635c60da1b60e01b81529051600092841691635c60da1b9160048083019260209291908290030181865afa1580156101b5573d6000803e3d6000fd5b505050506040513d601f19601f820116820180604052508101906101d99190610447565b9050806001600160a01b03163b6000036100fa57604051634c9c8ce360e01b81526001600160a01b0382166004820152602401610130565b6060600080846001600160a01b03168460405161022e9190610462565b600060405180830381855af49150503d8060008114610269576040519150601f19603f3d011682016040523d82523d6000602084013e61026e565b606091505b50909250905061027f8583836102a9565b95945050505050565b34156102a75760405163b398979f60e01b815260040160405180910390fd5b565b6060826102be576102b982610308565b610301565b81511580156102d557506001600160a01b0384163b155b156102fe57604051639996b31560e01b81526001600160a01b0385166004820152602401610130565b50805b9392505050565b8051156103185780518082602001fd5b604051630a12f52160e11b815260040160405180910390fd5b80516001600160a01b038116811461034857600080fd5b919050565b634e487b7160e01b600052604160045260246000fd5b60005b8381101561037e578181015183820152602001610366565b50506000910152565b6000806040838503121561039a57600080fd5b6103a383610331565b60208401519092506001600160401b03808211156103c057600080fd5b818501915085601f8301126103d457600080fd5b8151818111156103e6576103e661034d565b604051601f8201601f19908116603f0116810190838211818310171561040e5761040e61034d565b8160405282815288602084870101111561042757600080fd5b610438836020830160208801610363565b80955050505050509250929050565b60006020828403121561045957600080fd5b61030182610331565b60008251610474818460208701610363565b9190910192915050565b60805161014d61049860003960006024015261014d6000f3fe608060405261000c61000e565b005b61001e610019610020565b6100b6565b565b60007f000000000000000000000000000000000000000000000000000000000000000073ffffffffffffffffffffffffffffffffffffffff16635c60da1b6040518163ffffffff1660e01b8152600401602060405180830381865afa15801561008d573d6000803e3d6000fd5b505050506040513d601f19601f820116820180604052508101906100b191906100da565b905090565b3660008037600080366000845af43d6000803e8080156100d5573d6000f35b3d6000fd5b6000602082840312156100ec57600080fd5b815173ffffffffffffffffffffffffffffffffffffffff8116811461011057600080fd5b939250505056fea2646970667358221220f264fd31c6b294063385b5e6559a67913b2618204bd7b4fbf778e39fd93b7a5964736f6c63430008140033a2646970667358221220a3c08f7c24f3ea04fc08ee8ef3c53d53e964544162324b4ee5604d687bcb059064736f6c63430008140033",
    "linkReferences": {}
  },
  "methodIdentifiers": {
    "_fundIdCounter()": "1ec3e6c4",
    "admFees(uint256)": "995c8472",
    "approve(address,uint256)": "095ea7b3",
    "balanceOf(address)": "70a08231",
    "closeInvestimentTimestamps(uint256)": "069af241",
    "createFund(string,address,address[],uint256,uint256,uint256,uint256,uint256)": "5ecd5be7",
    "erc6551Implementation()": "b3dd12a2",
    "fundsAddresses(uint256)": "e7e1f1c7",
    "fundsAllowedTokens(uint256,uint256)": "6166cb93",
    "fundsRegister()": "8d180195",
    "getApproved(uint256)": "081812fc",
    "initialAmounts(uint256)": "fb91fb42",
    "invest(uint256,uint256)": "d87aa643",
    "isApprovedForAll(address,address)": "e985e9c5",
    "name()": "06fdde03",
    "openInvestimentTimestamps(uint256)": "1c02225f",
    "openRedeemTimestamps(uint256)": "54d89c91",
    "owner()": "8da5cb5b",
    "ownerOf(uint256)": "6352211e",
    "perfFees(uint256)": "0d0a01cf",
    "quotaTokenImplementation()": "c2ae0e3e",
    "quotasAddresses(uint256)": "4835a6be",
    "redeemYield(uint256)": "258d3c33",
    "removeWhiteListedToken(address)": "b5541dd8",
    "renounceOwnership()": "715018a6",
    "safeTransferFrom(address,address,uint256)": "42842e0e",
    "safeTransferFrom(address,address,uint256,bytes)": "b88d4fde",
    "setApprovalForAll(address,bool)": "a22cb465",
    "setWhiteListedToken(address)": "822dde8d",
    "stablecoin()": "e9cbd822",
    "supportsInterface(bytes4)": "01ffc9a7",
    "symbol()": "95d89b41",
    "tokenURI(uint256)": "c87b56dd",
    "transferFrom(address,address,uint256)": "23b872dd",
    "transferOwnership(address)": "f2fde38b",
    "whiteListedTokens(address)": "d3c26383"
  },
  "id": 62
}