{
  "abi": [
    {
      "inputs": [
        {
          "internalType": "address",
          "name": "_fundRegister",
          "type": "address"
        },
        {
          "internalType": "address",
          "name": "_proxyImplementation",
          "type": "address"
        },
        {
          "internalType": "address",
          "name": "_stablecoin",
          "type": "address"
        }
      ],
      "stateMutability": "nonpayable",
      "type": "constructor"
    },
    {
      "anonymous": false,
      "inputs": [
        {
          "indexed": true,
          "internalType": "address",
          "name": "owner",
          "type": "address"
        },
        {
          "indexed": true,
          "internalType": "address",
          "name": "approved",
          "type": "address"
        },
        {
          "indexed": true,
          "internalType": "uint256",
          "name": "tokenId",
          "type": "uint256"
        }
      ],
      "name": "Approval",
      "type": "event"
    },
    {
      "anonymous": false,
      "inputs": [
        {
          "indexed": true,
          "internalType": "address",
          "name": "owner",
          "type": "address"
        },
        {
          "indexed": true,
          "internalType": "address",
          "name": "operator",
          "type": "address"
        },
        {
          "indexed": false,
          "internalType": "bool",
          "name": "approved",
          "type": "bool"
        }
      ],
      "name": "ApprovalForAll",
      "type": "event"
    },
    {
      "anonymous": false,
      "inputs": [
        {
          "indexed": false,
          "internalType": "address",
          "name": "fundAddress",
          "type": "address"
        }
      ],
      "name": "FundCreated",
      "type": "event"
    },
    {
      "anonymous": false,
      "inputs": [
        {
          "indexed": true,
          "internalType": "address",
          "name": "previousOwner",
          "type": "address"
        },
        {
          "indexed": true,
          "internalType": "address",
          "name": "newOwner",
          "type": "address"
        }
      ],
      "name": "OwnershipTransferred",
      "type": "event"
    },
    {
      "anonymous": false,
      "inputs": [
        {
          "indexed": true,
          "internalType": "address",
          "name": "from",
          "type": "address"
        },
        {
          "indexed": true,
          "internalType": "address",
          "name": "to",
          "type": "address"
        },
        {
          "indexed": true,
          "internalType": "uint256",
          "name": "tokenId",
          "type": "uint256"
        }
      ],
      "name": "Transfer",
      "type": "event"
    },
    {
      "inputs": [],
      "name": "_fundIdCounter",
      "outputs": [
        {
          "internalType": "uint256",
          "name": "_value",
          "type": "uint256"
        }
      ],
      "stateMutability": "view",
      "type": "function"
    },
    {
      "inputs": [
        {
          "internalType": "address",
          "name": "to",
          "type": "address"
        },
        {
          "internalType": "uint256",
          "name": "tokenId",
          "type": "uint256"
        }
      ],
      "name": "approve",
      "outputs": [],
      "stateMutability": "nonpayable",
      "type": "function"
    },
    {
      "inputs": [
        {
          "internalType": "address",
          "name": "owner",
          "type": "address"
        }
      ],
      "name": "balanceOf",
      "outputs": [
        {
          "internalType": "uint256",
          "name": "",
          "type": "uint256"
        }
      ],
      "stateMutability": "view",
      "type": "function"
    },
    {
      "inputs": [
        {
          "internalType": "address",
          "name": "_to",
          "type": "address"
        },
        {
          "internalType": "address",
          "name": "_token",
          "type": "address"
        },
        {
          "internalType": "address[]",
          "name": "_allowedTokens",
          "type": "address[]"
        }
      ],
      "name": "createFund",
      "outputs": [],
      "stateMutability": "nonpayable",
      "type": "function"
    },
    {
      "inputs": [
        {
          "internalType": "uint256",
          "name": "",
          "type": "uint256"
        }
      ],
      "name": "fundsAddresses",
      "outputs": [
        {
          "internalType": "address",
          "name": "",
          "type": "address"
        }
      ],
      "stateMutability": "view",
      "type": "function"
    },
    {
      "inputs": [
        {
          "internalType": "uint256",
          "name": "tokenId",
          "type": "uint256"
        }
      ],
      "name": "getApproved",
      "outputs": [
        {
          "internalType": "address",
          "name": "",
          "type": "address"
        }
      ],
      "stateMutability": "view",
      "type": "function"
    },
    {
      "inputs": [
        {
          "internalType": "uint256",
          "name": "_value",
          "type": "uint256"
        },
        {
          "internalType": "address",
          "name": "_fundAddress",
          "type": "address"
        }
      ],
      "name": "invest",
      "outputs": [],
      "stateMutability": "payable",
      "type": "function"
    },
    {
      "inputs": [
        {
          "internalType": "address",
          "name": "owner",
          "type": "address"
        },
        {
          "internalType": "address",
          "name": "operator",
          "type": "address"
        }
      ],
      "name": "isApprovedForAll",
      "outputs": [
        {
          "internalType": "bool",
          "name": "",
          "type": "bool"
        }
      ],
      "stateMutability": "view",
      "type": "function"
    },
    {
      "inputs": [],
      "name": "name",
      "outputs": [
        {
          "internalType": "string",
          "name": "",
          "type": "string"
        }
      ],
      "stateMutability": "view",
      "type": "function"
    },
    {
      "inputs": [],
      "name": "owner",
      "outputs": [
        {
          "internalType": "address",
          "name": "",
          "type": "address"
        }
      ],
      "stateMutability": "view",
      "type": "function"
    },
    {
      "inputs": [
        {
          "internalType": "uint256",
          "name": "tokenId",
          "type": "uint256"
        }
      ],
      "name": "ownerOf",
      "outputs": [
        {
          "internalType": "address",
          "name": "",
          "type": "address"
        }
      ],
      "stateMutability": "view",
      "type": "function"
    },
    {
      "inputs": [],
      "name": "renounceOwnership",
      "outputs": [],
      "stateMutability": "nonpayable",
      "type": "function"
    },
    {
      "inputs": [
        {
          "internalType": "address",
          "name": "from",
          "type": "address"
        },
        {
          "internalType": "address",
          "name": "to",
          "type": "address"
        },
        {
          "internalType": "uint256",
          "name": "tokenId",
          "type": "uint256"
        }
      ],
      "name": "safeTransferFrom",
      "outputs": [],
      "stateMutability": "nonpayable",
      "type": "function"
    },
    {
      "inputs": [
        {
          "internalType": "address",
          "name": "from",
          "type": "address"
        },
        {
          "internalType": "address",
          "name": "to",
          "type": "address"
        },
        {
          "internalType": "uint256",
          "name": "tokenId",
          "type": "uint256"
        },
        {
          "internalType": "bytes",
          "name": "data",
          "type": "bytes"
        }
      ],
      "name": "safeTransferFrom",
      "outputs": [],
      "stateMutability": "nonpayable",
      "type": "function"
    },
    {
      "inputs": [
        {
          "internalType": "address",
          "name": "operator",
          "type": "address"
        },
        {
          "internalType": "bool",
          "name": "approved",
          "type": "bool"
        }
      ],
      "name": "setApprovalForAll",
      "outputs": [],
      "stateMutability": "nonpayable",
      "type": "function"
    },
    {
      "inputs": [],
      "name": "stablecoin",
      "outputs": [
        {
          "internalType": "contract IERC20",
          "name": "",
          "type": "address"
        }
      ],
      "stateMutability": "view",
      "type": "function"
    },
    {
      "inputs": [
        {
          "internalType": "bytes4",
          "name": "interfaceId",
          "type": "bytes4"
        }
      ],
      "name": "supportsInterface",
      "outputs": [
        {
          "internalType": "bool",
          "name": "",
          "type": "bool"
        }
      ],
      "stateMutability": "view",
      "type": "function"
    },
    {
      "inputs": [],
      "name": "symbol",
      "outputs": [
        {
          "internalType": "string",
          "name": "",
          "type": "string"
        }
      ],
      "stateMutability": "view",
      "type": "function"
    },
    {
      "inputs": [
        {
          "internalType": "uint256",
          "name": "",
          "type": "uint256"
        }
      ],
      "name": "tokenIdToTokenAddress",
      "outputs": [
        {
          "internalType": "address",
          "name": "",
          "type": "address"
        }
      ],
      "stateMutability": "view",
      "type": "function"
    },
    {
      "inputs": [
        {
          "internalType": "uint256",
          "name": "tokenId",
          "type": "uint256"
        }
      ],
      "name": "tokenURI",
      "outputs": [
        {
          "internalType": "string",
          "name": "",
          "type": "string"
        }
      ],
      "stateMutability": "view",
      "type": "function"
    },
    {
      "inputs": [
        {
          "internalType": "address",
          "name": "",
          "type": "address"
        },
        {
          "internalType": "address",
          "name": "",
          "type": "address"
        }
      ],
      "name": "tokensInFund",
      "outputs": [
        {
          "internalType": "bool",
          "name": "",
          "type": "bool"
        }
      ],
      "stateMutability": "view",
      "type": "function"
    },
    {
      "inputs": [
        {
          "internalType": "address",
          "name": "from",
          "type": "address"
        },
        {
          "internalType": "address",
          "name": "to",
          "type": "address"
        },
        {
          "internalType": "uint256",
          "name": "tokenId",
          "type": "uint256"
        }
      ],
      "name": "transferFrom",
      "outputs": [],
      "stateMutability": "nonpayable",
      "type": "function"
    },
    {
      "inputs": [
        {
          "internalType": "address",
          "name": "newOwner",
          "type": "address"
        }
      ],
      "name": "transferOwnership",
      "outputs": [],
      "stateMutability": "nonpayable",
      "type": "function"
    }
  ],
  "bytecode": {
    "object": "0x60806040523480156200001157600080fd5b506040516200269e3803806200269e833981016040819052620000349162000168565b6040518060400160405280600c81526020016b5768616c6546696e616e636560a01b8152506040518060400160405280600381526020016257464960e81b815250816000908162000086919062000257565b50600162000095828262000257565b505050620000b2620000ac620000f560201b60201c565b620000f9565b600980546001600160a01b039485166001600160a01b031991821617909155600a805493851693821693909317909255600d805491909316911617905562000323565b3390565b600680546001600160a01b038381166001600160a01b0319831681179093556040519116919082907f8be0079c531659141344cd1fd0a4f28419497f9722a3daafe3b4186f6b6457e090600090a35050565b80516001600160a01b03811681146200016357600080fd5b919050565b6000806000606084860312156200017e57600080fd5b62000189846200014b565b925062000199602085016200014b565b9150620001a9604085016200014b565b90509250925092565b634e487b7160e01b600052604160045260246000fd5b600181811c90821680620001dd57607f821691505b602082108103620001fe57634e487b7160e01b600052602260045260246000fd5b50919050565b601f8211156200025257600081815260208120601f850160051c810160208610156200022d5750805b601f850160051c820191505b818110156200024e5782815560010162000239565b5050505b505050565b81516001600160401b03811115620002735762000273620001b2565b6200028b81620002848454620001c8565b8462000204565b602080601f831160018114620002c35760008415620002aa5750858301515b600019600386901b1c1916600185901b1785556200024e565b600085815260208120601f198616915b82811015620002f457888601518255948401946001909101908401620002d3565b5085821015620003135787850151600019600388901b60f8161c191681555b5050505050600190811b01905550565b61236b80620003336000396000f3fe6080604052600436106101805760003560e01c8063715018a6116100d6578063b88d4fde1161007f578063e985e9c511610059578063e985e9c51461046e578063e9cbd822146104c4578063f2fde38b146104f157600080fd5b8063b88d4fde1461040e578063c87b56dd1461042e578063e7e1f1c71461044e57600080fd5b8063a22cb465116100b0578063a22cb4651461038b578063a4572c87146103ab578063b4c635b2146103cb57600080fd5b8063715018a6146103365780638da5cb5b1461034b57806395d89b411461037657600080fd5b806323b872dd11610138578063511f2c7f11610112578063511f2c7f146102bb5780636352211e146102f657806370a082311461031657600080fd5b806323b872dd146102685780633d103b971461028857806342842e0e1461029b57600080fd5b8063081812fc11610169578063081812fc146101dc578063095ea7b3146102215780631ec3e6c41461024357600080fd5b806301ffc9a71461018557806306fdde03146101ba575b600080fd5b34801561019157600080fd5b506101a56101a0366004611d4f565b610511565b60405190151581526020015b60405180910390f35b3480156101c657600080fd5b506101cf6105f6565b6040516101b19190611dda565b3480156101e857600080fd5b506101fc6101f7366004611ded565b610688565b60405173ffffffffffffffffffffffffffffffffffffffff90911681526020016101b1565b34801561022d57600080fd5b5061024161023c366004611e28565b6106bc565b005b34801561024f57600080fd5b5060075461025a9081565b6040519081526020016101b1565b34801561027457600080fd5b50610241610283366004611e54565b61084d565b610241610296366004611e95565b6108ee565b3480156102a757600080fd5b506102416102b6366004611e54565b610991565b3480156102c757600080fd5b506101a56102d6366004611ec5565b600b60209081526000928352604080842090915290825290205460ff1681565b34801561030257600080fd5b506101fc610311366004611ded565b6109ac565b34801561032257600080fd5b5061025a610331366004611ef3565b610a38565b34801561034257600080fd5b50610241610b06565b34801561035757600080fd5b5060065473ffffffffffffffffffffffffffffffffffffffff166101fc565b34801561038257600080fd5b506101cf610b1a565b34801561039757600080fd5b506102416103a6366004611f1e565b610b29565b3480156103b757600080fd5b506102416103c6366004611fca565b610b38565b3480156103d757600080fd5b506101fc6103e6366004611ded565b600c6020526000908152604090205473ffffffffffffffffffffffffffffffffffffffff1681565b34801561041a57600080fd5b506102416104293660046120a3565b610db1565b34801561043a57600080fd5b506101cf610449366004611ded565b610e59565b34801561045a57600080fd5b506101fc610469366004611ded565b610ecd565b34801561047a57600080fd5b506101a5610489366004611ec5565b73ffffffffffffffffffffffffffffffffffffffff918216600090815260056020908152604080832093909416825291909152205460ff1690565b3480156104d057600080fd5b50600d546101fc9073ffffffffffffffffffffffffffffffffffffffff1681565b3480156104fd57600080fd5b5061024161050c366004611ef3565b610f04565b60007fffffffff0000000000000000000000000000000000000000000000000000000082167f80ac58cd0000000000000000000000000000000000000000000000000000000014806105a457507fffffffff0000000000000000000000000000000000000000000000000000000082167f5b5e139f00000000000000000000000000000000000000000000000000000000145b806105f057507f01ffc9a7000000000000000000000000000000000000000000000000000000007fffffffff000000000000000000000000000000000000000000000000000000008316145b92915050565b60606000805461060590612185565b80601f016020809104026020016040519081016040528092919081815260200182805461063190612185565b801561067e5780601f106106535761010080835404028352916020019161067e565b820191906000526020600020905b81548152906001019060200180831161066157829003601f168201915b5050505050905090565b600061069382610fbb565b5060009081526004602052604090205473ffffffffffffffffffffffffffffffffffffffff1690565b60006106c7826109ac565b90508073ffffffffffffffffffffffffffffffffffffffff168373ffffffffffffffffffffffffffffffffffffffff1603610789576040517f08c379a000000000000000000000000000000000000000000000000000000000815260206004820152602160248201527f4552433732313a20617070726f76616c20746f2063757272656e74206f776e6560448201527f720000000000000000000000000000000000000000000000000000000000000060648201526084015b60405180910390fd5b3373ffffffffffffffffffffffffffffffffffffffff821614806107b257506107b28133610489565b61083e576040517f08c379a000000000000000000000000000000000000000000000000000000000815260206004820152603d60248201527f4552433732313a20617070726f76652063616c6c6572206973206e6f7420746f60448201527f6b656e206f776e6572206f7220617070726f76656420666f7220616c6c0000006064820152608401610780565b6108488383611046565b505050565b61085733826110e6565b6108e3576040517f08c379a000000000000000000000000000000000000000000000000000000000815260206004820152602d60248201527f4552433732313a2063616c6c6572206973206e6f7420746f6b656e206f776e6560448201527f72206f7220617070726f766564000000000000000000000000000000000000006064820152608401610780565b6108488383836111a6565b600d546040517f23b872dd00000000000000000000000000000000000000000000000000000000815233600482015273ffffffffffffffffffffffffffffffffffffffff838116602483015260448201859052909116906323b872dd906064016020604051808303816000875af115801561096d573d6000803e3d6000fd5b505050506040513d601f19601f8201168201806040525081019061084891906121d8565b61084883838360405180602001604052806000815250610db1565b60008181526002602052604081205473ffffffffffffffffffffffffffffffffffffffff16806105f0576040517f08c379a000000000000000000000000000000000000000000000000000000000815260206004820152601860248201527f4552433732313a20696e76616c696420746f6b656e20494400000000000000006044820152606401610780565b600073ffffffffffffffffffffffffffffffffffffffff8216610add576040517f08c379a000000000000000000000000000000000000000000000000000000000815260206004820152602960248201527f4552433732313a2061646472657373207a65726f206973206e6f74206120766160448201527f6c6964206f776e657200000000000000000000000000000000000000000000006064820152608401610780565b5073ffffffffffffffffffffffffffffffffffffffff1660009081526003602052604090205490565b610b0e6114a1565b610b186000611522565b565b60606001805461060590612185565b610b34338383611599565b5050565b6000610b4360075490565b9050610b53600780546001019055565b610b5d84826116c6565b6009546040517fda7323b300000000000000000000000000000000000000000000000000000000815273ffffffffffffffffffffffffffffffffffffffff90911660048201819052466024830152306044830152606482018390526001608483015260c060a4830152600060c483018190529163da7323b39060e4016020604051808303816000875af1158015610bf8573d6000803e3d6000fd5b505050506040513d601f19601f82011682018060405250810190610c1c91906121f5565b60405173ffffffffffffffffffffffffffffffffffffffff821681529091507fbeacbaab8887097be64d667b2a06e62db7e00cc1429a8ebe02535e97a6cc8fcd9060200160405180910390a160005b8351811015610d205773ffffffffffffffffffffffffffffffffffffffff82166000908152600b60205260408120855160019290879085908110610cb157610cb1612212565b60209081029190910181015173ffffffffffffffffffffffffffffffffffffffff16825281019190915260400160002080547fffffffffffffffffffffffffffffffffffffffffffffffffffffffffffffff001691151591909117905580610d1881612241565b915050610c6b565b5060088054600181019091557ff3f7a9fe364faab93b216da50a3214154f22a0a2b415b23a84c8169e8b636ee30180547fffffffffffffffffffffffff000000000000000000000000000000000000000090811673ffffffffffffffffffffffffffffffffffffffff938416179091556000928352600c602052604090922080549092169316929092179091555050565b610dbb33836110e6565b610e47576040517f08c379a000000000000000000000000000000000000000000000000000000000815260206004820152602d60248201527f4552433732313a2063616c6c6572206973206e6f7420746f6b656e206f776e6560448201527f72206f7220617070726f766564000000000000000000000000000000000000006064820152608401610780565b610e53848484846118eb565b50505050565b6060610e6482610fbb565b6000610e7b60408051602081019091526000815290565b90506000815111610e9b5760405180602001604052806000815250610ec6565b80610ea58461198e565b604051602001610eb69291906122a0565b6040516020818303038152906040525b9392505050565b60088181548110610edd57600080fd5b60009182526020909120015473ffffffffffffffffffffffffffffffffffffffff16905081565b610f0c6114a1565b73ffffffffffffffffffffffffffffffffffffffff8116610faf576040517f08c379a000000000000000000000000000000000000000000000000000000000815260206004820152602660248201527f4f776e61626c653a206e6577206f776e657220697320746865207a65726f206160448201527f64647265737300000000000000000000000000000000000000000000000000006064820152608401610780565b610fb881611522565b50565b60008181526002602052604090205473ffffffffffffffffffffffffffffffffffffffff16610fb8576040517f08c379a000000000000000000000000000000000000000000000000000000000815260206004820152601860248201527f4552433732313a20696e76616c696420746f6b656e20494400000000000000006044820152606401610780565b600081815260046020526040902080547fffffffffffffffffffffffff00000000000000000000000000000000000000001673ffffffffffffffffffffffffffffffffffffffff841690811790915581906110a0826109ac565b73ffffffffffffffffffffffffffffffffffffffff167f8c5be1e5ebec7d5bd14f71427d1e84f3dd0314c0f7b2291e5b200ac8c7c3b92560405160405180910390a45050565b6000806110f2836109ac565b90508073ffffffffffffffffffffffffffffffffffffffff168473ffffffffffffffffffffffffffffffffffffffff161480611160575073ffffffffffffffffffffffffffffffffffffffff80821660009081526005602090815260408083209388168352929052205460ff165b8061119e57508373ffffffffffffffffffffffffffffffffffffffff1661118684610688565b73ffffffffffffffffffffffffffffffffffffffff16145b949350505050565b8273ffffffffffffffffffffffffffffffffffffffff166111c6826109ac565b73ffffffffffffffffffffffffffffffffffffffff1614611269576040517f08c379a000000000000000000000000000000000000000000000000000000000815260206004820152602560248201527f4552433732313a207472616e736665722066726f6d20696e636f72726563742060448201527f6f776e65720000000000000000000000000000000000000000000000000000006064820152608401610780565b73ffffffffffffffffffffffffffffffffffffffff821661130b576040517f08c379a0000000000000000000000000000000000000000000000000000000008152602060048201526024808201527f4552433732313a207472616e7366657220746f20746865207a65726f2061646460448201527f72657373000000000000000000000000000000000000000000000000000000006064820152608401610780565b8273ffffffffffffffffffffffffffffffffffffffff1661132b826109ac565b73ffffffffffffffffffffffffffffffffffffffff16146113ce576040517f08c379a000000000000000000000000000000000000000000000000000000000815260206004820152602560248201527f4552433732313a207472616e736665722066726f6d20696e636f72726563742060448201527f6f776e65720000000000000000000000000000000000000000000000000000006064820152608401610780565b600081815260046020908152604080832080547fffffffffffffffffffffffff000000000000000000000000000000000000000090811690915573ffffffffffffffffffffffffffffffffffffffff8781168086526003855283862080547fffffffffffffffffffffffffffffffffffffffffffffffffffffffffffffffff01905590871680865283862080546001019055868652600290945282852080549092168417909155905184937fddf252ad1be2c89b69c2b068fc378daa952ba7f163c4a11628f55a4df523b3ef91a4505050565b60065473ffffffffffffffffffffffffffffffffffffffff163314610b18576040517f08c379a000000000000000000000000000000000000000000000000000000000815260206004820181905260248201527f4f776e61626c653a2063616c6c6572206973206e6f7420746865206f776e65726044820152606401610780565b6006805473ffffffffffffffffffffffffffffffffffffffff8381167fffffffffffffffffffffffff0000000000000000000000000000000000000000831681179093556040519116919082907f8be0079c531659141344cd1fd0a4f28419497f9722a3daafe3b4186f6b6457e090600090a35050565b8173ffffffffffffffffffffffffffffffffffffffff168373ffffffffffffffffffffffffffffffffffffffff160361162e576040517f08c379a000000000000000000000000000000000000000000000000000000000815260206004820152601960248201527f4552433732313a20617070726f766520746f2063616c6c6572000000000000006044820152606401610780565b73ffffffffffffffffffffffffffffffffffffffff83811660008181526005602090815260408083209487168084529482529182902080547fffffffffffffffffffffffffffffffffffffffffffffffffffffffffffffff001686151590811790915591519182527f17307eab39ab6107e8899845ad3d59bd9653f200f220920489ca2b5937696c31910160405180910390a3505050565b73ffffffffffffffffffffffffffffffffffffffff8216611743576040517f08c379a000000000000000000000000000000000000000000000000000000000815260206004820181905260248201527f4552433732313a206d696e7420746f20746865207a65726f20616464726573736044820152606401610780565b60008181526002602052604090205473ffffffffffffffffffffffffffffffffffffffff16156117cf576040517f08c379a000000000000000000000000000000000000000000000000000000000815260206004820152601c60248201527f4552433732313a20746f6b656e20616c7265616479206d696e746564000000006044820152606401610780565b60008181526002602052604090205473ffffffffffffffffffffffffffffffffffffffff161561185b576040517f08c379a000000000000000000000000000000000000000000000000000000000815260206004820152601c60248201527f4552433732313a20746f6b656e20616c7265616479206d696e746564000000006044820152606401610780565b73ffffffffffffffffffffffffffffffffffffffff8216600081815260036020908152604080832080546001019055848352600290915280822080547fffffffffffffffffffffffff0000000000000000000000000000000000000000168417905551839291907fddf252ad1be2c89b69c2b068fc378daa952ba7f163c4a11628f55a4df523b3ef908290a45050565b6118f68484846111a6565b61190284848484611a4c565b610e53576040517f08c379a000000000000000000000000000000000000000000000000000000000815260206004820152603260248201527f4552433732313a207472616e7366657220746f206e6f6e20455243373231526560448201527f63656976657220696d706c656d656e74657200000000000000000000000000006064820152608401610780565b6060600061199b83611c3f565b600101905060008167ffffffffffffffff8111156119bb576119bb611f4c565b6040519080825280601f01601f1916602001820160405280156119e5576020820181803683370190505b5090508181016020015b7fffffffffffffffffffffffffffffffffffffffffffffffffffffffffffffffff017f3031323334353637383961626364656600000000000000000000000000000000600a86061a8153600a85049450846119ef57509392505050565b600073ffffffffffffffffffffffffffffffffffffffff84163b15611c34576040517f150b7a0200000000000000000000000000000000000000000000000000000000815273ffffffffffffffffffffffffffffffffffffffff85169063150b7a0290611ac39033908990889088906004016122cf565b6020604051808303816000875af1925050508015611b1c575060408051601f3d9081017fffffffffffffffffffffffffffffffffffffffffffffffffffffffffffffffe0168201909252611b1991810190612318565b60015b611be9573d808015611b4a576040519150601f19603f3d011682016040523d82523d6000602084013e611b4f565b606091505b508051600003611be1576040517f08c379a000000000000000000000000000000000000000000000000000000000815260206004820152603260248201527f4552433732313a207472616e7366657220746f206e6f6e20455243373231526560448201527f63656976657220696d706c656d656e74657200000000000000000000000000006064820152608401610780565b805181602001fd5b7fffffffff00000000000000000000000000000000000000000000000000000000167f150b7a020000000000000000000000000000000000000000000000000000000014905061119e565b506001949350505050565b6000807a184f03e93ff9f4daa797ed6e38ed64bf6a1f0100000000000000008310611c88577a184f03e93ff9f4daa797ed6e38ed64bf6a1f010000000000000000830492506040015b6d04ee2d6d415b85acef81000000008310611cb4576d04ee2d6d415b85acef8100000000830492506020015b662386f26fc100008310611cd257662386f26fc10000830492506010015b6305f5e1008310611cea576305f5e100830492506008015b6127108310611cfe57612710830492506004015b60648310611d10576064830492506002015b600a83106105f05760010192915050565b7fffffffff0000000000000000000000000000000000000000000000000000000081168114610fb857600080fd5b600060208284031215611d6157600080fd5b8135610ec681611d21565b60005b83811015611d87578181015183820152602001611d6f565b50506000910152565b60008151808452611da8816020860160208601611d6c565b601f017fffffffffffffffffffffffffffffffffffffffffffffffffffffffffffffffe0169290920160200192915050565b602081526000610ec66020830184611d90565b600060208284031215611dff57600080fd5b5035919050565b73ffffffffffffffffffffffffffffffffffffffff81168114610fb857600080fd5b60008060408385031215611e3b57600080fd5b8235611e4681611e06565b946020939093013593505050565b600080600060608486031215611e6957600080fd5b8335611e7481611e06565b92506020840135611e8481611e06565b929592945050506040919091013590565b60008060408385031215611ea857600080fd5b823591506020830135611eba81611e06565b809150509250929050565b60008060408385031215611ed857600080fd5b8235611ee381611e06565b91506020830135611eba81611e06565b600060208284031215611f0557600080fd5b8135610ec681611e06565b8015158114610fb857600080fd5b60008060408385031215611f3157600080fd5b8235611f3c81611e06565b91506020830135611eba81611f10565b7f4e487b7100000000000000000000000000000000000000000000000000000000600052604160045260246000fd5b604051601f82017fffffffffffffffffffffffffffffffffffffffffffffffffffffffffffffffe016810167ffffffffffffffff81118282101715611fc257611fc2611f4c565b604052919050565b600080600060608486031215611fdf57600080fd5b8335611fea81611e06565b9250602084810135611ffb81611e06565b9250604085013567ffffffffffffffff8082111561201857600080fd5b818701915087601f83011261202c57600080fd5b81358181111561203e5761203e611f4c565b8060051b915061204f848301611f7b565b818152918301840191848101908a84111561206957600080fd5b938501935b83851015612093578435925061208383611e06565b828252938501939085019061206e565b8096505050505050509250925092565b600080600080608085870312156120b957600080fd5b84356120c481611e06565b93506020858101356120d581611e06565b935060408601359250606086013567ffffffffffffffff808211156120f957600080fd5b818801915088601f83011261210d57600080fd5b81358181111561211f5761211f611f4c565b61214f847fffffffffffffffffffffffffffffffffffffffffffffffffffffffffffffffe0601f84011601611f7b565b9150808252898482850101111561216557600080fd5b808484018584013760008482840101525080935050505092959194509250565b600181811c9082168061219957607f821691505b6020821081036121d2577f4e487b7100000000000000000000000000000000000000000000000000000000600052602260045260246000fd5b50919050565b6000602082840312156121ea57600080fd5b8151610ec681611f10565b60006020828403121561220757600080fd5b8151610ec681611e06565b7f4e487b7100000000000000000000000000000000000000000000000000000000600052603260045260246000fd5b60007fffffffffffffffffffffffffffffffffffffffffffffffffffffffffffffffff8203612299577f4e487b7100000000000000000000000000000000000000000000000000000000600052601160045260246000fd5b5060010190565b600083516122b2818460208801611d6c565b8351908301906122c6818360208801611d6c565b01949350505050565b600073ffffffffffffffffffffffffffffffffffffffff80871683528086166020840152508360408301526080606083015261230e6080830184611d90565b9695505050505050565b60006020828403121561232a57600080fd5b8151610ec681611d2156fea26469706673582212202b374ae882fb982b13baf05a9e3bf9fa0b15cc12ba3fd22fe337cbe87e9dbf0d64736f6c63430008110033",
    "linkReferences": {}
  },
  "methodIdentifiers": {
    "_fundIdCounter()": "1ec3e6c4",
    "approve(address,uint256)": "095ea7b3",
    "balanceOf(address)": "70a08231",
    "createFund(address,address,address[])": "a4572c87",
    "fundsAddresses(uint256)": "e7e1f1c7",
    "getApproved(uint256)": "081812fc",
    "invest(uint256,address)": "3d103b97",
    "isApprovedForAll(address,address)": "e985e9c5",
    "name()": "06fdde03",
    "owner()": "8da5cb5b",
    "ownerOf(uint256)": "6352211e",
    "renounceOwnership()": "715018a6",
    "safeTransferFrom(address,address,uint256)": "42842e0e",
    "safeTransferFrom(address,address,uint256,bytes)": "b88d4fde",
    "setApprovalForAll(address,bool)": "a22cb465",
    "stablecoin()": "e9cbd822",
    "supportsInterface(bytes4)": "01ffc9a7",
    "symbol()": "95d89b41",
    "tokenIdToTokenAddress(uint256)": "b4c635b2",
    "tokenURI(uint256)": "c87b56dd",
    "tokensInFund(address,address)": "511f2c7f",
    "transferFrom(address,address,uint256)": "23b872dd",
    "transferOwnership(address)": "f2fde38b"
  },
  "id": 46
}