{"abi":[{"type":"constructor","inputs":[{"name":"_fundsRegister","type":"address","internalType":"address"},{"name":"_erc6551Implementation","type":"address","internalType":"address"},{"name":"_erc20Implementation","type":"address","internalType":"address"},{"name":"_stablecoin","type":"address","internalType":"address"}],"stateMutability":"nonpayable"},{"type":"function","name":"_fundIdCounter","inputs":[],"outputs":[{"name":"","type":"uint256","internalType":"uint256"}],"stateMutability":"view"},{"type":"function","name":"admFees","inputs":[{"name":"","type":"uint256","internalType":"uint256"}],"outputs":[{"name":"","type":"uint256","internalType":"uint256"}],"stateMutability":"view"},{"type":"function","name":"approve","inputs":[{"name":"to","type":"address","internalType":"address"},{"name":"tokenId","type":"uint256","internalType":"uint256"}],"outputs":[],"stateMutability":"nonpayable"},{"type":"function","name":"balanceOf","inputs":[{"name":"owner","type":"address","internalType":"address"}],"outputs":[{"name":"","type":"uint256","internalType":"uint256"}],"stateMutability":"view"},{"type":"function","name":"changeOpenRedeemTimestamp","inputs":[{"name":"_proposalId","type":"uint256","internalType":"uint256"}],"outputs":[],"stateMutability":"nonpayable"},{"type":"function","name":"closeInvestimentTimestamps","inputs":[{"name":"","type":"uint256","internalType":"uint256"}],"outputs":[{"name":"","type":"uint256","internalType":"uint256"}],"stateMutability":"view"},{"type":"function","name":"createFund","inputs":[{"name":"_name","type":"string","internalType":"string"},{"name":"_symbol","type":"string","internalType":"string"},{"name":"_to","type":"address","internalType":"address"},{"name":"_allowedTokens","type":"address[]","internalType":"address[]"},{"name":"_admFee","type":"uint256","internalType":"uint256"},{"name":"_perfFee","type":"uint256","internalType":"uint256"},{"name":"_openInvestiment","type":"uint256","internalType":"uint256"},{"name":"_closeInvestiments","type":"uint256","internalType":"uint256"},{"name":"_openRedeem","type":"uint256","internalType":"uint256"}],"outputs":[{"name":"","type":"uint256","internalType":"uint256"}],"stateMutability":"nonpayable"},{"type":"function","name":"erc6551Implementation","inputs":[],"outputs":[{"name":"","type":"address","internalType":"address"}],"stateMutability":"view"},{"type":"function","name":"executeProposedSwap","inputs":[{"name":"_proposalId","type":"uint256","internalType":"uint256"}],"outputs":[],"stateMutability":"nonpayable"},{"type":"function","name":"fundsAddresses","inputs":[{"name":"","type":"uint256","internalType":"uint256"}],"outputs":[{"name":"","type":"address","internalType":"address"}],"stateMutability":"view"},{"type":"function","name":"fundsAllowedTokens","inputs":[{"name":"","type":"uint256","internalType":"uint256"},{"name":"","type":"uint256","internalType":"uint256"}],"outputs":[{"name":"","type":"address","internalType":"address"}],"stateMutability":"view"},{"type":"function","name":"fundsNames","inputs":[{"name":"","type":"uint256","internalType":"uint256"}],"outputs":[{"name":"","type":"string","internalType":"string"}],"stateMutability":"view"},{"type":"function","name":"fundsRegister","inputs":[],"outputs":[{"name":"","type":"address","internalType":"contract IERC6551Registry"}],"stateMutability":"view"},{"type":"function","name":"getApproved","inputs":[{"name":"tokenId","type":"uint256","internalType":"uint256"}],"outputs":[{"name":"","type":"address","internalType":"address"}],"stateMutability":"view"},{"type":"function","name":"getTotalDelegatedSwapProposalVotes","inputs":[{"name":"_proposalId","type":"uint256","internalType":"uint256"}],"outputs":[{"name":"","type":"uint256","internalType":"uint256"}],"stateMutability":"view"},{"type":"function","name":"getTotalRedeemProposalVotes","inputs":[{"name":"_proposalId","type":"uint256","internalType":"uint256"}],"outputs":[{"name":"","type":"uint256","internalType":"uint256"}],"stateMutability":"view"},{"type":"function","name":"getVoterDelegatedSwapBalance","inputs":[{"name":"_proposalId","type":"uint256","internalType":"uint256"},{"name":"_voter","type":"address","internalType":"address"}],"outputs":[{"name":"","type":"uint256","internalType":"uint256"}],"stateMutability":"view"},{"type":"function","name":"getVoterRedeemBalance","inputs":[{"name":"_proposalId","type":"uint256","internalType":"uint256"},{"name":"_voter","type":"address","internalType":"address"}],"outputs":[{"name":"","type":"uint256","internalType":"uint256"}],"stateMutability":"view"},{"type":"function","name":"initialAmounts","inputs":[{"name":"","type":"uint256","internalType":"uint256"}],"outputs":[{"name":"","type":"uint256","internalType":"uint256"}],"stateMutability":"view"},{"type":"function","name":"invest","inputs":[{"name":"_amount","type":"uint256","internalType":"uint256"},{"name":"fundId","type":"uint256","internalType":"uint256"}],"outputs":[],"stateMutability":"nonpayable"},{"type":"function","name":"isApprovedForAll","inputs":[{"name":"owner","type":"address","internalType":"address"},{"name":"operator","type":"address","internalType":"address"}],"outputs":[{"name":"","type":"bool","internalType":"bool"}],"stateMutability":"view"},{"type":"function","name":"name","inputs":[],"outputs":[{"name":"","type":"string","internalType":"string"}],"stateMutability":"view"},{"type":"function","name":"openInvestimentTimestamps","inputs":[{"name":"","type":"uint256","internalType":"uint256"}],"outputs":[{"name":"","type":"uint256","internalType":"uint256"}],"stateMutability":"view"},{"type":"function","name":"openRedeemProposals","inputs":[{"name":"","type":"uint256","internalType":"uint256"}],"outputs":[{"name":"fundId","type":"uint256","internalType":"uint256"},{"name":"newTimestamp","type":"uint256","internalType":"uint256"},{"name":"deadline","type":"uint256","internalType":"uint256"},{"name":"accepted","type":"bool","internalType":"bool"},{"name":"name","type":"string","internalType":"string"}],"stateMutability":"view"},{"type":"function","name":"openRedeemTimestamps","inputs":[{"name":"","type":"uint256","internalType":"uint256"}],"outputs":[{"name":"","type":"uint256","internalType":"uint256"}],"stateMutability":"view"},{"type":"function","name":"owner","inputs":[],"outputs":[{"name":"","type":"address","internalType":"address"}],"stateMutability":"view"},{"type":"function","name":"ownerOf","inputs":[{"name":"tokenId","type":"uint256","internalType":"uint256"}],"outputs":[{"name":"","type":"address","internalType":"address"}],"stateMutability":"view"},{"type":"function","name":"percentageToWin","inputs":[],"outputs":[{"name":"","type":"uint256","internalType":"uint256"}],"stateMutability":"view"},{"type":"function","name":"perfFees","inputs":[{"name":"","type":"uint256","internalType":"uint256"}],"outputs":[{"name":"","type":"uint256","internalType":"uint256"}],"stateMutability":"view"},{"type":"function","name":"proposalIdCounter","inputs":[],"outputs":[{"name":"","type":"uint256","internalType":"uint256"}],"stateMutability":"view"},{"type":"function","name":"proposalsVotes","inputs":[{"name":"","type":"uint256","internalType":"uint256"}],"outputs":[{"name":"","type":"uint256","internalType":"uint256"}],"stateMutability":"view"},{"type":"function","name":"proposeNewDelegatedSwap","inputs":[{"name":"_fundId","type":"uint256","internalType":"uint256"},{"name":"_amountIn","type":"uint256","internalType":"uint256"},{"name":"_amountOutMin","type":"uint256","internalType":"uint256"},{"name":"_path","type":"address[]","internalType":"address[]"},{"name":"_to","type":"address","internalType":"address"},{"name":"_deadlineSwap","type":"uint256","internalType":"uint256"},{"name":"_deadlineVote","type":"uint256","internalType":"uint256"},{"name":"_name","type":"string","internalType":"string"}],"outputs":[{"name":"","type":"uint256","internalType":"uint256"}],"stateMutability":"nonpayable"},{"type":"function","name":"proposeNewOpenRedeemTimestamp","inputs":[{"name":"_fundId","type":"uint256","internalType":"uint256"},{"name":"_newTimestamp","type":"uint256","internalType":"uint256"},{"name":"_deadline","type":"uint256","internalType":"uint256"},{"name":"_name","type":"string","internalType":"string"}],"outputs":[{"name":"","type":"uint256","internalType":"uint256"}],"stateMutability":"nonpayable"},{"type":"function","name":"quotaTokenImplementation","inputs":[],"outputs":[{"name":"","type":"address","internalType":"address"}],"stateMutability":"view"},{"type":"function","name":"quotasAddresses","inputs":[{"name":"","type":"uint256","internalType":"uint256"}],"outputs":[{"name":"","type":"address","internalType":"address"}],"stateMutability":"view"},{"type":"function","name":"redeemYield","inputs":[{"name":"fundId","type":"uint256","internalType":"uint256"}],"outputs":[],"stateMutability":"nonpayable"},{"type":"function","name":"redemmVotes","inputs":[{"name":"","type":"uint256","internalType":"uint256"},{"name":"","type":"address","internalType":"address"}],"outputs":[{"name":"","type":"uint256","internalType":"uint256"}],"stateMutability":"view"},{"type":"function","name":"removeWhiteListedToken","inputs":[{"name":"_token","type":"address","internalType":"address"}],"outputs":[],"stateMutability":"nonpayable"},{"type":"function","name":"renounceOwnership","inputs":[],"outputs":[],"stateMutability":"nonpayable"},{"type":"function","name":"safeTransferFrom","inputs":[{"name":"from","type":"address","internalType":"address"},{"name":"to","type":"address","internalType":"address"},{"name":"tokenId","type":"uint256","internalType":"uint256"}],"outputs":[],"stateMutability":"nonpayable"},{"type":"function","name":"safeTransferFrom","inputs":[{"name":"from","type":"address","internalType":"address"},{"name":"to","type":"address","internalType":"address"},{"name":"tokenId","type":"uint256","internalType":"uint256"},{"name":"data","type":"bytes","internalType":"bytes"}],"outputs":[],"stateMutability":"nonpayable"},{"type":"function","name":"setApprovalForAll","inputs":[{"name":"operator","type":"address","internalType":"address"},{"name":"approved","type":"bool","internalType":"bool"}],"outputs":[],"stateMutability":"nonpayable"},{"type":"function","name":"setWhiteListedToken","inputs":[{"name":"_token","type":"address","internalType":"address"}],"outputs":[],"stateMutability":"nonpayable"},{"type":"function","name":"stablecoin","inputs":[],"outputs":[{"name":"","type":"address","internalType":"contract IERC20"}],"stateMutability":"view"},{"type":"function","name":"supportsInterface","inputs":[{"name":"interfaceId","type":"bytes4","internalType":"bytes4"}],"outputs":[{"name":"","type":"bool","internalType":"bool"}],"stateMutability":"view"},{"type":"function","name":"swapProposals","inputs":[{"name":"","type":"uint256","internalType":"uint256"}],"outputs":[{"name":"fundId","type":"uint256","internalType":"uint256"},{"name":"amountIn","type":"uint256","internalType":"uint256"},{"name":"amountOutMin","type":"uint256","internalType":"uint256"},{"name":"to","type":"address","internalType":"address"},{"name":"deadlineSwap","type":"uint256","internalType":"uint256"},{"name":"deadlineVote","type":"uint256","internalType":"uint256"},{"name":"accepted","type":"bool","internalType":"bool"},{"name":"name","type":"string","internalType":"string"}],"stateMutability":"view"},{"type":"function","name":"swapProposalsVotes","inputs":[{"name":"","type":"uint256","internalType":"uint256"}],"outputs":[{"name":"","type":"uint256","internalType":"uint256"}],"stateMutability":"view"},{"type":"function","name":"swapRouter","inputs":[],"outputs":[{"name":"","type":"address","internalType":"contract IV2SwapRouter"}],"stateMutability":"view"},{"type":"function","name":"swapVotes","inputs":[{"name":"","type":"uint256","internalType":"uint256"},{"name":"","type":"address","internalType":"address"}],"outputs":[{"name":"","type":"uint256","internalType":"uint256"}],"stateMutability":"view"},{"type":"function","name":"symbol","inputs":[],"outputs":[{"name":"","type":"string","internalType":"string"}],"stateMutability":"view"},{"type":"function","name":"tokenURI","inputs":[{"name":"tokenId","type":"uint256","internalType":"uint256"}],"outputs":[{"name":"","type":"string","internalType":"string"}],"stateMutability":"view"},{"type":"function","name":"transferFrom","inputs":[{"name":"from","type":"address","internalType":"address"},{"name":"to","type":"address","internalType":"address"},{"name":"tokenId","type":"uint256","internalType":"uint256"}],"outputs":[],"stateMutability":"nonpayable"},{"type":"function","name":"transferOwnership","inputs":[{"name":"newOwner","type":"address","internalType":"address"}],"outputs":[],"stateMutability":"nonpayable"},{"type":"function","name":"voteForChangingOpenRedeem","inputs":[{"name":"_proposalId","type":"uint256","internalType":"uint256"},{"name":"_amount","type":"uint256","internalType":"uint256"}],"outputs":[],"stateMutability":"nonpayable"},{"type":"function","name":"voteForDelegatedSwap","inputs":[{"name":"_proposalId","type":"uint256","internalType":"uint256"},{"name":"_amount","type":"uint256","internalType":"uint256"}],"outputs":[],"stateMutability":"nonpayable"},{"type":"function","name":"whiteListedTokens","inputs":[{"name":"","type":"address","internalType":"address"}],"outputs":[{"name":"","type":"bool","internalType":"bool"}],"stateMutability":"view"},{"type":"function","name":"withdrawVotingTokensFromDelegatedSwapProposal","inputs":[{"name":"_proposalId","type":"uint256","internalType":"uint256"}],"outputs":[],"stateMutability":"nonpayable"},{"type":"function","name":"withdrawVotingTokensFromOpenRedeemProposal","inputs":[{"name":"_proposalId","type":"uint256","internalType":"uint256"}],"outputs":[],"stateMutability":"nonpayable"},{"type":"event","name":"Approval","inputs":[{"name":"owner","type":"address","indexed":true,"internalType":"address"},{"name":"approved","type":"address","indexed":true,"internalType":"address"},{"name":"tokenId","type":"uint256","indexed":true,"internalType":"uint256"}],"anonymous":false},{"type":"event","name":"ApprovalForAll","inputs":[{"name":"owner","type":"address","indexed":true,"internalType":"address"},{"name":"operator","type":"address","indexed":true,"internalType":"address"},{"name":"approved","type":"bool","indexed":false,"internalType":"bool"}],"anonymous":false},{"type":"event","name":"DelegatedSwapProposalAccepted","inputs":[{"name":"proposalId","type":"uint256","indexed":true,"internalType":"uint256"},{"name":"fundId","type":"uint256","indexed":true,"internalType":"uint256"},{"name":"amountIn","type":"uint256","indexed":false,"internalType":"uint256"},{"name":"amountOutMin","type":"uint256","indexed":false,"internalType":"uint256"},{"name":"name","type":"string","indexed":false,"internalType":"string"}],"anonymous":false},{"type":"event","name":"FundCreated","inputs":[{"name":"fundAddress","type":"address","indexed":true,"internalType":"address"},{"name":"quotaTokenAddress","type":"address","indexed":true,"internalType":"address"}],"anonymous":false},{"type":"event","name":"InvestimentMade","inputs":[{"name":"fundAddress","type":"address","indexed":true,"internalType":"address"},{"name":"investor","type":"address","indexed":true,"internalType":"address"},{"name":"amount","type":"uint256","indexed":false,"internalType":"uint256"}],"anonymous":false},{"type":"event","name":"NewDelegatedSwapProposal","inputs":[{"name":"proposalId","type":"uint256","indexed":true,"internalType":"uint256"},{"name":"fundId","type":"uint256","indexed":true,"internalType":"uint256"},{"name":"amountIn","type":"uint256","indexed":false,"internalType":"uint256"},{"name":"amountOutMin","type":"uint256","indexed":false,"internalType":"uint256"},{"name":"name","type":"string","indexed":false,"internalType":"string"}],"anonymous":false},{"type":"event","name":"NewOpenRedeemProposal","inputs":[{"name":"proposalId","type":"uint256","indexed":true,"internalType":"uint256"},{"name":"fundId","type":"uint256","indexed":true,"internalType":"uint256"},{"name":"newTimestamp","type":"uint256","indexed":false,"internalType":"uint256"},{"name":"name","type":"string","indexed":false,"internalType":"string"}],"anonymous":false},{"type":"event","name":"OpenRedeemProposalAccepted","inputs":[{"name":"proposalId","type":"uint256","indexed":true,"internalType":"uint256"},{"name":"fundId","type":"uint256","indexed":true,"internalType":"uint256"},{"name":"newTimestamp","type":"uint256","indexed":false,"internalType":"uint256"},{"name":"name","type":"string","indexed":false,"internalType":"string"}],"anonymous":false},{"type":"event","name":"OpenRedeemTimestampChanged","inputs":[{"name":"fundId","type":"address","indexed":true,"internalType":"address"},{"name":"newTimestamp","type":"uint256","indexed":false,"internalType":"uint256"}],"anonymous":false},{"type":"event","name":"OwnershipTransferred","inputs":[{"name":"previousOwner","type":"address","indexed":true,"internalType":"address"},{"name":"newOwner","type":"address","indexed":true,"internalType":"address"}],"anonymous":false},{"type":"event","name":"RedeemMade","inputs":[{"name":"fundAddress","type":"address","indexed":true,"internalType":"address"},{"name":"investor","type":"address","indexed":true,"internalType":"address"},{"name":"amount","type":"uint256","indexed":false,"internalType":"uint256"}],"anonymous":false},{"type":"event","name":"Transfer","inputs":[{"name":"from","type":"address","indexed":true,"internalType":"address"},{"name":"to","type":"address","indexed":true,"internalType":"address"},{"name":"tokenId","type":"uint256","indexed":true,"internalType":"uint256"}],"anonymous":false},{"type":"event","name":"Voted","inputs":[{"name":"proposalId","type":"uint256","indexed":true,"internalType":"uint256"},{"name":"voter","type":"address","indexed":true,"internalType":"address"},{"name":"amount","type":"uint256","indexed":false,"internalType":"uint256"},{"name":"votingType","type":"string","indexed":false,"internalType":"string"}],"anonymous":false},{"type":"event","name":"VotingTokensWithdrawn","inputs":[{"name":"proposalId","type":"uint256","indexed":true,"internalType":"uint256"},{"name":"voter","type":"address","indexed":true,"internalType":"address"},{"name":"amount","type":"uint256","indexed":false,"internalType":"uint256"}],"anonymous":false},{"type":"error","name":"ERC721IncorrectOwner","inputs":[{"name":"sender","type":"address","internalType":"address"},{"name":"tokenId","type":"uint256","internalType":"uint256"},{"name":"owner","type":"address","internalType":"address"}]},{"type":"error","name":"ERC721InsufficientApproval","inputs":[{"name":"operator","type":"address","internalType":"address"},{"name":"tokenId","type":"uint256","internalType":"uint256"}]},{"type":"error","name":"ERC721InvalidApprover","inputs":[{"name":"approver","type":"address","internalType":"address"}]},{"type":"error","name":"ERC721InvalidOperator","inputs":[{"name":"operator","type":"address","internalType":"address"}]},{"type":"error","name":"ERC721InvalidOwner","inputs":[{"name":"owner","type":"address","internalType":"address"}]},{"type":"error","name":"ERC721InvalidReceiver","inputs":[{"name":"receiver","type":"address","internalType":"address"}]},{"type":"error","name":"ERC721InvalidSender","inputs":[{"name":"sender","type":"address","internalType":"address"}]},{"type":"error","name":"ERC721NonexistentToken","inputs":[{"name":"tokenId","type":"uint256","internalType":"uint256"}]},{"type":"error","name":"OwnableInvalidOwner","inputs":[{"name":"owner","type":"address","internalType":"address"}]},{"type":"error","name":"OwnableUnauthorizedAccount","inputs":[{"name":"account","type":"address","internalType":"address"}]}],"bytecode":{"object":"0x6080604052611388600e55601580546001600160a01b031916730fee4c356deef6567e95b6394420583ca1d1feea1790553480156200003d57600080fd5b50604051620059c9380380620059c98339810160408190526200006091620001c2565b336040518060400160405280600c81526020016b5768616c6546696e616e636560a01b8152506040518060400160405280600381526020016257464960e81b8152508160009081620000b39190620002c6565b506001620000c28282620002c6565b5050506001600160a01b038116620000f457604051631e4fbdf760e01b81526000600482015260240160405180910390fd5b620000ff8162000153565b50600880546001600160a01b039586166001600160a01b0319918216179091556009805494861694821694909417909355600b8054918516918416919091179055600a805491909316911617905562000392565b600680546001600160a01b038381166001600160a01b0319831681179093556040519116919082907f8be0079c531659141344cd1fd0a4f28419497f9722a3daafe3b4186f6b6457e090600090a35050565b80516001600160a01b0381168114620001bd57600080fd5b919050565b60008060008060808587031215620001d957600080fd5b620001e485620001a5565b9350620001f460208601620001a5565b92506200020460408601620001a5565b91506200021460608601620001a5565b905092959194509250565b634e487b7160e01b600052604160045260246000fd5b600181811c908216806200024a57607f821691505b6020821081036200026b57634e487b7160e01b600052602260045260246000fd5b50919050565b601f821115620002c1576000816000526020600020601f850160051c810160208610156200029c5750805b601f850160051c820191505b81811015620002bd57828155600101620002a8565b5050505b505050565b81516001600160401b03811115620002e257620002e26200021f565b620002fa81620002f3845462000235565b8462000271565b602080601f831160018114620003325760008415620003195750858301515b600019600386901b1c1916600185901b178555620002bd565b600085815260208120601f198616915b82811015620003635788860151825594840194600190910190840162000342565b5085821015620003825787850151600019600388901b60f8161c191681555b5050505050600190811b01905550565b61562780620003a26000396000f3fe60806040523480156200001157600080fd5b5060043610620003d95760003560e01c806371bea6621162000205578063b88d4fde1162000125578063d9beee1411620000bb578063e9cbd8221162000086578063e9cbd82214620009f8578063f2fde38b1462000a0c578063fb91fb421462000a23578063fdb4ddb31462000a4657600080fd5b8063d9beee141462000948578063dae51d031462000976578063e7e1f1c7146200098d578063e985e9c514620009b957600080fd5b8063c87b56dd11620000fc578063c87b56dd14620008dd578063cb66763314620008f4578063d3c26383146200090b578063d87aa643146200093157600080fd5b8063b88d4fde146200089e578063c2ae0e3e14620008b5578063c31c9c0714620008c957600080fd5b806395d89b41116200019b578063a14843351162000172578063a14843351462000839578063a22cb465146200085c578063b3dd12a21462000873578063b5541dd8146200088757600080fd5b806395d89b4114620007d357806396e39e8214620007dd578063995c8472146200081657600080fd5b80638d18019511620001dc5780638d180195146200078c5780638da5cb5b14620007a057806392a84c5d14620007b25780639559e6ba14620007bc57600080fd5b806371bea6621462000748578063822dde8d14620007525780638320288f146200076957600080fd5b8063264c6f3311620002fd57806350def91011620002935780636352211e116200025e5780636352211e14620006f95780636c4f8442146200071057806370a082311462000727578063715018a6146200073e57600080fd5b806350def910146200068557806354d89c9114620006a85780636166cb9314620006cb5780636301aac714620006e257600080fd5b80633932822a11620002d45780633932822a146200061457806339d75e5f146200062b57806342842e0e14620006425780634835a6be146200065957600080fd5b8063264c6f3314620005ad5780633322ec8214620005da578063339ff6f514620005f157600080fd5b806310e5592711620003735780631c02225f116200034a5780631c02225f14620005525780631ec3e6c4146200057557806323b872dd146200057f578063258d3c33146200059657600080fd5b806310e5592714620004fa57806311c564b114620005115780631451c9b5146200053b57600080fd5b8063081812fc11620003b4578063081812fc1462000455578063095ea7b3146200048557806309f4bc07146200049e5780630d0a01cf14620004d757600080fd5b806301ffc9a714620003de578063069af241146200040a57806306fdde03146200043c575b600080fd5b620003f5620003ef36600462004104565b62000a74565b60405190151581526020015b60405180910390f35b6200042d6200041b36600462004124565b601c6020526000908152604090205481565b60405190815260200162000401565b6200044662000b5b565b604051620004019190620041b0565b6200046c6200046636600462004124565b62000bf5565b6040516001600160a01b03909116815260200162000401565b6200049c62000496366004620041ed565b62000c21565b005b6200042d620004af3660046200421c565b60009182526013602090815260408084206001600160a01b0393909316845291905290205490565b6200042d620004e836600462004124565b60196020526000908152604090205481565b6200049c6200050b36600462004124565b62000c32565b620005286200052236600462004124565b62001048565b604051620004019594939291906200424f565b6200049c6200054c36600462004124565b6200110d565b6200042d6200056336600462004124565b601b6020526000908152604090205481565b6200042d60075481565b6200049c6200059036600462004289565b62001372565b6200049c620005a736600462004124565b62001435565b620005c4620005be36600462004124565b62001767565b60405162000401989796959493929190620042cf565b6200042d620005eb366004620044f2565b6200184c565b6200042d6200060236600462004124565b60146020526000908152604090205481565b6200049c62000625366004620045a4565b620019fb565b6200049c6200063c36600462004124565b62001dee565b6200049c6200065336600462004289565b6200204b565b6200046c6200066a36600462004124565b601f602052600090815260409020546001600160a01b031681565b6200042d6200069636600462004124565b60106020526000908152604090205481565b6200042d620006b936600462004124565b601d6020526000908152604090205481565b6200046c620006dc366004620045a4565b6200206d565b6200049c620006f336600462004124565b620020a6565b6200046c6200070a36600462004124565b620024ab565b6200042d6200072136600462004613565b620024b8565b6200042d62000738366004620046f5565b620029aa565b6200049c62002a0d565b6200042d600e5481565b6200049c62000763366004620046f5565b62002a25565b6200042d6200077a36600462004124565b60009081526010602052604090205490565b6008546200046c906001600160a01b031681565b6006546001600160a01b03166200046c565b6200042d600d5481565b6200042d620007cd36600462004715565b62002a71565b6200044662002b82565b6200042d620007ee3660046200421c565b60009182526011602090815260408084206001600160a01b0393909316845291905290205490565b6200042d6200082736600462004124565b60186020526000908152604090205481565b6200042d6200084a36600462004124565b60009081526014602052604090205490565b6200049c6200086d36600462004782565b62002b93565b6009546200046c906001600160a01b031681565b6200049c62000898366004620046f5565b62002ba0565b6200049c620008af366004620047b5565b62002be9565b600a546200046c906001600160a01b031681565b6015546200046c906001600160a01b031681565b62000446620008ee36600462004124565b62002c04565b6200049c62000905366004620045a4565b62002c82565b620003f56200091c366004620046f5565b600c6020526000908152604090205460ff1681565b6200049c62000942366004620045a4565b62003075565b6200042d620009593660046200421c565b601160209081526000928352604080842090915290825290205481565b620004466200098736600462004124565b62003471565b6200046c6200099e36600462004124565b6016602052600090815260409020546001600160a01b031681565b620003f5620009ca36600462004832565b6001600160a01b03918216600090815260056020908152604080832093909416825291909152205460ff1690565b600b546200046c906001600160a01b031681565b6200049c62000a1d366004620046f5565b62003513565b6200042d62000a3436600462004124565b601a6020526000908152604090205481565b6200042d62000a573660046200421c565b601360209081526000928352604080842090915290825290205481565b60007fffffffff0000000000000000000000000000000000000000000000000000000082167f80ac58cd00000000000000000000000000000000000000000000000000000000148062000b0857507fffffffff0000000000000000000000000000000000000000000000000000000082167f5b5e139f00000000000000000000000000000000000000000000000000000000145b8062000b5557507f01ffc9a7000000000000000000000000000000000000000000000000000000007fffffffff000000000000000000000000000000000000000000000000000000008316145b92915050565b60606000805462000b6c9062004865565b80601f016020809104026020016040519081016040528092919081815260200182805462000b9a9062004865565b801562000beb5780601f1062000bbf5761010080835404028352916020019162000beb565b820191906000526020600020905b81548152906001019060200180831162000bcd57829003601f168201915b5050505050905090565b600062000c028262003570565b506000828152600460205260409020546001600160a01b031662000b55565b62000c2e828233620035c4565b5050565b6000818152600f602052604090208054600182015460029092015490919042821162000ccb5760405162461bcd60e51b815260206004820152602960248201527f596f75206e65656420746f2073657420612074696d657374616d7020696e207460448201527f686520667574757265000000000000000000000000000000000000000000000060648201526084015b60405180910390fd5b6000838152601c6020526040902054821162000d765760405162461bcd60e51b815260206004820152604160248201527f596f75206e65656420746f2073657420612074696d657374616d70206166746560448201527f722074686520636c6f736520696e76657374696d656e742074696d657374616d60648201527f7000000000000000000000000000000000000000000000000000000000000000608482015260a40162000cc2565b80421062000dc75760405162461bcd60e51b815260206004820152601960248201527f54686520766f74696e6720706572696f64206973206f76657200000000000000604482015260640162000cc2565b600754831062000e1a5760405162461bcd60e51b815260206004820152600e60248201527f46756e64206e6f7420666f756e64000000000000000000000000000000000000604482015260640162000cc2565b6000838152601f602090815260408083205481517f18160ddd00000000000000000000000000000000000000000000000000000000815291516001600160a01b03909116926318160ddd92600480820193918290030181865afa15801562000e86573d6000803e3d6000fd5b505050506040513d601f19601f8201168201806040525081019062000eac9190620048ba565b600086815260106020526040902054600e54919250906127109062000ed2908462004903565b62000ede91906200491d565b81111562000f26576000868152600f6020526040902060030180547fffffffffffffffffffffffffffffffffffffffffffffffffffffffffffffff0016600117905562000f95565b60405162461bcd60e51b815260206004820152602160248201527f5468652070726f706f73616c20776173206e6f7420616363657074656420796560448201527f7400000000000000000000000000000000000000000000000000000000000000606482015260840162000cc2565b84867fe8a0dde4126a3c9fdb7041735436502485fd40e6a1deaeed10996c4e7c7d33db86600f60008b815260200190815260200160002060040160405162000fdf929190620049fc565b60405180910390a36000858152601d6020908152604080832087905560168252918290205491518681526001600160a01b03909216917f79c7ab326b4928a04c7cebcf95cd0339dec08bce45597d98c61c16843de9d4e0910160405180910390a2505050505050565b600f602052600090815260409020805460018201546002830154600384015460048501805494959394929360ff90921692620010849062004865565b80601f0160208091040260200160405190810160405280929190818152602001828054620010b29062004865565b8015620011035780601f10620010d75761010080835404028352916020019162001103565b820191906000526020600020905b815481529060010190602001808311620010e557829003601f168201915b5050505050905085565b6000818152601260205260409020600601544211806200113e575060008181526012602052604090206007015460ff165b620011b25760405162461bcd60e51b815260206004820152602160248201527f54686520766f74696e6720706572696f64206973206e6f74206f76657220796560448201527f7400000000000000000000000000000000000000000000000000000000000000606482015260840162000cc2565b6000818152601260205260409020546007548110620012145760405162461bcd60e51b815260206004820152600e60248201527f46756e64206e6f7420666f756e64000000000000000000000000000000000000604482015260640162000cc2565b6000828152601360209081526040808320338452909152902054806200127d5760405162461bcd60e51b815260206004820181905260248201527f596f7520646f6e2774206861766520616e7920766f74696e6720746f6b656e73604482015260640162000cc2565b6000828152601f6020526040908190205490517fa9059cbb000000000000000000000000000000000000000000000000000000008152336004820152602481018390526001600160a01b039091169063a9059cbb906044016020604051808303816000875af1158015620012f5573d6000803e3d6000fd5b505050506040513d601f19601f820116820180604052508101906200131b919062004a17565b50600083815260136020908152604080832033808552908352818420939093555183815285917f78ce92e78a6f28ca5862db5f7d81d68af1a489eff5351221e1821810756bbedc91015b60405180910390a3505050565b6001600160a01b038216620013b7576040517f64a0ae920000000000000000000000000000000000000000000000000000000081526000600482015260240162000cc2565b6000620013c6838333620035d3565b9050836001600160a01b0316816001600160a01b0316146200142f576040517f64283d7b0000000000000000000000000000000000000000000000000000000081526001600160a01b038086166004830152602482018490528216604482015260640162000cc2565b50505050565b6000818152601d6020526040902054421015620014955760405162461bcd60e51b815260206004820152601660248201527f52656465656d206973206e6f74206f70656e2079657400000000000000000000604482015260640162000cc2565b6000818152601f60205260408082205490517f70a082310000000000000000000000000000000000000000000000000000000081523360048201526001600160a01b03909116919082906370a0823190602401602060405180830381865afa15801562001506573d6000803e3d6000fd5b505050506040513d601f19601f820116820180604052508101906200152c9190620048ba565b600b546000858152601660205260408082205490517f70a082310000000000000000000000000000000000000000000000000000000081526001600160a01b03918216600482015293945090929116906370a0823190602401602060405180830381865afa158015620015a3573d6000803e3d6000fd5b505050506040513d601f19601f82011682018060405250810190620015c99190620048ba565b6000858152601a6020526040902054620015e490846200491d565b620015f0919062004903565b600b54600086815260166020526040908190205490517f23b872dd0000000000000000000000000000000000000000000000000000000081526001600160a01b0391821660048201523360248201526044810184905292935016906323b872dd906064016020604051808303816000875af115801562001674573d6000803e3d6000fd5b505050506040513d601f19601f820116820180604052508101906200169a919062004a17565b506040517f42966c68000000000000000000000000000000000000000000000000000000008152600481018390526001600160a01b038416906342966c6890602401600060405180830381600087803b158015620016f757600080fd5b505af11580156200170c573d6000803e3d6000fd5b5050506000858152601660209081526040918290205491518481523393506001600160a01b03909216917f6c9b4e508889a1ad47d9f443fa4a922856051bb1cc015e2048740e560e0f46f1910160405180910390a350505050565b601260205260009081526040902080546001820154600283015460048401546005850154600686015460078701546008880180549798969795966001600160a01b03909516959394929360ff9092169291620017c39062004865565b80601f0160208091040260200160405190810160405280929190818152602001828054620017f19062004865565b8015620018425780601f10620018165761010080835404028352916020019162001842565b820191906000526020600020905b8154815290600101906020018083116200182457829003601f168201915b5050505050905088565b604080516101208101825289815260208082018a81528284018a8152606084018a81526001600160a01b038a16608086015260a0850189905260c08501889052600060e086018190526101008601889052600d548152601285529586208551815592516001840155905160028301555180519192620018d4926003850192909101906200402e565b5060808201516004820180547fffffffffffffffffffffffff0000000000000000000000000000000000000000166001600160a01b0390921691909117905560a0820151600582015560c0820151600682015560e08201516007820180547fffffffffffffffffffffffffffffffffffffffffffffffffffffffffffffff0016911515919091179055610100820151600882019062001974908262004a8b565b5050600d805491506000620019898362004bb2565b9190505550886001600d54620019a0919062004bed565b7fcde86e15526c7dc495bbccedc351bf4310b130577da5b287f1689f0139541dfa8a8a86604051620019d59392919062004c03565b60405180910390a36001600d54620019ee919062004bed565b9998505050505050505050565b600d5482111562001a4f5760405162461bcd60e51b815260206004820152601260248201527f50726f706f73616c206e6f7420666f756e640000000000000000000000000000604482015260640162000cc2565b600082815260126020526040902060060154421062001ab15760405162461bcd60e51b815260206004820152601960248201527f54686520766f74696e6720706572696f64206973206f76657200000000000000604482015260640162000cc2565b60008281526012602052604090206007015460ff161562001b3b5760405162461bcd60e51b815260206004820152602160248201527f5468652070726f706f73616c2077617320616c7265616479206163636570746560448201527f6400000000000000000000000000000000000000000000000000000000000000606482015260840162000cc2565b600082815260126020526040902054600754811062001b9d5760405162461bcd60e51b815260206004820152600e60248201527f46756e64206e6f7420666f756e64000000000000000000000000000000000000604482015260640162000cc2565b6000818152601f6020526040908190205490517fdd62ed3e00000000000000000000000000000000000000000000000000000000815233600482015230602482015283916001600160a01b03169063dd62ed3e90604401602060405180830381865afa15801562001c12573d6000803e3d6000fd5b505050506040513d601f19601f8201168201806040525081019062001c389190620048ba565b101562001c885760405162461bcd60e51b815260206004820152601460248201527f4e6f7420656e6f75676820616c6c6f77616e6365000000000000000000000000604482015260640162000cc2565b6000818152601f6020526040908190205490517f23b872dd000000000000000000000000000000000000000000000000000000008152336004820152306024820152604481018490526001600160a01b03909116906323b872dd906064016020604051808303816000875af115801562001d06573d6000803e3d6000fd5b505050506040513d601f19601f8201168201806040525081019062001d2c919062004a17565b5060008381526013602090815260408083203384529091528120805484929062001d5890849062004c24565b90915550506000838152601460205260408120805484929062001d7d90849062004c24565b9091555050604051339084907f625921c92dca9c9efdb99d32aab025a83a24aa52d095977f2f07be33d0da2f61906200136590868152604060208201819052600d908201527f64656c6567617465645377617000000000000000000000000000000000000000606082015260800190565b6000818152600f602052604090206002015442118062001e1f57506000818152600f602052604090206003015460ff165b62001e935760405162461bcd60e51b815260206004820152602160248201527f54686520766f74696e6720706572696f64206973206e6f74206f76657220796560448201527f7400000000000000000000000000000000000000000000000000000000000000606482015260840162000cc2565b6000818152600f6020526040902054600754811062001ef55760405162461bcd60e51b815260206004820152600e60248201527f46756e64206e6f7420666f756e64000000000000000000000000000000000000604482015260640162000cc2565b60008281526011602090815260408083203384529091529020548062001f5e5760405162461bcd60e51b815260206004820181905260248201527f596f7520646f6e2774206861766520616e7920766f74696e6720746f6b656e73604482015260640162000cc2565b6000828152601f6020526040908190205490517fa9059cbb000000000000000000000000000000000000000000000000000000008152336004820152602481018390526001600160a01b039091169063a9059cbb906044016020604051808303816000875af115801562001fd6573d6000803e3d6000fd5b505050506040513d601f19601f8201168201806040525081019062001ffc919062004a17565b50600083815260116020908152604080832033808552908352818420939093555183815285917f78ce92e78a6f28ca5862db5f7d81d68af1a489eff5351221e1821810756bbedc910162001365565b620020688383836040518060200160405280600081525062002be9565b505050565b601e60205281600052604060002081815481106200208a57600080fd5b6000918252602090912001546001600160a01b03169150829050565b6000818152601260209081526040808320805460018201546002830154600390930180548551818802810188019096528086529296919593949193919290918301828280156200212057602002820191906000526020600020905b81546001600160a01b0316815260019091019060200180831162002101575b505050600088815260126020526040902060048101546006909101549394506001600160a01b031692421091506200219d90505760405162461bcd60e51b815260206004820152601960248201527f54686520766f74696e6720706572696f64206973206f76657200000000000000604482015260640162000cc2565b60008681526012602052604090206007015460ff1615620022275760405162461bcd60e51b815260206004820152602160248201527f5468652070726f706f73616c2077617320616c7265616479206163636570746560448201527f6400000000000000000000000000000000000000000000000000000000000000606482015260840162000cc2565b60075485106200227a5760405162461bcd60e51b815260206004820152600e60248201527f46756e64206e6f7420666f756e64000000000000000000000000000000000000604482015260640162000cc2565b6000858152601f602090815260408083205481517f18160ddd00000000000000000000000000000000000000000000000000000000815291516001600160a01b03909116926318160ddd92600480820193918290030181865afa158015620022e6573d6000803e3d6000fd5b505050506040513d601f19601f820116820180604052508101906200230c9190620048ba565b600088815260146020526040902054600e54919250906127109062002332908462004903565b6200233e91906200491d565b81111562000f2657600088815260126020526040908190206007810180547fffffffffffffffffffffffffffffffffffffffffffffffffffffffffffffff00166001179055905188918a917f2cce80a9a5e9f44828df64d71b4445409ca0393d2d8e9f15421bd1916a467d7691620023c0918b918b9160089091019062004c3a565b60405180910390a36000878152601660209081526040808320548b84526012909252918290206005015491517f2b3aeacc0000000000000000000000000000000000000000000000000000000081526001600160a01b0390911691632b3aeacc9162002438918a918a918a918a919060040162004c5b565b6000604051808303816000875af115801562002458573d6000803e3d6000fd5b505050506040513d6000823e601f3d9081017fffffffffffffffffffffffffffffffffffffffffffffffffffffffffffffffe0168201604052620024a0919081019062004cd0565b505050505050505050565b600062000b558262003570565b60078054600091819083620024cd8362004bb2565b919050555060005b88518110156200261657600c60008a8381518110620024f857620024f862004d5f565b6020908102919091018101516001600160a01b031682528101919091526040016000205460ff16620025935760405162461bcd60e51b815260206004820152603760248201527f596f7520747269656420746f2063726561746520612066756e6420776974682060448201527f61206e6f6e2077686974656c697374656420746f6b656e000000000000000000606482015260840162000cc2565b6000828152601e6020526040902089518a9083908110620025b857620025b862004d5f565b60209081029190910181015182546001808201855560009485529290932090920180547fffffffffffffffffffffffff0000000000000000000000000000000000000000166001600160a01b039093169290921790915501620024d5565b5062002623308262003709565b6008546009546040517fda7323b30000000000000000000000000000000000000000000000000000000081526001600160a01b0391821660048201524660248201523060448201526064810184905260006084820181905260c060a483015260c4820181905292919091169063da7323b39060e4016020604051808303816000875af1158015620026b8573d6000803e3d6000fd5b505050506040513d601f19601f82011682018060405250810190620026de919062004d8e565b6040517f69938d830000000000000000000000000000000000000000000000000000000081523060048201529091506001600160a01b038216906369938d8390602401600060405180830381600087803b1580156200273c57600080fd5b505af115801562002751573d6000803e3d6000fd5b5050505062002762308b84620037a6565b806016600084815260200190815260200160002060006101000a8154816001600160a01b0302191690836001600160a01b031602179055508d8d601760008581526020019081526020016000209182620027be92919062004dae565b5087601860008481526020019081526020016000208190555086601960008481526020019081526020016000208190555085601b60008481526020019081526020016000208190555084601c60008481526020019081526020016000208190555083601d6000848152602001908152602001600020819055506000600a60009054906101000a90046001600160a01b031663e0921f8560e01b8e8e308b60405160240162002870949392919062004ed5565b604080517fffffffffffffffffffffffffffffffffffffffffffffffffffffffffffffffe08184030181529181526020820180517bffffffffffffffffffffffffffffffffffffffffffffffffffffffff167fffffffff00000000000000000000000000000000000000000000000000000000909416939093179092529051620028fa90620040b0565b6200290792919062004f3c565b604051809103906000f08015801562002924573d6000803e3d6000fd5b506000848152601f602052604080822080547fffffffffffffffffffffffff0000000000000000000000000000000000000000166001600160a01b0385811691821790925591519394509092908516917f9de2be681a220396ec1518a4ecd6c853a760e34fb9174e9213d7aa5a8b12f37991a350909d9c50505050505050505050505050565b60006001600160a01b038216620029f1576040517f89c62b640000000000000000000000000000000000000000000000000000000081526000600482015260240162000cc2565b506001600160a01b031660009081526003602052604090205490565b62002a17620038a9565b62002a236000620038f1565b565b62002a2f620038a9565b6001600160a01b03166000908152600c6020526040902080547fffffffffffffffffffffffffffffffffffffffffffffffffffffffffffffff00166001179055565b6040805160a081018252858152602080820186815282840186815260006060850181815260808601888152600d548352600f90955295812085518155925160018401559051600283015593516003820180547fffffffffffffffffffffffffffffffffffffffffffffffffffffffffffffff00169115159190911790559051600482019062002b01908262004a8b565b5050600d80549150600062002b168362004bb2565b9190505550846001600d5462002b2d919062004bed565b7f7872e1c77192c9606c34929ab19a93de13eb47c39be0935b0ec2590e5b283a68868560405162002b6092919062004f60565b60405180910390a36001600d5462002b79919062004bed565b95945050505050565b60606001805462000b6c9062004865565b62000c2e3383836200395b565b62002baa620038a9565b6001600160a01b03166000908152600c6020526040902080547fffffffffffffffffffffffffffffffffffffffffffffffffffffffffffffff00169055565b62002bf684848462001372565b6200142f8484848462003a2c565b606062002c118262003570565b50600062002c2a60408051602081019091526000815290565b9050600081511162002c4c576040518060200160405280600081525062002c7b565b8062002c588462003bfc565b60405160200162002c6b92919062004f7b565b6040516020818303038152906040525b9392505050565b600d5482111562002cd65760405162461bcd60e51b815260206004820152601260248201527f50726f706f73616c206e6f7420666f756e640000000000000000000000000000604482015260640162000cc2565b6000828152600f6020526040902060020154421062002d385760405162461bcd60e51b815260206004820152601960248201527f54686520766f74696e6720706572696f64206973206f76657200000000000000604482015260640162000cc2565b6000828152600f602052604090206003015460ff161562002dc25760405162461bcd60e51b815260206004820152602160248201527f5468652070726f706f73616c2077617320616c7265616479206163636570746560448201527f6400000000000000000000000000000000000000000000000000000000000000606482015260840162000cc2565b6000828152600f6020526040902054600754811062002e245760405162461bcd60e51b815260206004820152600e60248201527f46756e64206e6f7420666f756e64000000000000000000000000000000000000604482015260640162000cc2565b6000818152601f6020526040908190205490517fdd62ed3e00000000000000000000000000000000000000000000000000000000815233600482015230602482015283916001600160a01b03169063dd62ed3e90604401602060405180830381865afa15801562002e99573d6000803e3d6000fd5b505050506040513d601f19601f8201168201806040525081019062002ebf9190620048ba565b101562002f0f5760405162461bcd60e51b815260206004820152601460248201527f4e6f7420656e6f75676820616c6c6f77616e6365000000000000000000000000604482015260640162000cc2565b6000818152601f6020526040908190205490517f23b872dd000000000000000000000000000000000000000000000000000000008152336004820152306024820152604481018490526001600160a01b03909116906323b872dd906064016020604051808303816000875af115801562002f8d573d6000803e3d6000fd5b505050506040513d601f19601f8201168201806040525081019062002fb3919062004a17565b5060008381526011602090815260408083203384529091528120805484929062002fdf90849062004c24565b9091555050600083815260106020526040812080548492906200300490849062004c24565b9091555050604051339084907f625921c92dca9c9efdb99d32aab025a83a24aa52d095977f2f07be33d0da2f61906200136590868152604060208201819052600a908201527f6f70656e52656465656d00000000000000000000000000000000000000000000606082015260800190565b60008211620030c75760405162461bcd60e51b815260206004820152601e60248201527f596f75206e65656420746f20696e76657374206d6f7265207468616e20300000604482015260640162000cc2565b6000818152601b6020526040902054421015620031275760405162461bcd60e51b815260206004820152601b60248201527f496e76657374696d656e74206973206e6f74206f70656e207965740000000000604482015260640162000cc2565b6000818152601c6020526040902054421115620031875760405162461bcd60e51b815260206004820152601560248201527f496e76657374696d656e7420697320636c6f7365640000000000000000000000604482015260640162000cc2565b6000818152601660205260409020546001600160a01b031680620031ee5760405162461bcd60e51b815260206004820152600e60248201527f46756e64206e6f7420666f756e64000000000000000000000000000000000000604482015260640162000cc2565b600082815260186020526040812054612710906200320d908662004903565b6200321991906200491d565b9050600062003229828662004bed565b600b546040517f23b872dd0000000000000000000000000000000000000000000000000000000081523360048201526001600160a01b038681166024830152604482018490529293509116906323b872dd906064016020604051808303816000875af11580156200329e573d6000803e3d6000fd5b505050506040513d601f19601f82011682018060405250810190620032c4919062004a17565b50600b546001600160a01b03166323b872dd33620032e287620024ab565b6040517fffffffff0000000000000000000000000000000000000000000000000000000060e085901b1681526001600160a01b03928316600482015291166024820152604481018590526064016020604051808303816000875af11580156200334f573d6000803e3d6000fd5b505050506040513d601f19601f8201168201806040525081019062003375919062004a17565b506000848152601a6020526040812080548392906200339690849062004c24565b90915550506000848152601f6020526040908190205490517f40c10f19000000000000000000000000000000000000000000000000000000008152336004820152602481018390526001600160a01b039091169081906340c10f1990604401600060405180830381600087803b1580156200341057600080fd5b505af115801562003425573d6000803e3d6000fd5b50506040518881523392506001600160a01b03871691507f15bcca398c35efcf80f9148394b3ff1b358089610b2e18b315a3a18050a509429060200160405180910390a3505050505050565b601760205260009081526040902080546200348c9062004865565b80601f0160208091040260200160405190810160405280929190818152602001828054620034ba9062004865565b80156200350b5780601f10620034df576101008083540402835291602001916200350b565b820191906000526020600020905b815481529060010190602001808311620034ed57829003601f168201915b505050505081565b6200351d620038a9565b6001600160a01b03811662003562576040517f1e4fbdf70000000000000000000000000000000000000000000000000000000081526000600482015260240162000cc2565b6200356d81620038f1565b50565b6000818152600260205260408120546001600160a01b03168062000b55576040517f7e2732890000000000000000000000000000000000000000000000000000000081526004810184905260240162000cc2565b62002068838383600162003cc1565b6000828152600260205260408120546001600160a01b039081169083161562003603576200360381848662003e20565b6001600160a01b0381161562003662576200362360008560008062003cc1565b6001600160a01b038116600090815260036020526040902080547fffffffffffffffffffffffffffffffffffffffffffffffffffffffffffffffff0190555b6001600160a01b0385161562003692576001600160a01b0385166000908152600360205260409020805460010190555b60008481526002602052604080822080547fffffffffffffffffffffffff0000000000000000000000000000000000000000166001600160a01b0389811691821790925591518793918516917fddf252ad1be2c89b69c2b068fc378daa952ba7f163c4a11628f55a4df523b3ef91a4949350505050565b6001600160a01b0382166200374e576040517f64a0ae920000000000000000000000000000000000000000000000000000000081526000600482015260240162000cc2565b60006200375e83836000620035d3565b90506001600160a01b0381161562002068576040517f73c6ac6e0000000000000000000000000000000000000000000000000000000081526000600482015260240162000cc2565b6001600160a01b038216620037eb576040517f64a0ae920000000000000000000000000000000000000000000000000000000081526000600482015260240162000cc2565b6000620037fb83836000620035d3565b90506001600160a01b03811662003842576040517f7e2732890000000000000000000000000000000000000000000000000000000081526004810183905260240162000cc2565b836001600160a01b0316816001600160a01b0316146200142f576040517f64283d7b0000000000000000000000000000000000000000000000000000000081526001600160a01b038086166004830152602482018490528216604482015260640162000cc2565b6006546001600160a01b0316331462002a23576040517f118cdaa700000000000000000000000000000000000000000000000000000000815233600482015260240162000cc2565b600680546001600160a01b038381167fffffffffffffffffffffffff0000000000000000000000000000000000000000831681179093556040519116919082907f8be0079c531659141344cd1fd0a4f28419497f9722a3daafe3b4186f6b6457e090600090a35050565b6001600160a01b038216620039a8576040517f5b08ba180000000000000000000000000000000000000000000000000000000081526001600160a01b038316600482015260240162000cc2565b6001600160a01b0383811660008181526005602090815260408083209487168084529482529182902080547fffffffffffffffffffffffffffffffffffffffffffffffffffffffffffffff001686151590811790915591519182527f17307eab39ab6107e8899845ad3d59bd9653f200f220920489ca2b5937696c31910162001365565b6001600160a01b0383163b156200142f576040517f150b7a020000000000000000000000000000000000000000000000000000000081526001600160a01b0384169063150b7a029062003a8a90339088908790879060040162004fae565b6020604051808303816000875af192505050801562003ae6575060408051601f3d9081017fffffffffffffffffffffffffffffffffffffffffffffffffffffffffffffffe016820190925262003ae39181019062004fec565b60015b62003b6d573d80801562003b17576040519150601f19603f3d011682016040523d82523d6000602084013e62003b1c565b606091505b50805160000362003b65576040517f64a0ae920000000000000000000000000000000000000000000000000000000081526001600160a01b038516600482015260240162000cc2565b805181602001fd5b7fffffffff0000000000000000000000000000000000000000000000000000000081167f150b7a02000000000000000000000000000000000000000000000000000000001462003bf5576040517f64a0ae920000000000000000000000000000000000000000000000000000000081526001600160a01b038516600482015260240162000cc2565b5050505050565b6060600062003c0b8362003ebc565b600101905060008167ffffffffffffffff81111562003c2e5762003c2e62004329565b6040519080825280601f01601f19166020018201604052801562003c59576020820181803683370190505b5090508181016020015b7fffffffffffffffffffffffffffffffffffffffffffffffffffffffffffffffff017f3031323334353637383961626364656600000000000000000000000000000000600a86061a8153600a850494508462003c6357509392505050565b808062003cd657506001600160a01b03821615155b1562003dd857600062003ce98462003570565b90506001600160a01b0383161580159062003d165750826001600160a01b0316816001600160a01b031614155b801562003d4957506001600160a01b0380821660009081526005602090815260408083209387168352929052205460ff16155b1562003d8d576040517fa9fbf51f0000000000000000000000000000000000000000000000000000000081526001600160a01b038416600482015260240162000cc2565b811562003dd65783856001600160a01b0316826001600160a01b03167f8c5be1e5ebec7d5bd14f71427d1e84f3dd0314c0f7b2291e5b200ac8c7c3b92560405160405180910390a45b505b5050600090815260046020526040902080547fffffffffffffffffffffffff0000000000000000000000000000000000000000166001600160a01b0392909216919091179055565b62003e2d83838362003fa5565b62002068576001600160a01b03831662003e77576040517f7e2732890000000000000000000000000000000000000000000000000000000081526004810182905260240162000cc2565b6040517f177e802f0000000000000000000000000000000000000000000000000000000081526001600160a01b03831660048201526024810182905260440162000cc2565b6000807a184f03e93ff9f4daa797ed6e38ed64bf6a1f010000000000000000831062003f06577a184f03e93ff9f4daa797ed6e38ed64bf6a1f010000000000000000830492506040015b6d04ee2d6d415b85acef8100000000831062003f33576d04ee2d6d415b85acef8100000000830492506020015b662386f26fc10000831062003f5257662386f26fc10000830492506010015b6305f5e100831062003f6b576305f5e100830492506008015b612710831062003f8057612710830492506004015b6064831062003f93576064830492506002015b600a831062000b555760010192915050565b60006001600160a01b03831615801590620040265750826001600160a01b0316846001600160a01b031614806200400157506001600160a01b0380851660009081526005602090815260408083209387168352929052205460ff165b806200402657506000828152600460205260409020546001600160a01b038481169116145b949350505050565b8280548282559060005260206000209081019282156200409e579160200282015b828111156200409e57825182547fffffffffffffffffffffffff0000000000000000000000000000000000000000166001600160a01b039091161782556020909201916001909101906200404f565b50620040ac929150620040be565b5090565b6105e5806200500d83390190565b5b80821115620040ac5760008155600101620040bf565b7fffffffff00000000000000000000000000000000000000000000000000000000811681146200356d57600080fd5b6000602082840312156200411757600080fd5b813562002c7b81620040d5565b6000602082840312156200413757600080fd5b5035919050565b60005b838110156200415b57818101518382015260200162004141565b50506000910152565b600081518084526200417e8160208601602086016200413e565b601f017fffffffffffffffffffffffffffffffffffffffffffffffffffffffffffffffe0169290920160200192915050565b60208152600062002c7b602083018462004164565b6001600160a01b03811681146200356d57600080fd5b8035620041e881620041c5565b919050565b600080604083850312156200420157600080fd5b82356200420e81620041c5565b946020939093013593505050565b600080604083850312156200423057600080fd5b8235915060208301356200424481620041c5565b809150509250929050565b858152846020820152836040820152821515606082015260a0608082015260006200427e60a083018462004164565b979650505050505050565b6000806000606084860312156200429f57600080fd5b8335620042ac81620041c5565b92506020840135620042be81620041c5565b929592945050506040919091013590565b60006101008a83528960208401528860408401526001600160a01b03881660608401528660808401528560a084015284151560c08401528060e08401526200431a8184018562004164565b9b9a5050505050505050505050565b7f4e487b7100000000000000000000000000000000000000000000000000000000600052604160045260246000fd5b604051601f82017fffffffffffffffffffffffffffffffffffffffffffffffffffffffffffffffe016810167ffffffffffffffff81118282101715620043a257620043a262004329565b604052919050565b600067ffffffffffffffff821115620043c757620043c762004329565b5060051b60200190565b600082601f830112620043e357600080fd5b81356020620043fc620043f683620043aa565b62004358565b8083825260208201915060208460051b8701019350868411156200441f57600080fd5b602086015b84811015620044485780356200443a81620041c5565b835291830191830162004424565b509695505050505050565b600067ffffffffffffffff83111562004470576200447062004329565b620044a360207fffffffffffffffffffffffffffffffffffffffffffffffffffffffffffffffe0601f8601160162004358565b9050828152838383011115620044b857600080fd5b828260208301376000602084830101529392505050565b600082601f830112620044e157600080fd5b62002c7b8383356020850162004453565b600080600080600080600080610100898b0312156200451057600080fd5b883597506020890135965060408901359550606089013567ffffffffffffffff808211156200453e57600080fd5b6200454c8c838d01620043d1565b965060808b013591506200456082620041c5565b90945060a08a0135935060c08a0135925060e08a013590808211156200458557600080fd5b50620045948b828c01620044cf565b9150509295985092959890939650565b60008060408385031215620045b857600080fd5b50508035926020909101359150565b60008083601f840112620045da57600080fd5b50813567ffffffffffffffff811115620045f357600080fd5b6020830191508360208285010111156200460c57600080fd5b9250929050565b60008060008060008060008060008060006101208c8e0312156200463657600080fd5b67ffffffffffffffff808d3511156200464e57600080fd5b6200465d8e8e358f01620045c7565b909c509a5060208d01358110156200467457600080fd5b620046868e60208f01358f01620045c7565b909a5098506200469960408e01620041db565b97508060608e01351115620046ad57600080fd5b50620046c08d60608e01358e01620043d1565b9a9d999c50979a9699959895975050505060808401359360a08101359360c0820135935060e082013592506101009091013590565b6000602082840312156200470857600080fd5b813562002c7b81620041c5565b600080600080608085870312156200472c57600080fd5b843593506020850135925060408501359150606085013567ffffffffffffffff8111156200475957600080fd5b6200476787828801620044cf565b91505092959194509250565b80151581146200356d57600080fd5b600080604083850312156200479657600080fd5b8235620047a381620041c5565b91506020830135620042448162004773565b60008060008060808587031215620047cc57600080fd5b8435620047d981620041c5565b93506020850135620047eb81620041c5565b925060408501359150606085013567ffffffffffffffff8111156200480f57600080fd5b8501601f810187136200482157600080fd5b620047678782356020840162004453565b600080604083850312156200484657600080fd5b82356200485381620041c5565b915060208301356200424481620041c5565b600181811c908216806200487a57607f821691505b602082108103620048b4577f4e487b7100000000000000000000000000000000000000000000000000000000600052602260045260246000fd5b50919050565b600060208284031215620048cd57600080fd5b5051919050565b7f4e487b7100000000000000000000000000000000000000000000000000000000600052601160045260246000fd5b808202811582820484141762000b555762000b55620048d4565b60008262004954577f4e487b7100000000000000000000000000000000000000000000000000000000600052601260045260246000fd5b500490565b60008154620049688162004865565b808552602060018381168015620049885760018114620049c157620049f1565b7fffffffffffffffffffffffffffffffffffffffffffffffffffffffffffffff008516838901528284151560051b8901019550620049f1565b866000528260002060005b85811015620049e95781548a8201860152908301908401620049cc565b890184019650505b505050505092915050565b82815260406020820152600062004026604083018462004959565b60006020828403121562004a2a57600080fd5b815162002c7b8162004773565b601f82111562002068576000816000526020600020601f850160051c8101602086101562004a625750805b601f850160051c820191505b8181101562004a835782815560010162004a6e565b505050505050565b815167ffffffffffffffff81111562004aa85762004aa862004329565b62004ac08162004ab9845462004865565b8462004a37565b602080601f83116001811462004b16576000841562004adf5750858301515b7fffffffffffffffffffffffffffffffffffffffffffffffffffffffffffffffff600386901b1c1916600185901b17855562004a83565b6000858152602081207fffffffffffffffffffffffffffffffffffffffffffffffffffffffffffffffe08616915b8281101562004b655788860151825594840194600190910190840162004b44565b508582101562004ba257878501517fffffffffffffffffffffffffffffffffffffffffffffffffffffffffffffffff600388901b60f8161c191681555b5050505050600190811b01905550565b60007fffffffffffffffffffffffffffffffffffffffffffffffffffffffffffffffff820362004be65762004be6620048d4565b5060010190565b8181038181111562000b555762000b55620048d4565b83815282602082015260606040820152600062002b79606083018462004164565b8082018082111562000b555762000b55620048d4565b83815282602082015260606040820152600062002b79606083018462004959565b600060a08201878352602087602085015260a0604085015281875180845260c08601915060208901935060005b8181101562004caf5784516001600160a01b03168352938301939183019160010162004c88565b50506001600160a01b03969096166060850152505050608001529392505050565b6000602080838503121562004ce457600080fd5b825167ffffffffffffffff81111562004cfc57600080fd5b8301601f8101851362004d0e57600080fd5b805162004d1f620043f682620043aa565b81815260059190911b8201830190838101908783111562004d3f57600080fd5b928401925b828410156200427e5783518252928401929084019062004d44565b7f4e487b7100000000000000000000000000000000000000000000000000000000600052603260045260246000fd5b60006020828403121562004da157600080fd5b815162002c7b81620041c5565b67ffffffffffffffff83111562004dc95762004dc962004329565b62004de18362004dda835462004865565b8362004a37565b6000601f84116001811462004e36576000851562004dff5750838201355b7fffffffffffffffffffffffffffffffffffffffffffffffffffffffffffffffff600387901b1c1916600186901b17835562003bf5565b6000838152602090207fffffffffffffffffffffffffffffffffffffffffffffffffffffffffffffffe0861690835b8281101562004e87578685013582556020948501946001909201910162004e65565b508682101562004ec3577fffffffffffffffffffffffffffffffffffffffffffffffffffffffffffffffff60f88860031b161c19848701351681555b505060018560011b0183555050505050565b6060815283606082015283856080830137600060808583010152600060807fffffffffffffffffffffffffffffffffffffffffffffffffffffffffffffffe0601f87011683010190506001600160a01b038416602083015282604083015295945050505050565b6001600160a01b038316815260406020820152600062004026604083018462004164565b82815260406020820152600062004026604083018462004164565b6000835162004f8f8184602088016200413e565b83519083019062004fa58183602088016200413e565b01949350505050565b60006001600160a01b0380871683528086166020840152508360408301526080606083015262004fe2608083018462004164565b9695505050505050565b60006020828403121562004fff57600080fd5b815162002c7b81620040d556fe60a06040526040516105e53803806105e583398101604081905261002291610387565b61002c828261003e565b506001600160a01b031660805261047e565b610047826100fe565b6040516001600160a01b038316907f1cf3b03a6cf19fa2baba4df148e9dcabedea7f8a5c07840e207e5c089be95d3e90600090a28051156100f2576100ed826001600160a01b0316635c60da1b6040518163ffffffff1660e01b8152600401602060405180830381865afa1580156100c3573d6000803e3d6000fd5b505050506040513d601f19601f820116820180604052508101906100e79190610447565b82610211565b505050565b6100fa610288565b5050565b806001600160a01b03163b60000361013957604051631933b43b60e21b81526001600160a01b03821660048201526024015b60405180910390fd5b807fa3f0ad74e5423aebfd80d3ef4346578335a9a72aeaee59ff6cb3582b35133d5080546001600160a01b0319166001600160a01b0392831617905560408051635c60da1b60e01b81529051600092841691635c60da1b9160048083019260209291908290030181865afa1580156101b5573d6000803e3d6000fd5b505050506040513d601f19601f820116820180604052508101906101d99190610447565b9050806001600160a01b03163b6000036100fa57604051634c9c8ce360e01b81526001600160a01b0382166004820152602401610130565b6060600080846001600160a01b03168460405161022e9190610462565b600060405180830381855af49150503d8060008114610269576040519150601f19603f3d011682016040523d82523d6000602084013e61026e565b606091505b50909250905061027f8583836102a9565b95945050505050565b34156102a75760405163b398979f60e01b815260040160405180910390fd5b565b6060826102be576102b982610308565b610301565b81511580156102d557506001600160a01b0384163b155b156102fe57604051639996b31560e01b81526001600160a01b0385166004820152602401610130565b50805b9392505050565b8051156103185780518082602001fd5b604051630a12f52160e11b815260040160405180910390fd5b80516001600160a01b038116811461034857600080fd5b919050565b634e487b7160e01b600052604160045260246000fd5b60005b8381101561037e578181015183820152602001610366565b50506000910152565b6000806040838503121561039a57600080fd5b6103a383610331565b60208401519092506001600160401b03808211156103c057600080fd5b818501915085601f8301126103d457600080fd5b8151818111156103e6576103e661034d565b604051601f8201601f19908116603f0116810190838211818310171561040e5761040e61034d565b8160405282815288602084870101111561042757600080fd5b610438836020830160208801610363565b80955050505050509250929050565b60006020828403121561045957600080fd5b61030182610331565b60008251610474818460208701610363565b9190910192915050565b60805161014d61049860003960006024015261014d6000f3fe608060405261000c61000e565b005b61001e610019610020565b6100b6565b565b60007f000000000000000000000000000000000000000000000000000000000000000073ffffffffffffffffffffffffffffffffffffffff16635c60da1b6040518163ffffffff1660e01b8152600401602060405180830381865afa15801561008d573d6000803e3d6000fd5b505050506040513d601f19601f820116820180604052508101906100b191906100da565b905090565b3660008037600080366000845af43d6000803e8080156100d5573d6000f35b3d6000fd5b6000602082840312156100ec57600080fd5b815173ffffffffffffffffffffffffffffffffffffffff8116811461011057600080fd5b939250505056fea2646970667358221220ecec535a8b9df36ffe27bd4dcb3bf42fa4df5268fe2f59946b7141fa0fd3b66d64736f6c63430008170033a264697066735822122066024b00dae5c5a82d6048063ad99298634c33e5c6459c36f8b10184b543a6da64736f6c63430008170033","linkReferences":{}},"methodIdentifiers":{"_fundIdCounter()":"1ec3e6c4","admFees(uint256)":"995c8472","approve(address,uint256)":"095ea7b3","balanceOf(address)":"70a08231","changeOpenRedeemTimestamp(uint256)":"10e55927","closeInvestimentTimestamps(uint256)":"069af241","createFund(string,string,address,address[],uint256,uint256,uint256,uint256,uint256)":"6c4f8442","erc6551Implementation()":"b3dd12a2","executeProposedSwap(uint256)":"6301aac7","fundsAddresses(uint256)":"e7e1f1c7","fundsAllowedTokens(uint256,uint256)":"6166cb93","fundsNames(uint256)":"dae51d03","fundsRegister()":"8d180195","getApproved(uint256)":"081812fc","getTotalDelegatedSwapProposalVotes(uint256)":"a1484335","getTotalRedeemProposalVotes(uint256)":"8320288f","getVoterDelegatedSwapBalance(uint256,address)":"09f4bc07","getVoterRedeemBalance(uint256,address)":"96e39e82","initialAmounts(uint256)":"fb91fb42","invest(uint256,uint256)":"d87aa643","isApprovedForAll(address,address)":"e985e9c5","name()":"06fdde03","openInvestimentTimestamps(uint256)":"1c02225f","openRedeemProposals(uint256)":"11c564b1","openRedeemTimestamps(uint256)":"54d89c91","owner()":"8da5cb5b","ownerOf(uint256)":"6352211e","percentageToWin()":"71bea662","perfFees(uint256)":"0d0a01cf","proposalIdCounter()":"92a84c5d","proposalsVotes(uint256)":"50def910","proposeNewDelegatedSwap(uint256,uint256,uint256,address[],address,uint256,uint256,string)":"3322ec82","proposeNewOpenRedeemTimestamp(uint256,uint256,uint256,string)":"9559e6ba","quotaTokenImplementation()":"c2ae0e3e","quotasAddresses(uint256)":"4835a6be","redeemYield(uint256)":"258d3c33","redemmVotes(uint256,address)":"d9beee14","removeWhiteListedToken(address)":"b5541dd8","renounceOwnership()":"715018a6","safeTransferFrom(address,address,uint256)":"42842e0e","safeTransferFrom(address,address,uint256,bytes)":"b88d4fde","setApprovalForAll(address,bool)":"a22cb465","setWhiteListedToken(address)":"822dde8d","stablecoin()":"e9cbd822","supportsInterface(bytes4)":"01ffc9a7","swapProposals(uint256)":"264c6f33","swapProposalsVotes(uint256)":"339ff6f5","swapRouter()":"c31c9c07","swapVotes(uint256,address)":"fdb4ddb3","symbol()":"95d89b41","tokenURI(uint256)":"c87b56dd","transferFrom(address,address,uint256)":"23b872dd","transferOwnership(address)":"f2fde38b","voteForChangingOpenRedeem(uint256,uint256)":"cb667633","voteForDelegatedSwap(uint256,uint256)":"3932822a","whiteListedTokens(address)":"d3c26383","withdrawVotingTokensFromDelegatedSwapProposal(uint256)":"1451c9b5","withdrawVotingTokensFromOpenRedeemProposal(uint256)":"39d75e5f"},"id":61}