{
  "abi": [
    {
      "inputs": [
        {
          "internalType": "address",
          "name": "_fundsRegister",
          "type": "address"
        },
        {
          "internalType": "address",
          "name": "_erc6551Implementation",
          "type": "address"
        },
        {
          "internalType": "address",
          "name": "_erc20Implementation",
          "type": "address"
        },
        {
          "internalType": "address",
          "name": "_stablecoin",
          "type": "address"
        }
      ],
      "stateMutability": "nonpayable",
      "type": "constructor"
    },
    {
      "inputs": [
        {
          "internalType": "address",
          "name": "sender",
          "type": "address"
        },
        {
          "internalType": "uint256",
          "name": "tokenId",
          "type": "uint256"
        },
        {
          "internalType": "address",
          "name": "owner",
          "type": "address"
        }
      ],
      "name": "ERC721IncorrectOwner",
      "type": "error"
    },
    {
      "inputs": [
        {
          "internalType": "address",
          "name": "operator",
          "type": "address"
        },
        {
          "internalType": "uint256",
          "name": "tokenId",
          "type": "uint256"
        }
      ],
      "name": "ERC721InsufficientApproval",
      "type": "error"
    },
    {
      "inputs": [
        {
          "internalType": "address",
          "name": "approver",
          "type": "address"
        }
      ],
      "name": "ERC721InvalidApprover",
      "type": "error"
    },
    {
      "inputs": [
        {
          "internalType": "address",
          "name": "operator",
          "type": "address"
        }
      ],
      "name": "ERC721InvalidOperator",
      "type": "error"
    },
    {
      "inputs": [
        {
          "internalType": "address",
          "name": "owner",
          "type": "address"
        }
      ],
      "name": "ERC721InvalidOwner",
      "type": "error"
    },
    {
      "inputs": [
        {
          "internalType": "address",
          "name": "receiver",
          "type": "address"
        }
      ],
      "name": "ERC721InvalidReceiver",
      "type": "error"
    },
    {
      "inputs": [
        {
          "internalType": "address",
          "name": "sender",
          "type": "address"
        }
      ],
      "name": "ERC721InvalidSender",
      "type": "error"
    },
    {
      "inputs": [
        {
          "internalType": "uint256",
          "name": "tokenId",
          "type": "uint256"
        }
      ],
      "name": "ERC721NonexistentToken",
      "type": "error"
    },
    {
      "inputs": [
        {
          "internalType": "address",
          "name": "owner",
          "type": "address"
        }
      ],
      "name": "OwnableInvalidOwner",
      "type": "error"
    },
    {
      "inputs": [
        {
          "internalType": "address",
          "name": "account",
          "type": "address"
        }
      ],
      "name": "OwnableUnauthorizedAccount",
      "type": "error"
    },
    {
      "anonymous": false,
      "inputs": [
        {
          "indexed": true,
          "internalType": "address",
          "name": "owner",
          "type": "address"
        },
        {
          "indexed": true,
          "internalType": "address",
          "name": "approved",
          "type": "address"
        },
        {
          "indexed": true,
          "internalType": "uint256",
          "name": "tokenId",
          "type": "uint256"
        }
      ],
      "name": "Approval",
      "type": "event"
    },
    {
      "anonymous": false,
      "inputs": [
        {
          "indexed": true,
          "internalType": "address",
          "name": "owner",
          "type": "address"
        },
        {
          "indexed": true,
          "internalType": "address",
          "name": "operator",
          "type": "address"
        },
        {
          "indexed": false,
          "internalType": "bool",
          "name": "approved",
          "type": "bool"
        }
      ],
      "name": "ApprovalForAll",
      "type": "event"
    },
    {
      "anonymous": false,
      "inputs": [
        {
          "indexed": true,
          "internalType": "address",
          "name": "fundAddress",
          "type": "address"
        },
        {
          "indexed": true,
          "internalType": "address",
          "name": "quotaTokenAddress",
          "type": "address"
        }
      ],
      "name": "FundCreated",
      "type": "event"
    },
    {
      "anonymous": false,
      "inputs": [
        {
          "indexed": true,
          "internalType": "address",
          "name": "fundAddress",
          "type": "address"
        },
        {
          "indexed": true,
          "internalType": "address",
          "name": "investor",
          "type": "address"
        },
        {
          "indexed": false,
          "internalType": "uint256",
          "name": "amount",
          "type": "uint256"
        }
      ],
      "name": "InvestimentMade",
      "type": "event"
    },
    {
      "anonymous": false,
      "inputs": [
        {
          "indexed": true,
          "internalType": "address",
          "name": "previousOwner",
          "type": "address"
        },
        {
          "indexed": true,
          "internalType": "address",
          "name": "newOwner",
          "type": "address"
        }
      ],
      "name": "OwnershipTransferred",
      "type": "event"
    },
    {
      "anonymous": false,
      "inputs": [
        {
          "indexed": true,
          "internalType": "address",
          "name": "fundAddress",
          "type": "address"
        },
        {
          "indexed": true,
          "internalType": "address",
          "name": "investor",
          "type": "address"
        },
        {
          "indexed": false,
          "internalType": "uint256",
          "name": "amount",
          "type": "uint256"
        }
      ],
      "name": "RedeemMade",
      "type": "event"
    },
    {
      "anonymous": false,
      "inputs": [
        {
          "indexed": true,
          "internalType": "address",
          "name": "from",
          "type": "address"
        },
        {
          "indexed": true,
          "internalType": "address",
          "name": "to",
          "type": "address"
        },
        {
          "indexed": true,
          "internalType": "uint256",
          "name": "tokenId",
          "type": "uint256"
        }
      ],
      "name": "Transfer",
      "type": "event"
    },
    {
      "inputs": [],
      "name": "_fundIdCounter",
      "outputs": [
        {
          "internalType": "uint256",
          "name": "",
          "type": "uint256"
        }
      ],
      "stateMutability": "view",
      "type": "function"
    },
    {
      "inputs": [
        {
          "internalType": "uint256",
          "name": "",
          "type": "uint256"
        }
      ],
      "name": "admFees",
      "outputs": [
        {
          "internalType": "uint256",
          "name": "",
          "type": "uint256"
        }
      ],
      "stateMutability": "view",
      "type": "function"
    },
    {
      "inputs": [
        {
          "internalType": "address",
          "name": "to",
          "type": "address"
        },
        {
          "internalType": "uint256",
          "name": "tokenId",
          "type": "uint256"
        }
      ],
      "name": "approve",
      "outputs": [],
      "stateMutability": "nonpayable",
      "type": "function"
    },
    {
      "inputs": [
        {
          "internalType": "address",
          "name": "owner",
          "type": "address"
        }
      ],
      "name": "balanceOf",
      "outputs": [
        {
          "internalType": "uint256",
          "name": "",
          "type": "uint256"
        }
      ],
      "stateMutability": "view",
      "type": "function"
    },
    {
      "inputs": [
        {
          "internalType": "uint256",
          "name": "",
          "type": "uint256"
        }
      ],
      "name": "closeInvestimentTimestamps",
      "outputs": [
        {
          "internalType": "uint256",
          "name": "",
          "type": "uint256"
        }
      ],
      "stateMutability": "view",
      "type": "function"
    },
    {
      "inputs": [
        {
          "internalType": "string",
          "name": "_name",
          "type": "string"
        },
        {
          "internalType": "string",
          "name": "_symbol",
          "type": "string"
        },
        {
          "internalType": "address",
          "name": "_to",
          "type": "address"
        },
        {
          "internalType": "address[]",
          "name": "_allowedTokens",
          "type": "address[]"
        },
        {
          "internalType": "uint256",
          "name": "_admFee",
          "type": "uint256"
        },
        {
          "internalType": "uint256",
          "name": "_perfFee",
          "type": "uint256"
        },
        {
          "internalType": "uint256",
          "name": "_openInvestiment",
          "type": "uint256"
        },
        {
          "internalType": "uint256",
          "name": "_closeInvestiments",
          "type": "uint256"
        },
        {
          "internalType": "uint256",
          "name": "_openRedeem",
          "type": "uint256"
        }
      ],
      "name": "createFund",
      "outputs": [
        {
          "internalType": "uint256",
          "name": "",
          "type": "uint256"
        }
      ],
      "stateMutability": "nonpayable",
      "type": "function"
    },
    {
      "inputs": [],
      "name": "erc6551Implementation",
      "outputs": [
        {
          "internalType": "address",
          "name": "",
          "type": "address"
        }
      ],
      "stateMutability": "view",
      "type": "function"
    },
    {
      "inputs": [
        {
          "internalType": "uint256",
          "name": "",
          "type": "uint256"
        }
      ],
      "name": "fundsAddresses",
      "outputs": [
        {
          "internalType": "address",
          "name": "",
          "type": "address"
        }
      ],
      "stateMutability": "view",
      "type": "function"
    },
    {
      "inputs": [
        {
          "internalType": "uint256",
          "name": "",
          "type": "uint256"
        },
        {
          "internalType": "uint256",
          "name": "",
          "type": "uint256"
        }
      ],
      "name": "fundsAllowedTokens",
      "outputs": [
        {
          "internalType": "address",
          "name": "",
          "type": "address"
        }
      ],
      "stateMutability": "view",
      "type": "function"
    },
    {
      "inputs": [
        {
          "internalType": "uint256",
          "name": "",
          "type": "uint256"
        }
      ],
      "name": "fundsNames",
      "outputs": [
        {
          "internalType": "string",
          "name": "",
          "type": "string"
        }
      ],
      "stateMutability": "view",
      "type": "function"
    },
    {
      "inputs": [],
      "name": "fundsRegister",
      "outputs": [
        {
          "internalType": "contract IERC6551Registry",
          "name": "",
          "type": "address"
        }
      ],
      "stateMutability": "view",
      "type": "function"
    },
    {
      "inputs": [
        {
          "internalType": "uint256",
          "name": "tokenId",
          "type": "uint256"
        }
      ],
      "name": "getApproved",
      "outputs": [
        {
          "internalType": "address",
          "name": "",
          "type": "address"
        }
      ],
      "stateMutability": "view",
      "type": "function"
    },
    {
      "inputs": [
        {
          "internalType": "uint256",
          "name": "",
          "type": "uint256"
        }
      ],
      "name": "initialAmounts",
      "outputs": [
        {
          "internalType": "uint256",
          "name": "",
          "type": "uint256"
        }
      ],
      "stateMutability": "view",
      "type": "function"
    },
    {
      "inputs": [
        {
          "internalType": "uint256",
          "name": "_amount",
          "type": "uint256"
        },
        {
          "internalType": "uint256",
          "name": "fundId",
          "type": "uint256"
        }
      ],
      "name": "invest",
      "outputs": [],
      "stateMutability": "nonpayable",
      "type": "function"
    },
    {
      "inputs": [
        {
          "internalType": "address",
          "name": "owner",
          "type": "address"
        },
        {
          "internalType": "address",
          "name": "operator",
          "type": "address"
        }
      ],
      "name": "isApprovedForAll",
      "outputs": [
        {
          "internalType": "bool",
          "name": "",
          "type": "bool"
        }
      ],
      "stateMutability": "view",
      "type": "function"
    },
    {
      "inputs": [],
      "name": "name",
      "outputs": [
        {
          "internalType": "string",
          "name": "",
          "type": "string"
        }
      ],
      "stateMutability": "view",
      "type": "function"
    },
    {
      "inputs": [
        {
          "internalType": "uint256",
          "name": "",
          "type": "uint256"
        }
      ],
      "name": "openInvestimentTimestamps",
      "outputs": [
        {
          "internalType": "uint256",
          "name": "",
          "type": "uint256"
        }
      ],
      "stateMutability": "view",
      "type": "function"
    },
    {
      "inputs": [
        {
          "internalType": "uint256",
          "name": "",
          "type": "uint256"
        }
      ],
      "name": "openRedeemTimestamps",
      "outputs": [
        {
          "internalType": "uint256",
          "name": "",
          "type": "uint256"
        }
      ],
      "stateMutability": "view",
      "type": "function"
    },
    {
      "inputs": [],
      "name": "owner",
      "outputs": [
        {
          "internalType": "address",
          "name": "",
          "type": "address"
        }
      ],
      "stateMutability": "view",
      "type": "function"
    },
    {
      "inputs": [
        {
          "internalType": "uint256",
          "name": "tokenId",
          "type": "uint256"
        }
      ],
      "name": "ownerOf",
      "outputs": [
        {
          "internalType": "address",
          "name": "",
          "type": "address"
        }
      ],
      "stateMutability": "view",
      "type": "function"
    },
    {
      "inputs": [
        {
          "internalType": "uint256",
          "name": "",
          "type": "uint256"
        }
      ],
      "name": "perfFees",
      "outputs": [
        {
          "internalType": "uint256",
          "name": "",
          "type": "uint256"
        }
      ],
      "stateMutability": "view",
      "type": "function"
    },
    {
      "inputs": [],
      "name": "quotaTokenImplementation",
      "outputs": [
        {
          "internalType": "address",
          "name": "",
          "type": "address"
        }
      ],
      "stateMutability": "view",
      "type": "function"
    },
    {
      "inputs": [
        {
          "internalType": "uint256",
          "name": "",
          "type": "uint256"
        }
      ],
      "name": "quotasAddresses",
      "outputs": [
        {
          "internalType": "address",
          "name": "",
          "type": "address"
        }
      ],
      "stateMutability": "view",
      "type": "function"
    },
    {
      "inputs": [
        {
          "internalType": "uint256",
          "name": "fundId",
          "type": "uint256"
        }
      ],
      "name": "redeemYield",
      "outputs": [],
      "stateMutability": "nonpayable",
      "type": "function"
    },
    {
      "inputs": [
        {
          "internalType": "address",
          "name": "_token",
          "type": "address"
        }
      ],
      "name": "removeWhiteListedToken",
      "outputs": [],
      "stateMutability": "nonpayable",
      "type": "function"
    },
    {
      "inputs": [],
      "name": "renounceOwnership",
      "outputs": [],
      "stateMutability": "nonpayable",
      "type": "function"
    },
    {
      "inputs": [
        {
          "internalType": "address",
          "name": "from",
          "type": "address"
        },
        {
          "internalType": "address",
          "name": "to",
          "type": "address"
        },
        {
          "internalType": "uint256",
          "name": "tokenId",
          "type": "uint256"
        }
      ],
      "name": "safeTransferFrom",
      "outputs": [],
      "stateMutability": "nonpayable",
      "type": "function"
    },
    {
      "inputs": [
        {
          "internalType": "address",
          "name": "from",
          "type": "address"
        },
        {
          "internalType": "address",
          "name": "to",
          "type": "address"
        },
        {
          "internalType": "uint256",
          "name": "tokenId",
          "type": "uint256"
        },
        {
          "internalType": "bytes",
          "name": "data",
          "type": "bytes"
        }
      ],
      "name": "safeTransferFrom",
      "outputs": [],
      "stateMutability": "nonpayable",
      "type": "function"
    },
    {
      "inputs": [
        {
          "internalType": "address",
          "name": "operator",
          "type": "address"
        },
        {
          "internalType": "bool",
          "name": "approved",
          "type": "bool"
        }
      ],
      "name": "setApprovalForAll",
      "outputs": [],
      "stateMutability": "nonpayable",
      "type": "function"
    },
    {
      "inputs": [
        {
          "internalType": "address",
          "name": "_token",
          "type": "address"
        }
      ],
      "name": "setWhiteListedToken",
      "outputs": [],
      "stateMutability": "nonpayable",
      "type": "function"
    },
    {
      "inputs": [],
      "name": "stablecoin",
      "outputs": [
        {
          "internalType": "contract IERC20",
          "name": "",
          "type": "address"
        }
      ],
      "stateMutability": "view",
      "type": "function"
    },
    {
      "inputs": [
        {
          "internalType": "bytes4",
          "name": "interfaceId",
          "type": "bytes4"
        }
      ],
      "name": "supportsInterface",
      "outputs": [
        {
          "internalType": "bool",
          "name": "",
          "type": "bool"
        }
      ],
      "stateMutability": "view",
      "type": "function"
    },
    {
      "inputs": [],
      "name": "swapRouter",
      "outputs": [
        {
          "internalType": "contract IV2SwapRouter",
          "name": "",
          "type": "address"
        }
      ],
      "stateMutability": "view",
      "type": "function"
    },
    {
      "inputs": [],
      "name": "symbol",
      "outputs": [
        {
          "internalType": "string",
          "name": "",
          "type": "string"
        }
      ],
      "stateMutability": "view",
      "type": "function"
    },
    {
      "inputs": [
        {
          "internalType": "uint256",
          "name": "tokenId",
          "type": "uint256"
        }
      ],
      "name": "tokenURI",
      "outputs": [
        {
          "internalType": "string",
          "name": "",
          "type": "string"
        }
      ],
      "stateMutability": "view",
      "type": "function"
    },
    {
      "inputs": [
        {
          "internalType": "address",
          "name": "from",
          "type": "address"
        },
        {
          "internalType": "address",
          "name": "to",
          "type": "address"
        },
        {
          "internalType": "uint256",
          "name": "tokenId",
          "type": "uint256"
        }
      ],
      "name": "transferFrom",
      "outputs": [],
      "stateMutability": "nonpayable",
      "type": "function"
    },
    {
      "inputs": [
        {
          "internalType": "address",
          "name": "newOwner",
          "type": "address"
        }
      ],
      "name": "transferOwnership",
      "outputs": [],
      "stateMutability": "nonpayable",
      "type": "function"
    },
    {
      "inputs": [
        {
          "internalType": "address",
          "name": "",
          "type": "address"
        }
      ],
      "name": "whiteListedTokens",
      "outputs": [
        {
          "internalType": "bool",
          "name": "",
          "type": "bool"
        }
      ],
      "stateMutability": "view",
      "type": "function"
    }
  ],
  "bytecode": {
    "object": "0x6080604052600d80546001600160a01b031916737963c1bd24e4511a0b14bf148f93e2556afe3c271790553480156200003757600080fd5b5060405162003a2b38038062003a2b8339810160408190526200005a91620001bc565b336040518060400160405280600c81526020016b5768616c6546696e616e636560a01b8152506040518060400160405280600381526020016257464960e81b8152508160009081620000ad9190620002be565b506001620000bc8282620002be565b5050506001600160a01b038116620000ee57604051631e4fbdf760e01b81526000600482015260240160405180910390fd5b620000f9816200014d565b50600880546001600160a01b039586166001600160a01b0319918216179091556009805494861694821694909417909355600b8054918516918416919091179055600a80549190931691161790556200038a565b600680546001600160a01b038381166001600160a01b0319831681179093556040519116919082907f8be0079c531659141344cd1fd0a4f28419497f9722a3daafe3b4186f6b6457e090600090a35050565b80516001600160a01b0381168114620001b757600080fd5b919050565b60008060008060808587031215620001d357600080fd5b620001de856200019f565b9350620001ee602086016200019f565b9250620001fe604086016200019f565b91506200020e606086016200019f565b905092959194509250565b634e487b7160e01b600052604160045260246000fd5b600181811c908216806200024457607f821691505b6020821081036200026557634e487b7160e01b600052602260045260246000fd5b50919050565b601f821115620002b957600081815260208120601f850160051c81016020861015620002945750805b601f850160051c820191505b81811015620002b557828155600101620002a0565b5050505b505050565b81516001600160401b03811115620002da57620002da62000219565b620002f281620002eb84546200022f565b846200026b565b602080601f8311600181146200032a5760008415620003115750858301515b600019600386901b1c1916600185901b178555620002b5565b600085815260208120601f198616915b828110156200035b578886015182559484019460019091019084016200033a565b50858210156200037a5787850151600019600388901b60f8161c191681555b5050505050600190811b01905550565b613691806200039a6000396000f3fe60806040523480156200001157600080fd5b5060043610620002c75760003560e01c80638d180195116200017c578063c31c9c0711620000e9578063e7e1f1c71162000097578063e9cbd822116200007a578063e9cbd822146200070c578063f2fde38b146200072d578063fb91fb42146200074457600080fd5b8063e7e1f1c71462000687578063e985e9c514620006c057600080fd5b8063d3c2638311620000cc578063d3c263831462000633578063d87aa6431462000659578063dae51d03146200067057600080fd5b8063c31c9c0714620005fb578063c87b56dd146200061c57600080fd5b8063a22cb4651162000147578063b5541dd8116200012a578063b5541dd814620005ac578063b88d4fde14620005c3578063c2ae0e3e14620005da57600080fd5b8063a22cb4651462000574578063b3dd12a2146200058b57600080fd5b80638d18019514620005075780638da5cb5b146200052857806395d89b411462000547578063995c8472146200055157600080fd5b8063258d3c3311620002385780636352211e11620001e657806370a0823111620001c957806370a0823114620004cf578063715018a614620004e6578063822dde8d14620004f057600080fd5b80636352211e14620004a15780636c4f844214620004b857600080fd5b80634835a6be116200021b5780634835a6be146200042e57806354d89c9114620004675780636166cb93146200048a57600080fd5b8063258d3c33146200040057806342842e0e146200041757600080fd5b8063095ea7b311620002965780631c02225f11620002795780631c02225f14620003bc5780631ec3e6c414620003df57806323b872dd14620003e957600080fd5b8063095ea7b314620003805780630d0a01cf146200039957600080fd5b806301ffc9a714620002cc578063069af24114620002f857806306fdde03146200032a578063081812fc1462000343575b600080fd5b620002e3620002dd36600462002690565b62000767565b60405190151581526020015b60405180910390f35b6200031b62000309366004620026b0565b60146020526000908152604090205481565b604051908152602001620002ef565b620003346200084e565b604051620002ef91906200273c565b6200035a62000354366004620026b0565b620008e8565b60405173ffffffffffffffffffffffffffffffffffffffff9091168152602001620002ef565b620003976200039136600462002786565b62000921565b005b6200031b620003aa366004620026b0565b60116020526000908152604090205481565b6200031b620003cd366004620026b0565b60136020526000908152604090205481565b6200031b60075481565b62000397620003fa366004620027b5565b62000932565b6200039762000411366004620026b0565b62000a2d565b6200039762000428366004620027b5565b62000dba565b6200035a6200043f366004620026b0565b60176020526000908152604090205473ffffffffffffffffffffffffffffffffffffffff1681565b6200031b62000478366004620026b0565b60156020526000908152604090205481565b6200035a6200049b366004620027fb565b62000ddc565b6200035a620004b2366004620026b0565b62000e22565b6200031b620004c93660046200297f565b62000e2f565b6200031b620004e036600462002a61565b6200131e565b620003976200139b565b620003976200050136600462002a61565b620013b3565b6008546200035a9073ffffffffffffffffffffffffffffffffffffffff1681565b60065473ffffffffffffffffffffffffffffffffffffffff166200035a565b620003346200140c565b6200031b62000562366004620026b0565b60106020526000908152604090205481565b620003976200058536600462002a90565b6200141d565b6009546200035a9073ffffffffffffffffffffffffffffffffffffffff1681565b62000397620005bd36600462002a61565b6200142a565b62000397620005d436600462002ace565b62001480565b600a546200035a9073ffffffffffffffffffffffffffffffffffffffff1681565b600d546200035a9073ffffffffffffffffffffffffffffffffffffffff1681565b620003346200062d366004620026b0565b6200149b565b620002e36200064436600462002a61565b600c6020526000908152604090205460ff1681565b620003976200066a366004620027fb565b62001519565b6200033462000681366004620026b0565b620019cb565b6200035a62000698366004620026b0565b600e6020526000908152604090205473ffffffffffffffffffffffffffffffffffffffff1681565b620002e3620006d136600462002bbd565b73ffffffffffffffffffffffffffffffffffffffff918216600090815260056020908152604080832093909416825291909152205460ff1690565b600b546200035a9073ffffffffffffffffffffffffffffffffffffffff1681565b620003976200073e36600462002a61565b62001a6d565b6200031b62000755366004620026b0565b60126020526000908152604090205481565b60007fffffffff0000000000000000000000000000000000000000000000000000000082167f80ac58cd000000000000000000000000000000000000000000000000000000001480620007fb57507fffffffff0000000000000000000000000000000000000000000000000000000082167f5b5e139f00000000000000000000000000000000000000000000000000000000145b806200084857507f01ffc9a7000000000000000000000000000000000000000000000000000000007fffffffff000000000000000000000000000000000000000000000000000000008316145b92915050565b6060600080546200085f9062002bf0565b80601f01602080910402602001604051908101604052809291908181526020018280546200088d9062002bf0565b8015620008de5780601f10620008b257610100808354040283529160200191620008de565b820191906000526020600020905b815481529060010190602001808311620008c057829003601f168201915b5050505050905090565b6000620008f58262001ad7565b5060008281526004602052604090205473ffffffffffffffffffffffffffffffffffffffff1662000848565b6200092e82823362001b38565b5050565b73ffffffffffffffffffffffffffffffffffffffff821662000988576040517f64a0ae92000000000000000000000000000000000000000000000000000000008152600060048201526024015b60405180910390fd5b60006200099783833362001b47565b90508373ffffffffffffffffffffffffffffffffffffffff168173ffffffffffffffffffffffffffffffffffffffff161462000a27576040517f64283d7b00000000000000000000000000000000000000000000000000000000815273ffffffffffffffffffffffffffffffffffffffff808616600483015260248201849052821660448201526064016200097f565b50505050565b60008181526015602052604090205442101562000aa7576040517f08c379a000000000000000000000000000000000000000000000000000000000815260206004820152601660248201527f52656465656d206973206e6f74206f70656e207965740000000000000000000060448201526064016200097f565b6000818152601760205260408082205490517f70a0823100000000000000000000000000000000000000000000000000000000815233600482015273ffffffffffffffffffffffffffffffffffffffff909116919082906370a0823190602401602060405180830381865afa15801562000b25573d6000803e3d6000fd5b505050506040513d601f19601f8201168201806040525081019062000b4b919062002c45565b600b546000858152600e60205260408082205490517f70a0823100000000000000000000000000000000000000000000000000000000815273ffffffffffffffffffffffffffffffffffffffff918216600482015293945090929116906370a0823190602401602060405180830381865afa15801562000bcf573d6000803e3d6000fd5b505050506040513d601f19601f8201168201806040525081019062000bf5919062002c45565b60008581526012602052604090205462000c10908462002c8e565b62000c1c919062002cca565b600b546000868152600e6020526040908190205490517f23b872dd00000000000000000000000000000000000000000000000000000000815273ffffffffffffffffffffffffffffffffffffffff91821660048201523360248201526044810184905292935016906323b872dd906064016020604051808303816000875af115801562000cad573d6000803e3d6000fd5b505050506040513d601f19601f8201168201806040525081019062000cd3919062002ce4565b506040517f42966c680000000000000000000000000000000000000000000000000000000081526004810183905273ffffffffffffffffffffffffffffffffffffffff8416906342966c6890602401600060405180830381600087803b15801562000d3d57600080fd5b505af115801562000d52573d6000803e3d6000fd5b5050506000858152600e602090815260409182902054915184815233935073ffffffffffffffffffffffffffffffffffffffff909216917f6c9b4e508889a1ad47d9f443fa4a922856051bb1cc015e2048740e560e0f46f1910160405180910390a350505050565b62000dd78383836040518060200160405280600081525062001480565b505050565b6016602052816000526040600020818154811062000df957600080fd5b60009182526020909120015473ffffffffffffffffffffffffffffffffffffffff169150829050565b6000620008488262001ad7565b6007805460009181908362000e448362002d04565b919050555062000e55898262001ccb565b60005b885181101562000fd757600c60008a838151811062000e7b5762000e7b62002d3f565b60209081029190910181015173ffffffffffffffffffffffffffffffffffffffff1682528101919091526040016000205460ff1662000f3d576040517f08c379a000000000000000000000000000000000000000000000000000000000815260206004820152603760248201527f596f7520747269656420746f2063726561746520612066756e6420776974682060448201527f61206e6f6e2077686974656c697374656420746f6b656e00000000000000000060648201526084016200097f565b600082815260166020526040902089518a908390811062000f625762000f6262002d3f565b60209081029190910181015182546001810184556000938452919092200180547fffffffffffffffffffffffff00000000000000000000000000000000000000001673ffffffffffffffffffffffffffffffffffffffff9092169190911790558062000fce8162002d04565b91505062000e58565b506008546009546040517fda7323b300000000000000000000000000000000000000000000000000000000815273ffffffffffffffffffffffffffffffffffffffff91821660048201524660248201523060448201526064810184905260006084820181905260c060a483015260c4820181905292919091169063da7323b39060e4016020604051808303816000875af11580156200107a573d6000803e3d6000fd5b505050506040513d601f19601f82011682018060405250810190620010a0919062002d6e565b905080600e600084815260200190815260200160002060006101000a81548173ffffffffffffffffffffffffffffffffffffffff021916908373ffffffffffffffffffffffffffffffffffffffff1602179055508d8d600f600085815260200190815260200160002091826200111892919062002de0565b508760106000848152602001908152602001600020819055508660116000848152602001908152602001600020819055508560136000848152602001908152602001600020819055508460146000848152602001908152602001600020819055508360156000848152602001908152602001600020819055506000600a60009054906101000a900473ffffffffffffffffffffffffffffffffffffffff1663e0921f8560e01b8e8e308b604051602401620011d7949392919062002f07565b604080517fffffffffffffffffffffffffffffffffffffffffffffffffffffffffffffffe08184030181529181526020820180517bffffffffffffffffffffffffffffffffffffffffffffffffffffffff167fffffffff00000000000000000000000000000000000000000000000000000000909416939093179092529051620012619062002653565b6200126e92919062002f7b565b604051809103906000f0801580156200128b573d6000803e3d6000fd5b5060008481526017602052604080822080547fffffffffffffffffffffffff00000000000000000000000000000000000000001673ffffffffffffffffffffffffffffffffffffffff85811691821790925591519394509092908516917f9de2be681a220396ec1518a4ecd6c853a760e34fb9174e9213d7aa5a8b12f37991a350909d9c50505050505050505050505050565b600073ffffffffffffffffffffffffffffffffffffffff821662001372576040517f89c62b64000000000000000000000000000000000000000000000000000000008152600060048201526024016200097f565b5073ffffffffffffffffffffffffffffffffffffffff1660009081526003602052604090205490565b620013a562001d82565b620013b1600062001dd7565b565b620013bd62001d82565b73ffffffffffffffffffffffffffffffffffffffff166000908152600c6020526040902080547fffffffffffffffffffffffffffffffffffffffffffffffffffffffffffffff00166001179055565b6060600180546200085f9062002bf0565b6200092e33838362001e4e565b6200143462001d82565b73ffffffffffffffffffffffffffffffffffffffff166000908152600c6020526040902080547fffffffffffffffffffffffffffffffffffffffffffffffffffffffffffffff00169055565b6200148d84848462000932565b62000a278484848462001f4d565b6060620014a88262001ad7565b506000620014c160408051602081019091526000815290565b90506000815111620014e3576040518060200160405280600081525062001512565b80620014ef8462002151565b6040516020016200150292919062002fac565b6040516020818303038152906040525b9392505050565b6000821162001585576040517f08c379a000000000000000000000000000000000000000000000000000000000815260206004820152601e60248201527f596f75206e65656420746f20696e76657374206d6f7265207468616e2030000060448201526064016200097f565b600081815260136020526040902054421015620015ff576040517f08c379a000000000000000000000000000000000000000000000000000000000815260206004820152601b60248201527f496e76657374696d656e74206973206e6f74206f70656e20796574000000000060448201526064016200097f565b60008181526014602052604090205442111562001679576040517f08c379a000000000000000000000000000000000000000000000000000000000815260206004820152601560248201527f496e76657374696d656e7420697320636c6f736564000000000000000000000060448201526064016200097f565b6000818152600e602052604090205473ffffffffffffffffffffffffffffffffffffffff168062001707576040517f08c379a000000000000000000000000000000000000000000000000000000000815260206004820152600e60248201527f46756e64206e6f7420666f756e6400000000000000000000000000000000000060448201526064016200097f565b6000828152601060205260408120546127109062001726908662002cca565b62001732919062002c8e565b9050600062001742828662002fdf565b600b546040517f23b872dd00000000000000000000000000000000000000000000000000000000815233600482015273ffffffffffffffffffffffffffffffffffffffff8681166024830152604482018490529293509116906323b872dd906064016020604051808303816000875af1158015620017c4573d6000803e3d6000fd5b505050506040513d601f19601f82011682018060405250810190620017ea919062002ce4565b50600b5473ffffffffffffffffffffffffffffffffffffffff166323b872dd33620018158762000e22565b6040517fffffffff0000000000000000000000000000000000000000000000000000000060e085901b16815273ffffffffffffffffffffffffffffffffffffffff928316600482015291166024820152604481018590526064016020604051808303816000875af11580156200188f573d6000803e3d6000fd5b505050506040513d601f19601f82011682018060405250810190620018b5919062002ce4565b5060008481526012602052604081208054839290620018d690849062002ff5565b9091555050600084815260176020526040908190205490517f40c10f190000000000000000000000000000000000000000000000000000000081523360048201526024810183905273ffffffffffffffffffffffffffffffffffffffff9091169081906340c10f1990604401600060405180830381600087803b1580156200195d57600080fd5b505af115801562001972573d6000803e3d6000fd5b505060405188815233925073ffffffffffffffffffffffffffffffffffffffff871691507f15bcca398c35efcf80f9148394b3ff1b358089610b2e18b315a3a18050a509429060200160405180910390a3505050505050565b600f6020526000908152604090208054620019e69062002bf0565b80601f016020809104026020016040519081016040528092919081815260200182805462001a149062002bf0565b801562001a655780601f1062001a395761010080835404028352916020019162001a65565b820191906000526020600020905b81548152906001019060200180831162001a4757829003601f168201915b505050505081565b62001a7762001d82565b73ffffffffffffffffffffffffffffffffffffffff811662001ac9576040517f1e4fbdf7000000000000000000000000000000000000000000000000000000008152600060048201526024016200097f565b62001ad48162001dd7565b50565b60008181526002602052604081205473ffffffffffffffffffffffffffffffffffffffff168062000848576040517f7e273289000000000000000000000000000000000000000000000000000000008152600481018490526024016200097f565b62000dd7838383600162002216565b60008281526002602052604081205473ffffffffffffffffffffffffffffffffffffffff9081169083161562001b845762001b84818486620023ea565b73ffffffffffffffffffffffffffffffffffffffff81161562001bfd5762001bb160008560008062002216565b73ffffffffffffffffffffffffffffffffffffffff8116600090815260036020526040902080547fffffffffffffffffffffffffffffffffffffffffffffffffffffffffffffffff0190555b73ffffffffffffffffffffffffffffffffffffffff85161562001c475773ffffffffffffffffffffffffffffffffffffffff85166000908152600360205260409020805460010190555b60008481526002602052604080822080547fffffffffffffffffffffffff00000000000000000000000000000000000000001673ffffffffffffffffffffffffffffffffffffffff89811691821790925591518793918516917fddf252ad1be2c89b69c2b068fc378daa952ba7f163c4a11628f55a4df523b3ef91a4949350505050565b73ffffffffffffffffffffffffffffffffffffffff821662001d1d576040517f64a0ae92000000000000000000000000000000000000000000000000000000008152600060048201526024016200097f565b600062001d2d8383600062001b47565b905073ffffffffffffffffffffffffffffffffffffffff81161562000dd7576040517f73c6ac6e000000000000000000000000000000000000000000000000000000008152600060048201526024016200097f565b60065473ffffffffffffffffffffffffffffffffffffffff163314620013b1576040517f118cdaa70000000000000000000000000000000000000000000000000000000081523360048201526024016200097f565b6006805473ffffffffffffffffffffffffffffffffffffffff8381167fffffffffffffffffffffffff0000000000000000000000000000000000000000831681179093556040519116919082907f8be0079c531659141344cd1fd0a4f28419497f9722a3daafe3b4186f6b6457e090600090a35050565b73ffffffffffffffffffffffffffffffffffffffff821662001eb5576040517f5b08ba1800000000000000000000000000000000000000000000000000000000815273ffffffffffffffffffffffffffffffffffffffff831660048201526024016200097f565b73ffffffffffffffffffffffffffffffffffffffff83811660008181526005602090815260408083209487168084529482529182902080547fffffffffffffffffffffffffffffffffffffffffffffffffffffffffffffff001686151590811790915591519182527f17307eab39ab6107e8899845ad3d59bd9653f200f220920489ca2b5937696c31910160405180910390a3505050565b73ffffffffffffffffffffffffffffffffffffffff83163b1562000a27576040517f150b7a0200000000000000000000000000000000000000000000000000000000815273ffffffffffffffffffffffffffffffffffffffff84169063150b7a029062001fc59033908890879087906004016200300b565b6020604051808303816000875af192505050801562002021575060408051601f3d9081017fffffffffffffffffffffffffffffffffffffffffffffffffffffffffffffffe01682019092526200201e9181019062003056565b60015b620020b5573d80801562002052576040519150601f19603f3d011682016040523d82523d6000602084013e62002057565b606091505b508051600003620020ad576040517f64a0ae9200000000000000000000000000000000000000000000000000000000815273ffffffffffffffffffffffffffffffffffffffff851660048201526024016200097f565b805181602001fd5b7fffffffff0000000000000000000000000000000000000000000000000000000081167f150b7a0200000000000000000000000000000000000000000000000000000000146200214a576040517f64a0ae9200000000000000000000000000000000000000000000000000000000815273ffffffffffffffffffffffffffffffffffffffff851660048201526024016200097f565b5050505050565b606060006200216083620024a0565b600101905060008167ffffffffffffffff8111156200218357620021836200286a565b6040519080825280601f01601f191660200182016040528015620021ae576020820181803683370190505b5090508181016020015b7fffffffffffffffffffffffffffffffffffffffffffffffffffffffffffffffff017f3031323334353637383961626364656600000000000000000000000000000000600a86061a8153600a8504945084620021b857509392505050565b808062002238575073ffffffffffffffffffffffffffffffffffffffff821615155b15620023955760006200224b8462001ad7565b905073ffffffffffffffffffffffffffffffffffffffff8316158015906200229f57508273ffffffffffffffffffffffffffffffffffffffff168173ffffffffffffffffffffffffffffffffffffffff1614155b8015620022df575073ffffffffffffffffffffffffffffffffffffffff80821660009081526005602090815260408083209387168352929052205460ff16155b1562002330576040517fa9fbf51f00000000000000000000000000000000000000000000000000000000815273ffffffffffffffffffffffffffffffffffffffff841660048201526024016200097f565b81156200239357838573ffffffffffffffffffffffffffffffffffffffff168273ffffffffffffffffffffffffffffffffffffffff167f8c5be1e5ebec7d5bd14f71427d1e84f3dd0314c0f7b2291e5b200ac8c7c3b92560405160405180910390a45b505b5050600090815260046020526040902080547fffffffffffffffffffffffff00000000000000000000000000000000000000001673ffffffffffffffffffffffffffffffffffffffff92909216919091179055565b620023f783838362002589565b62000dd75773ffffffffffffffffffffffffffffffffffffffff83166200244e576040517f7e273289000000000000000000000000000000000000000000000000000000008152600481018290526024016200097f565b6040517f177e802f00000000000000000000000000000000000000000000000000000000815273ffffffffffffffffffffffffffffffffffffffff83166004820152602481018290526044016200097f565b6000807a184f03e93ff9f4daa797ed6e38ed64bf6a1f0100000000000000008310620024ea577a184f03e93ff9f4daa797ed6e38ed64bf6a1f010000000000000000830492506040015b6d04ee2d6d415b85acef8100000000831062002517576d04ee2d6d415b85acef8100000000830492506020015b662386f26fc1000083106200253657662386f26fc10000830492506010015b6305f5e10083106200254f576305f5e100830492506008015b61271083106200256457612710830492506004015b6064831062002577576064830492506002015b600a8310620008485760010192915050565b600073ffffffffffffffffffffffffffffffffffffffff8316158015906200264b57508273ffffffffffffffffffffffffffffffffffffffff168473ffffffffffffffffffffffffffffffffffffffff16148062002619575073ffffffffffffffffffffffffffffffffffffffff80851660009081526005602090815260408083209387168352929052205460ff165b806200264b575060008281526004602052604090205473ffffffffffffffffffffffffffffffffffffffff8481169116145b949350505050565b6105e5806200307783390190565b7fffffffff000000000000000000000000000000000000000000000000000000008116811462001ad457600080fd5b600060208284031215620026a357600080fd5b8135620015128162002661565b600060208284031215620026c357600080fd5b5035919050565b60005b83811015620026e7578181015183820152602001620026cd565b50506000910152565b600081518084526200270a816020860160208601620026ca565b601f017fffffffffffffffffffffffffffffffffffffffffffffffffffffffffffffffe0169290920160200192915050565b602081526000620015126020830184620026f0565b73ffffffffffffffffffffffffffffffffffffffff8116811462001ad457600080fd5b8035620027818162002751565b919050565b600080604083850312156200279a57600080fd5b8235620027a78162002751565b946020939093013593505050565b600080600060608486031215620027cb57600080fd5b8335620027d88162002751565b92506020840135620027ea8162002751565b929592945050506040919091013590565b600080604083850312156200280f57600080fd5b50508035926020909101359150565b60008083601f8401126200283157600080fd5b50813567ffffffffffffffff8111156200284a57600080fd5b6020830191508360208285010111156200286357600080fd5b9250929050565b7f4e487b7100000000000000000000000000000000000000000000000000000000600052604160045260246000fd5b604051601f82017fffffffffffffffffffffffffffffffffffffffffffffffffffffffffffffffe016810167ffffffffffffffff81118282101715620028e357620028e36200286a565b604052919050565b600082601f830112620028fd57600080fd5b8135602067ffffffffffffffff8211156200291c576200291c6200286a565b8160051b6200292d82820162002899565b92835284810182019282810190878511156200294857600080fd5b83870192505b8483101562002974578235620029648162002751565b825291830191908301906200294e565b979650505050505050565b60008060008060008060008060008060006101208c8e031215620029a257600080fd5b67ffffffffffffffff808d351115620029ba57600080fd5b620029c98e8e358f016200281e565b909c509a5060208d0135811015620029e057600080fd5b620029f28e60208f01358f016200281e565b909a50985062002a0560408e0162002774565b97508060608e0135111562002a1957600080fd5b5062002a2c8d60608e01358e01620028eb565b9a9d999c50979a9699959895975050505060808401359360a08101359360c0820135935060e082013592506101009091013590565b60006020828403121562002a7457600080fd5b8135620015128162002751565b801515811462001ad457600080fd5b6000806040838503121562002aa457600080fd5b823562002ab18162002751565b9150602083013562002ac38162002a81565b809150509250929050565b6000806000806080858703121562002ae557600080fd5b843562002af28162002751565b935060208581013562002b058162002751565b935060408601359250606086013567ffffffffffffffff8082111562002b2a57600080fd5b818801915088601f83011262002b3f57600080fd5b81358181111562002b545762002b546200286a565b62002b86847fffffffffffffffffffffffffffffffffffffffffffffffffffffffffffffffe0601f8401160162002899565b9150808252898482850101111562002b9d57600080fd5b808484018584013760008482840101525080935050505092959194509250565b6000806040838503121562002bd157600080fd5b823562002bde8162002751565b9150602083013562002ac38162002751565b600181811c9082168062002c0557607f821691505b60208210810362002c3f577f4e487b7100000000000000000000000000000000000000000000000000000000600052602260045260246000fd5b50919050565b60006020828403121562002c5857600080fd5b5051919050565b7f4e487b7100000000000000000000000000000000000000000000000000000000600052601160045260246000fd5b60008262002cc5577f4e487b7100000000000000000000000000000000000000000000000000000000600052601260045260246000fd5b500490565b808202811582820484141762000848576200084862002c5f565b60006020828403121562002cf757600080fd5b8151620015128162002a81565b60007fffffffffffffffffffffffffffffffffffffffffffffffffffffffffffffffff820362002d385762002d3862002c5f565b5060010190565b7f4e487b7100000000000000000000000000000000000000000000000000000000600052603260045260246000fd5b60006020828403121562002d8157600080fd5b8151620015128162002751565b601f82111562000dd757600081815260208120601f850160051c8101602086101562002db75750805b601f850160051c820191505b8181101562002dd85782815560010162002dc3565b505050505050565b67ffffffffffffffff83111562002dfb5762002dfb6200286a565b62002e138362002e0c835462002bf0565b8362002d8e565b6000601f84116001811462002e68576000851562002e315750838201355b7fffffffffffffffffffffffffffffffffffffffffffffffffffffffffffffffff600387901b1c1916600186901b1783556200214a565b6000838152602090207fffffffffffffffffffffffffffffffffffffffffffffffffffffffffffffffe0861690835b8281101562002eb9578685013582556020948501946001909201910162002e97565b508682101562002ef5577fffffffffffffffffffffffffffffffffffffffffffffffffffffffffffffffff60f88860031b161c19848701351681555b505060018560011b0183555050505050565b6060815283606082015283856080830137600060808583010152600060807fffffffffffffffffffffffffffffffffffffffffffffffffffffffffffffffe0601f870116830101905073ffffffffffffffffffffffffffffffffffffffff8416602083015282604083015295945050505050565b73ffffffffffffffffffffffffffffffffffffffff831681526040602082015260006200264b6040830184620026f0565b6000835162002fc0818460208801620026ca565b83519083019062002fd6818360208801620026ca565b01949350505050565b8181038181111562000848576200084862002c5f565b8082018082111562000848576200084862002c5f565b600073ffffffffffffffffffffffffffffffffffffffff8087168352808616602084015250836040830152608060608301526200304c6080830184620026f0565b9695505050505050565b6000602082840312156200306957600080fd5b815162001512816200266156fe60a06040526040516105e53803806105e583398101604081905261002291610387565b61002c828261003e565b506001600160a01b031660805261047e565b610047826100fe565b6040516001600160a01b038316907f1cf3b03a6cf19fa2baba4df148e9dcabedea7f8a5c07840e207e5c089be95d3e90600090a28051156100f2576100ed826001600160a01b0316635c60da1b6040518163ffffffff1660e01b8152600401602060405180830381865afa1580156100c3573d6000803e3d6000fd5b505050506040513d601f19601f820116820180604052508101906100e79190610447565b82610211565b505050565b6100fa610288565b5050565b806001600160a01b03163b60000361013957604051631933b43b60e21b81526001600160a01b03821660048201526024015b60405180910390fd5b807fa3f0ad74e5423aebfd80d3ef4346578335a9a72aeaee59ff6cb3582b35133d5080546001600160a01b0319166001600160a01b0392831617905560408051635c60da1b60e01b81529051600092841691635c60da1b9160048083019260209291908290030181865afa1580156101b5573d6000803e3d6000fd5b505050506040513d601f19601f820116820180604052508101906101d99190610447565b9050806001600160a01b03163b6000036100fa57604051634c9c8ce360e01b81526001600160a01b0382166004820152602401610130565b6060600080846001600160a01b03168460405161022e9190610462565b600060405180830381855af49150503d8060008114610269576040519150601f19603f3d011682016040523d82523d6000602084013e61026e565b606091505b50909250905061027f8583836102a9565b95945050505050565b34156102a75760405163b398979f60e01b815260040160405180910390fd5b565b6060826102be576102b982610308565b610301565b81511580156102d557506001600160a01b0384163b155b156102fe57604051639996b31560e01b81526001600160a01b0385166004820152602401610130565b50805b9392505050565b8051156103185780518082602001fd5b604051630a12f52160e11b815260040160405180910390fd5b80516001600160a01b038116811461034857600080fd5b919050565b634e487b7160e01b600052604160045260246000fd5b60005b8381101561037e578181015183820152602001610366565b50506000910152565b6000806040838503121561039a57600080fd5b6103a383610331565b60208401519092506001600160401b03808211156103c057600080fd5b818501915085601f8301126103d457600080fd5b8151818111156103e6576103e661034d565b604051601f8201601f19908116603f0116810190838211818310171561040e5761040e61034d565b8160405282815288602084870101111561042757600080fd5b610438836020830160208801610363565b80955050505050509250929050565b60006020828403121561045957600080fd5b61030182610331565b60008251610474818460208701610363565b9190910192915050565b60805161014d61049860003960006024015261014d6000f3fe608060405261000c61000e565b005b61001e610019610020565b6100b6565b565b60007f000000000000000000000000000000000000000000000000000000000000000073ffffffffffffffffffffffffffffffffffffffff16635c60da1b6040518163ffffffff1660e01b8152600401602060405180830381865afa15801561008d573d6000803e3d6000fd5b505050506040513d601f19601f820116820180604052508101906100b191906100da565b905090565b3660008037600080366000845af43d6000803e8080156100d5573d6000f35b3d6000fd5b6000602082840312156100ec57600080fd5b815173ffffffffffffffffffffffffffffffffffffffff8116811461011057600080fd5b939250505056fea2646970667358221220cf90cc670001d483fb907738edb942779f8ce76289b5f638ed65fb3de4b2302664736f6c63430008140033a26469706673582212203280cf69463c029681d55f59dc9ca5a43ca6dbe0cbd0ed351c2b32d643926f2264736f6c63430008140033",
    "linkReferences": {}
  },
  "methodIdentifiers": {
    "_fundIdCounter()": "1ec3e6c4",
    "admFees(uint256)": "995c8472",
    "approve(address,uint256)": "095ea7b3",
    "balanceOf(address)": "70a08231",
    "closeInvestimentTimestamps(uint256)": "069af241",
    "createFund(string,string,address,address[],uint256,uint256,uint256,uint256,uint256)": "6c4f8442",
    "erc6551Implementation()": "b3dd12a2",
    "fundsAddresses(uint256)": "e7e1f1c7",
    "fundsAllowedTokens(uint256,uint256)": "6166cb93",
    "fundsNames(uint256)": "dae51d03",
    "fundsRegister()": "8d180195",
    "getApproved(uint256)": "081812fc",
    "initialAmounts(uint256)": "fb91fb42",
    "invest(uint256,uint256)": "d87aa643",
    "isApprovedForAll(address,address)": "e985e9c5",
    "name()": "06fdde03",
    "openInvestimentTimestamps(uint256)": "1c02225f",
    "openRedeemTimestamps(uint256)": "54d89c91",
    "owner()": "8da5cb5b",
    "ownerOf(uint256)": "6352211e",
    "perfFees(uint256)": "0d0a01cf",
    "quotaTokenImplementation()": "c2ae0e3e",
    "quotasAddresses(uint256)": "4835a6be",
    "redeemYield(uint256)": "258d3c33",
    "removeWhiteListedToken(address)": "b5541dd8",
    "renounceOwnership()": "715018a6",
    "safeTransferFrom(address,address,uint256)": "42842e0e",
    "safeTransferFrom(address,address,uint256,bytes)": "b88d4fde",
    "setApprovalForAll(address,bool)": "a22cb465",
    "setWhiteListedToken(address)": "822dde8d",
    "stablecoin()": "e9cbd822",
    "supportsInterface(bytes4)": "01ffc9a7",
    "swapRouter()": "c31c9c07",
    "symbol()": "95d89b41",
    "tokenURI(uint256)": "c87b56dd",
    "transferFrom(address,address,uint256)": "23b872dd",
    "transferOwnership(address)": "f2fde38b",
    "whiteListedTokens(address)": "d3c26383"
  },
  "id": 60
}