{
  "abi": [
    {
      "inputs": [
        {
          "internalType": "address",
          "name": "_fundCreator",
          "type": "address"
        },
        {
          "internalType": "address",
          "name": "_erc6551Implementation",
          "type": "address"
        },
        {
          "internalType": "address",
          "name": "_erc20Implementation",
          "type": "address"
        },
        {
          "internalType": "address",
          "name": "_stablecoin",
          "type": "address"
        }
      ],
      "stateMutability": "nonpayable",
      "type": "constructor"
    },
    {
      "anonymous": false,
      "inputs": [
        {
          "indexed": true,
          "internalType": "address",
          "name": "owner",
          "type": "address"
        },
        {
          "indexed": true,
          "internalType": "address",
          "name": "approved",
          "type": "address"
        },
        {
          "indexed": true,
          "internalType": "uint256",
          "name": "tokenId",
          "type": "uint256"
        }
      ],
      "name": "Approval",
      "type": "event"
    },
    {
      "anonymous": false,
      "inputs": [
        {
          "indexed": true,
          "internalType": "address",
          "name": "owner",
          "type": "address"
        },
        {
          "indexed": true,
          "internalType": "address",
          "name": "operator",
          "type": "address"
        },
        {
          "indexed": false,
          "internalType": "bool",
          "name": "approved",
          "type": "bool"
        }
      ],
      "name": "ApprovalForAll",
      "type": "event"
    },
    {
      "anonymous": false,
      "inputs": [
        {
          "indexed": true,
          "internalType": "address",
          "name": "fundAddress",
          "type": "address"
        },
        {
          "indexed": true,
          "internalType": "address",
          "name": "quotaTokenAddress",
          "type": "address"
        }
      ],
      "name": "FundCreated",
      "type": "event"
    },
    {
      "anonymous": false,
      "inputs": [
        {
          "indexed": true,
          "internalType": "address",
          "name": "fundAddress",
          "type": "address"
        },
        {
          "indexed": true,
          "internalType": "address",
          "name": "investor",
          "type": "address"
        },
        {
          "indexed": false,
          "internalType": "uint256",
          "name": "amount",
          "type": "uint256"
        }
      ],
      "name": "InvestimentMade",
      "type": "event"
    },
    {
      "anonymous": false,
      "inputs": [
        {
          "indexed": true,
          "internalType": "address",
          "name": "previousOwner",
          "type": "address"
        },
        {
          "indexed": true,
          "internalType": "address",
          "name": "newOwner",
          "type": "address"
        }
      ],
      "name": "OwnershipTransferred",
      "type": "event"
    },
    {
      "anonymous": false,
      "inputs": [
        {
          "indexed": true,
          "internalType": "address",
          "name": "fundAddress",
          "type": "address"
        },
        {
          "indexed": true,
          "internalType": "address",
          "name": "investor",
          "type": "address"
        },
        {
          "indexed": false,
          "internalType": "uint256",
          "name": "amount",
          "type": "uint256"
        }
      ],
      "name": "RedeemMade",
      "type": "event"
    },
    {
      "anonymous": false,
      "inputs": [
        {
          "indexed": true,
          "internalType": "address",
          "name": "from",
          "type": "address"
        },
        {
          "indexed": true,
          "internalType": "address",
          "name": "to",
          "type": "address"
        },
        {
          "indexed": true,
          "internalType": "uint256",
          "name": "tokenId",
          "type": "uint256"
        }
      ],
      "name": "Transfer",
      "type": "event"
    },
    {
      "inputs": [],
      "name": "_fundIdCounter",
      "outputs": [
        {
          "internalType": "uint256",
          "name": "_value",
          "type": "uint256"
        }
      ],
      "stateMutability": "view",
      "type": "function"
    },
    {
      "inputs": [
        {
          "internalType": "uint256",
          "name": "",
          "type": "uint256"
        }
      ],
      "name": "admFees",
      "outputs": [
        {
          "internalType": "uint256",
          "name": "",
          "type": "uint256"
        }
      ],
      "stateMutability": "view",
      "type": "function"
    },
    {
      "inputs": [
        {
          "internalType": "address",
          "name": "to",
          "type": "address"
        },
        {
          "internalType": "uint256",
          "name": "tokenId",
          "type": "uint256"
        }
      ],
      "name": "approve",
      "outputs": [],
      "stateMutability": "nonpayable",
      "type": "function"
    },
    {
      "inputs": [
        {
          "internalType": "address",
          "name": "owner",
          "type": "address"
        }
      ],
      "name": "balanceOf",
      "outputs": [
        {
          "internalType": "uint256",
          "name": "",
          "type": "uint256"
        }
      ],
      "stateMutability": "view",
      "type": "function"
    },
    {
      "inputs": [
        {
          "internalType": "uint256",
          "name": "",
          "type": "uint256"
        }
      ],
      "name": "closeInvestimentTimestamps",
      "outputs": [
        {
          "internalType": "uint256",
          "name": "",
          "type": "uint256"
        }
      ],
      "stateMutability": "view",
      "type": "function"
    },
    {
      "inputs": [
        {
          "internalType": "string",
          "name": "_symbol",
          "type": "string"
        },
        {
          "internalType": "address",
          "name": "_to",
          "type": "address"
        },
        {
          "internalType": "address[]",
          "name": "_allowedTokens",
          "type": "address[]"
        },
        {
          "internalType": "uint256",
          "name": "_admFee",
          "type": "uint256"
        },
        {
          "internalType": "uint256",
          "name": "_perfFee",
          "type": "uint256"
        },
        {
          "internalType": "uint256",
          "name": "_openInvestiment",
          "type": "uint256"
        },
        {
          "internalType": "uint256",
          "name": "_closeInvestiments",
          "type": "uint256"
        },
        {
          "internalType": "uint256",
          "name": "_openRedeem",
          "type": "uint256"
        }
      ],
      "name": "createFund",
      "outputs": [
        {
          "internalType": "address",
          "name": "",
          "type": "address"
        }
      ],
      "stateMutability": "nonpayable",
      "type": "function"
    },
    {
      "inputs": [],
      "name": "erc6551Implementation",
      "outputs": [
        {
          "internalType": "address",
          "name": "",
          "type": "address"
        }
      ],
      "stateMutability": "view",
      "type": "function"
    },
    {
      "inputs": [],
      "name": "fundCreator",
      "outputs": [
        {
          "internalType": "contract IERC6551Registry",
          "name": "",
          "type": "address"
        }
      ],
      "stateMutability": "view",
      "type": "function"
    },
    {
      "inputs": [
        {
          "internalType": "uint256",
          "name": "",
          "type": "uint256"
        }
      ],
      "name": "fundsAddresses",
      "outputs": [
        {
          "internalType": "address",
          "name": "",
          "type": "address"
        }
      ],
      "stateMutability": "view",
      "type": "function"
    },
    {
      "inputs": [
        {
          "internalType": "uint256",
          "name": "",
          "type": "uint256"
        },
        {
          "internalType": "uint256",
          "name": "",
          "type": "uint256"
        }
      ],
      "name": "fundsAllowedTokens",
      "outputs": [
        {
          "internalType": "address",
          "name": "",
          "type": "address"
        }
      ],
      "stateMutability": "view",
      "type": "function"
    },
    {
      "inputs": [
        {
          "internalType": "uint256",
          "name": "tokenId",
          "type": "uint256"
        }
      ],
      "name": "getApproved",
      "outputs": [
        {
          "internalType": "address",
          "name": "",
          "type": "address"
        }
      ],
      "stateMutability": "view",
      "type": "function"
    },
    {
      "inputs": [
        {
          "internalType": "uint256",
          "name": "",
          "type": "uint256"
        }
      ],
      "name": "initialAmounts",
      "outputs": [
        {
          "internalType": "uint256",
          "name": "",
          "type": "uint256"
        }
      ],
      "stateMutability": "view",
      "type": "function"
    },
    {
      "inputs": [
        {
          "internalType": "uint256",
          "name": "_amount",
          "type": "uint256"
        },
        {
          "internalType": "uint256",
          "name": "fundId",
          "type": "uint256"
        }
      ],
      "name": "invest",
      "outputs": [],
      "stateMutability": "nonpayable",
      "type": "function"
    },
    {
      "inputs": [
        {
          "internalType": "address",
          "name": "owner",
          "type": "address"
        },
        {
          "internalType": "address",
          "name": "operator",
          "type": "address"
        }
      ],
      "name": "isApprovedForAll",
      "outputs": [
        {
          "internalType": "bool",
          "name": "",
          "type": "bool"
        }
      ],
      "stateMutability": "view",
      "type": "function"
    },
    {
      "inputs": [],
      "name": "name",
      "outputs": [
        {
          "internalType": "string",
          "name": "",
          "type": "string"
        }
      ],
      "stateMutability": "view",
      "type": "function"
    },
    {
      "inputs": [
        {
          "internalType": "uint256",
          "name": "",
          "type": "uint256"
        }
      ],
      "name": "openInvestimentTimestamps",
      "outputs": [
        {
          "internalType": "uint256",
          "name": "",
          "type": "uint256"
        }
      ],
      "stateMutability": "view",
      "type": "function"
    },
    {
      "inputs": [
        {
          "internalType": "uint256",
          "name": "",
          "type": "uint256"
        }
      ],
      "name": "openRedeemTimestamps",
      "outputs": [
        {
          "internalType": "uint256",
          "name": "",
          "type": "uint256"
        }
      ],
      "stateMutability": "view",
      "type": "function"
    },
    {
      "inputs": [],
      "name": "owner",
      "outputs": [
        {
          "internalType": "address",
          "name": "",
          "type": "address"
        }
      ],
      "stateMutability": "view",
      "type": "function"
    },
    {
      "inputs": [
        {
          "internalType": "uint256",
          "name": "tokenId",
          "type": "uint256"
        }
      ],
      "name": "ownerOf",
      "outputs": [
        {
          "internalType": "address",
          "name": "",
          "type": "address"
        }
      ],
      "stateMutability": "view",
      "type": "function"
    },
    {
      "inputs": [
        {
          "internalType": "uint256",
          "name": "",
          "type": "uint256"
        }
      ],
      "name": "perfFees",
      "outputs": [
        {
          "internalType": "uint256",
          "name": "",
          "type": "uint256"
        }
      ],
      "stateMutability": "view",
      "type": "function"
    },
    {
      "inputs": [],
      "name": "quotaTokenImplementation",
      "outputs": [
        {
          "internalType": "address",
          "name": "",
          "type": "address"
        }
      ],
      "stateMutability": "view",
      "type": "function"
    },
    {
      "inputs": [
        {
          "internalType": "uint256",
          "name": "",
          "type": "uint256"
        }
      ],
      "name": "quotasAddresses",
      "outputs": [
        {
          "internalType": "address",
          "name": "",
          "type": "address"
        }
      ],
      "stateMutability": "view",
      "type": "function"
    },
    {
      "inputs": [
        {
          "internalType": "uint256",
          "name": "fundId",
          "type": "uint256"
        }
      ],
      "name": "redeemYield",
      "outputs": [],
      "stateMutability": "nonpayable",
      "type": "function"
    },
    {
      "inputs": [],
      "name": "renounceOwnership",
      "outputs": [],
      "stateMutability": "nonpayable",
      "type": "function"
    },
    {
      "inputs": [
        {
          "internalType": "address",
          "name": "from",
          "type": "address"
        },
        {
          "internalType": "address",
          "name": "to",
          "type": "address"
        },
        {
          "internalType": "uint256",
          "name": "tokenId",
          "type": "uint256"
        }
      ],
      "name": "safeTransferFrom",
      "outputs": [],
      "stateMutability": "nonpayable",
      "type": "function"
    },
    {
      "inputs": [
        {
          "internalType": "address",
          "name": "from",
          "type": "address"
        },
        {
          "internalType": "address",
          "name": "to",
          "type": "address"
        },
        {
          "internalType": "uint256",
          "name": "tokenId",
          "type": "uint256"
        },
        {
          "internalType": "bytes",
          "name": "data",
          "type": "bytes"
        }
      ],
      "name": "safeTransferFrom",
      "outputs": [],
      "stateMutability": "nonpayable",
      "type": "function"
    },
    {
      "inputs": [
        {
          "internalType": "address",
          "name": "operator",
          "type": "address"
        },
        {
          "internalType": "bool",
          "name": "approved",
          "type": "bool"
        }
      ],
      "name": "setApprovalForAll",
      "outputs": [],
      "stateMutability": "nonpayable",
      "type": "function"
    },
    {
      "inputs": [],
      "name": "stablecoin",
      "outputs": [
        {
          "internalType": "contract IERC20",
          "name": "",
          "type": "address"
        }
      ],
      "stateMutability": "view",
      "type": "function"
    },
    {
      "inputs": [
        {
          "internalType": "bytes4",
          "name": "interfaceId",
          "type": "bytes4"
        }
      ],
      "name": "supportsInterface",
      "outputs": [
        {
          "internalType": "bool",
          "name": "",
          "type": "bool"
        }
      ],
      "stateMutability": "view",
      "type": "function"
    },
    {
      "inputs": [],
      "name": "symbol",
      "outputs": [
        {
          "internalType": "string",
          "name": "",
          "type": "string"
        }
      ],
      "stateMutability": "view",
      "type": "function"
    },
    {
      "inputs": [
        {
          "internalType": "uint256",
          "name": "tokenId",
          "type": "uint256"
        }
      ],
      "name": "tokenURI",
      "outputs": [
        {
          "internalType": "string",
          "name": "",
          "type": "string"
        }
      ],
      "stateMutability": "view",
      "type": "function"
    },
    {
      "inputs": [
        {
          "internalType": "address",
          "name": "from",
          "type": "address"
        },
        {
          "internalType": "address",
          "name": "to",
          "type": "address"
        },
        {
          "internalType": "uint256",
          "name": "tokenId",
          "type": "uint256"
        }
      ],
      "name": "transferFrom",
      "outputs": [],
      "stateMutability": "nonpayable",
      "type": "function"
    },
    {
      "inputs": [
        {
          "internalType": "address",
          "name": "newOwner",
          "type": "address"
        }
      ],
      "name": "transferOwnership",
      "outputs": [],
      "stateMutability": "nonpayable",
      "type": "function"
    },
    {
      "inputs": [
        {
          "internalType": "address",
          "name": "",
          "type": "address"
        }
      ],
      "name": "whiteListedTokens",
      "outputs": [
        {
          "internalType": "bool",
          "name": "",
          "type": "bool"
        }
      ],
      "stateMutability": "view",
      "type": "function"
    }
  ],
  "bytecode": {
    "object": "0x60806040523480156200001157600080fd5b5060405162003c3538038062003c35833981016040819052620000349162000178565b6040518060400160405280600c81526020016b5768616c6546696e616e636560a01b8152506040518060400160405280600381526020016257464960e81b81525081600090816200008691906200027a565b5060016200009582826200027a565b505050620000b2620000ac6200010560201b60201c565b62000109565b600880546001600160a01b039586166001600160a01b0319918216179091556009805494861694821694909417909355600b8054918516918416919091179055600a805491909316911617905562000346565b3390565b600680546001600160a01b038381166001600160a01b0319831681179093556040519116919082907f8be0079c531659141344cd1fd0a4f28419497f9722a3daafe3b4186f6b6457e090600090a35050565b80516001600160a01b03811681146200017357600080fd5b919050565b600080600080608085870312156200018f57600080fd5b6200019a856200015b565b9350620001aa602086016200015b565b9250620001ba604086016200015b565b9150620001ca606086016200015b565b905092959194509250565b634e487b7160e01b600052604160045260246000fd5b600181811c908216806200020057607f821691505b6020821081036200022157634e487b7160e01b600052602260045260246000fd5b50919050565b601f8211156200027557600081815260208120601f850160051c81016020861015620002505750805b601f850160051c820191505b8181101562000271578281556001016200025c565b5050505b505050565b81516001600160401b03811115620002965762000296620001d5565b620002ae81620002a78454620001eb565b8462000227565b602080601f831160018114620002e65760008415620002cd5750858301515b600019600386901b1c1916600185901b17855562000271565b600085815260208120601f198616915b828110156200031757888601518255948401946001909101908401620002f6565b5085821015620003365787850151600019600388901b60f8161c191681555b5050505050600190811b01905550565b6138df80620003566000396000f3fe60806040523480156200001157600080fd5b5060043610620002535760003560e01c8063715018a61162000142578063c2ae0e3e11620000cc578063e7e1f1c71162000097578063e9cbd822116200007a578063e9cbd8221462000633578063f2fde38b1462000654578063fb91fb42146200066b57600080fd5b8063e7e1f1c714620005ae578063e985e9c514620005e757600080fd5b8063c2ae0e3e1462000539578063c87b56dd146200055a578063d3c263831462000571578063d87aa643146200059757600080fd5b8063a22cb465116200010d578063a22cb46514620004c9578063b1ef04e114620004e0578063b3dd12a21462000501578063b88d4fde146200052257600080fd5b8063715018a614620004735780638da5cb5b146200047d57806395d89b41146200049c578063995c847214620004a657600080fd5b806323b872dd11620001e157806354d89c9111620001ac5780636166cb93116200018f5780636166cb93146200042e5780636352211e146200044557806370a08231146200045c57600080fd5b806354d89c9114620003f45780635ecd5be7146200041757600080fd5b806323b872dd1462000376578063258d3c33146200038d57806342842e0e14620003a45780634835a6be14620003bb57600080fd5b8063095ea7b31162000222578063095ea7b3146200030c5780630d0a01cf14620003255780631c02225f14620003485780631ec3e6c4146200036b57600080fd5b806301ffc9a71462000258578063069af241146200028457806306fdde0314620002b6578063081812fc14620002cf575b600080fd5b6200026f62000269366004620026eb565b6200068e565b60405190151581526020015b60405180910390f35b620002a7620002953660046200270b565b60126020526000908152604090205481565b6040519081526020016200027b565b620002c062000775565b6040516200027b919062002797565b620002e6620002e03660046200270b565b6200080f565b60405173ffffffffffffffffffffffffffffffffffffffff90911681526020016200027b565b620003236200031d366004620027e1565b62000845565b005b620002a7620003363660046200270b565b600f6020526000908152604090205481565b620002a7620003593660046200270b565b60116020526000908152604090205481565b600754620002a79081565b620003236200038736600462002810565b620009d5565b620003236200039e3660046200270b565b62000a62565b62000323620003b536600462002810565b62000dd5565b620002e6620003cc3660046200270b565b60156020526000908152604090205473ffffffffffffffffffffffffffffffffffffffff1681565b620002a7620004053660046200270b565b60136020526000908152604090205481565b620002e6620004283660046200296b565b62000df2565b620002e66200043f36600462002a4a565b62001280565b620002e6620004563660046200270b565b620012c6565b620002a76200046d36600462002a6d565b6200133a565b62000323620013f0565b60065473ffffffffffffffffffffffffffffffffffffffff16620002e6565b620002c062001408565b620002a7620004b73660046200270b565b600e6020526000908152604090205481565b62000323620004da36600462002a9c565b62001419565b600854620002e69073ffffffffffffffffffffffffffffffffffffffff1681565b600954620002e69073ffffffffffffffffffffffffffffffffffffffff1681565b620003236200053336600462002ada565b6200142a565b600a54620002e69073ffffffffffffffffffffffffffffffffffffffff1681565b620002c06200056b3660046200270b565b620014be565b6200026f6200058236600462002a6d565b600c6020526000908152604090205460ff1681565b62000323620005a836600462002a4a565b6200153b565b620002e6620005bf3660046200270b565b600d6020526000908152604090205473ffffffffffffffffffffffffffffffffffffffff1681565b6200026f620005f836600462002bc9565b73ffffffffffffffffffffffffffffffffffffffff918216600090815260056020908152604080832093909416825291909152205460ff1690565b600b54620002e69073ffffffffffffffffffffffffffffffffffffffff1681565b620003236200066536600462002a6d565b62001985565b620002a76200067c3660046200270b565b60106020526000908152604090205481565b60007fffffffff0000000000000000000000000000000000000000000000000000000082167f80ac58cd0000000000000000000000000000000000000000000000000000000014806200072257507fffffffff0000000000000000000000000000000000000000000000000000000082167f5b5e139f00000000000000000000000000000000000000000000000000000000145b806200076f57507f01ffc9a7000000000000000000000000000000000000000000000000000000007fffffffff000000000000000000000000000000000000000000000000000000008316145b92915050565b606060008054620007869062002bfc565b80601f0160208091040260200160405190810160405280929190818152602001828054620007b49062002bfc565b8015620008055780601f10620007d95761010080835404028352916020019162000805565b820191906000526020600020905b815481529060010190602001808311620007e757829003601f168201915b5050505050905090565b60006200081c8262001a28565b5060009081526004602052604090205473ffffffffffffffffffffffffffffffffffffffff1690565b60006200085282620012c6565b90508073ffffffffffffffffffffffffffffffffffffffff168373ffffffffffffffffffffffffffffffffffffffff1603620008fb5760405162461bcd60e51b815260206004820152602160248201527f4552433732313a20617070726f76616c20746f2063757272656e74206f776e6560448201527f720000000000000000000000000000000000000000000000000000000000000060648201526084015b60405180910390fd5b3373ffffffffffffffffffffffffffffffffffffffff8216148062000950575073ffffffffffffffffffffffffffffffffffffffff8116600090815260056020908152604080832033845290915290205460ff165b620009c45760405162461bcd60e51b815260206004820152603d60248201527f4552433732313a20617070726f76652063616c6c6572206973206e6f7420746f60448201527f6b656e206f776e6572206f7220617070726f76656420666f7220616c6c0000006064820152608401620008f2565b620009d0838362001a9b565b505050565b620009e1338262001b3d565b62000a555760405162461bcd60e51b815260206004820152602d60248201527f4552433732313a2063616c6c6572206973206e6f7420746f6b656e206f776e6560448201527f72206f7220617070726f766564000000000000000000000000000000000000006064820152608401620008f2565b620009d083838362001c03565b60008181526013602052604090205442101562000ac25760405162461bcd60e51b815260206004820152601660248201527f52656465656d206973206e6f74206f70656e20796574000000000000000000006044820152606401620008f2565b6000818152601560205260408082205490517f70a0823100000000000000000000000000000000000000000000000000000000815233600482015273ffffffffffffffffffffffffffffffffffffffff909116919082906370a0823190602401602060405180830381865afa15801562000b40573d6000803e3d6000fd5b505050506040513d601f19601f8201168201806040525081019062000b66919062002c51565b600b546000858152600d60205260408082205490517f70a0823100000000000000000000000000000000000000000000000000000000815273ffffffffffffffffffffffffffffffffffffffff918216600482015293945090929116906370a0823190602401602060405180830381865afa15801562000bea573d6000803e3d6000fd5b505050506040513d601f19601f8201168201806040525081019062000c10919062002c51565b60008581526010602052604090205462000c2b908462002c9a565b62000c37919062002cd6565b600b546000868152600d6020526040908190205490517f23b872dd00000000000000000000000000000000000000000000000000000000815273ffffffffffffffffffffffffffffffffffffffff91821660048201523360248201526044810184905292935016906323b872dd906064016020604051808303816000875af115801562000cc8573d6000803e3d6000fd5b505050506040513d601f19601f8201168201806040525081019062000cee919062002cf0565b506040517f42966c680000000000000000000000000000000000000000000000000000000081526004810183905273ffffffffffffffffffffffffffffffffffffffff8416906342966c6890602401600060405180830381600087803b15801562000d5857600080fd5b505af115801562000d6d573d6000803e3d6000fd5b5050506000858152600d602090815260409182902054915184815233935073ffffffffffffffffffffffffffffffffffffffff909216917f6c9b4e508889a1ad47d9f443fa4a922856051bb1cc015e2048740e560e0f46f1910160405180910390a350505050565b620009d0838383604051806020016040528060008152506200142a565b60008062000dff60075490565b905062000e10600780546001019055565b62000e1c898262001eba565b60005b885181101562000f8457600c60008a838151811062000e425762000e4262002d10565b60209081029190910181015173ffffffffffffffffffffffffffffffffffffffff1682528101919091526040016000205460ff1662000eea5760405162461bcd60e51b815260206004820152603760248201527f596f7520747269656420746f2063726561746520612066756e6420776974682060448201527f61206e6f6e2077686974656c697374656420746f6b656e0000000000000000006064820152608401620008f2565b600082815260146020526040902089518a908390811062000f0f5762000f0f62002d10565b60209081029190910181015182546001810184556000938452919092200180547fffffffffffffffffffffffff00000000000000000000000000000000000000001673ffffffffffffffffffffffffffffffffffffffff9092169190911790558062000f7b8162002d3f565b91505062000e1f565b506008546009546040517fda7323b300000000000000000000000000000000000000000000000000000000815273ffffffffffffffffffffffffffffffffffffffff91821660048201524660248201523060448201526064810184905260006084820181905260c060a483015260c4820181905292919091169063da7323b39060e4016020604051808303816000875af115801562001027573d6000803e3d6000fd5b505050506040513d601f19601f820116820180604052508101906200104d919062002d7a565b905080600d600084815260200190815260200160002060006101000a81548173ffffffffffffffffffffffffffffffffffffffff021916908373ffffffffffffffffffffffffffffffffffffffff16021790555087600e60008481526020019081526020016000208190555086600f6000848152602001908152602001600020819055508560116000848152602001908152602001600020819055508460126000848152602001908152602001600020819055508360136000848152602001908152602001600020819055506000600a60009054906101000a900473ffffffffffffffffffffffffffffffffffffffff1663e0921f8560e01b8e8e308b6040516024016200115f949392919062002d9a565b604080517fffffffffffffffffffffffffffffffffffffffffffffffffffffffffffffffe08184030181529181526020820180517bffffffffffffffffffffffffffffffffffffffffffffffffffffffff167fffffffff00000000000000000000000000000000000000000000000000000000909416939093179092529051620011e990620026ae565b620011f692919062002e0e565b604051809103906000f08015801562001213573d6000803e3d6000fd5b5090508073ffffffffffffffffffffffffffffffffffffffff168273ffffffffffffffffffffffffffffffffffffffff167f9de2be681a220396ec1518a4ecd6c853a760e34fb9174e9213d7aa5a8b12f37960405160405180910390a39c9b505050505050505050505050565b601460205281600052604060002081815481106200129d57600080fd5b60009182526020909120015473ffffffffffffffffffffffffffffffffffffffff169150829050565b60008181526002602052604081205473ffffffffffffffffffffffffffffffffffffffff16806200076f5760405162461bcd60e51b815260206004820152601860248201527f4552433732313a20696e76616c696420746f6b656e20494400000000000000006044820152606401620008f2565b600073ffffffffffffffffffffffffffffffffffffffff8216620013c75760405162461bcd60e51b815260206004820152602960248201527f4552433732313a2061646472657373207a65726f206973206e6f74206120766160448201527f6c6964206f776e657200000000000000000000000000000000000000000000006064820152608401620008f2565b5073ffffffffffffffffffffffffffffffffffffffff1660009081526003602052604090205490565b620013fa62002097565b62001406600062002100565b565b606060018054620007869062002bfc565b6200142633838362002177565b5050565b62001436338362001b3d565b620014aa5760405162461bcd60e51b815260206004820152602d60248201527f4552433732313a2063616c6c6572206973206e6f7420746f6b656e206f776e6560448201527f72206f7220617070726f766564000000000000000000000000000000000000006064820152608401620008f2565b620014b8848484846200228c565b50505050565b6060620014cb8262001a28565b6000620014e360408051602081019091526000815290565b9050600081511162001505576040518060200160405280600081525062001534565b8062001511846200231b565b6040516020016200152492919062002e3f565b6040516020818303038152906040525b9392505050565b600082116200158d5760405162461bcd60e51b815260206004820152601e60248201527f596f75206e65656420746f20696e76657374206d6f7265207468616e203000006044820152606401620008f2565b600081815260116020526040902054421015620015ed5760405162461bcd60e51b815260206004820152601b60248201527f496e76657374696d656e74206973206e6f74206f70656e2079657400000000006044820152606401620008f2565b6000818152601260205260409020544211156200164d5760405162461bcd60e51b815260206004820152601560248201527f496e76657374696d656e7420697320636c6f73656400000000000000000000006044820152606401620008f2565b6000818152600d602052604090205473ffffffffffffffffffffffffffffffffffffffff1680620016c15760405162461bcd60e51b815260206004820152600e60248201527f46756e64206e6f7420666f756e640000000000000000000000000000000000006044820152606401620008f2565b6000828152600e602052604081205461271090620016e0908662002cd6565b620016ec919062002c9a565b90506000620016fc828662002e72565b600b546040517f23b872dd00000000000000000000000000000000000000000000000000000000815233600482015273ffffffffffffffffffffffffffffffffffffffff8681166024830152604482018490529293509116906323b872dd906064016020604051808303816000875af11580156200177e573d6000803e3d6000fd5b505050506040513d601f19601f82011682018060405250810190620017a4919062002cf0565b50600b5473ffffffffffffffffffffffffffffffffffffffff166323b872dd33620017cf87620012c6565b6040517fffffffff0000000000000000000000000000000000000000000000000000000060e085901b16815273ffffffffffffffffffffffffffffffffffffffff928316600482015291166024820152604481018590526064016020604051808303816000875af115801562001849573d6000803e3d6000fd5b505050506040513d601f19601f820116820180604052508101906200186f919062002cf0565b50600084815260106020526040812080548392906200189090849062002e88565b9091555050600084815260156020526040908190205490517f40c10f190000000000000000000000000000000000000000000000000000000081523360048201526024810183905273ffffffffffffffffffffffffffffffffffffffff9091169081906340c10f1990604401600060405180830381600087803b1580156200191757600080fd5b505af11580156200192c573d6000803e3d6000fd5b505060405188815233925073ffffffffffffffffffffffffffffffffffffffff871691507f15bcca398c35efcf80f9148394b3ff1b358089610b2e18b315a3a18050a509429060200160405180910390a3505050505050565b6200198f62002097565b73ffffffffffffffffffffffffffffffffffffffff811662001a1a5760405162461bcd60e51b815260206004820152602660248201527f4f776e61626c653a206e6577206f776e657220697320746865207a65726f206160448201527f64647265737300000000000000000000000000000000000000000000000000006064820152608401620008f2565b62001a258162002100565b50565b60008181526002602052604090205473ffffffffffffffffffffffffffffffffffffffff1662001a255760405162461bcd60e51b815260206004820152601860248201527f4552433732313a20696e76616c696420746f6b656e20494400000000000000006044820152606401620008f2565b600081815260046020526040902080547fffffffffffffffffffffffff00000000000000000000000000000000000000001673ffffffffffffffffffffffffffffffffffffffff8416908117909155819062001af782620012c6565b73ffffffffffffffffffffffffffffffffffffffff167f8c5be1e5ebec7d5bd14f71427d1e84f3dd0314c0f7b2291e5b200ac8c7c3b92560405160405180910390a45050565b60008062001b4b83620012c6565b90508073ffffffffffffffffffffffffffffffffffffffff168473ffffffffffffffffffffffffffffffffffffffff16148062001bba575073ffffffffffffffffffffffffffffffffffffffff80821660009081526005602090815260408083209388168352929052205460ff165b8062001bfb57508373ffffffffffffffffffffffffffffffffffffffff1662001be3846200080f565b73ffffffffffffffffffffffffffffffffffffffff16145b949350505050565b8273ffffffffffffffffffffffffffffffffffffffff1662001c2582620012c6565b73ffffffffffffffffffffffffffffffffffffffff161462001cb05760405162461bcd60e51b815260206004820152602560248201527f4552433732313a207472616e736665722066726f6d20696e636f72726563742060448201527f6f776e65720000000000000000000000000000000000000000000000000000006064820152608401620008f2565b73ffffffffffffffffffffffffffffffffffffffff821662001d3a5760405162461bcd60e51b8152602060048201526024808201527f4552433732313a207472616e7366657220746f20746865207a65726f2061646460448201527f72657373000000000000000000000000000000000000000000000000000000006064820152608401620008f2565b8273ffffffffffffffffffffffffffffffffffffffff1662001d5c82620012c6565b73ffffffffffffffffffffffffffffffffffffffff161462001de75760405162461bcd60e51b815260206004820152602560248201527f4552433732313a207472616e736665722066726f6d20696e636f72726563742060448201527f6f776e65720000000000000000000000000000000000000000000000000000006064820152608401620008f2565b600081815260046020908152604080832080547fffffffffffffffffffffffff000000000000000000000000000000000000000090811690915573ffffffffffffffffffffffffffffffffffffffff8781168086526003855283862080547fffffffffffffffffffffffffffffffffffffffffffffffffffffffffffffffff01905590871680865283862080546001019055868652600290945282852080549092168417909155905184937fddf252ad1be2c89b69c2b068fc378daa952ba7f163c4a11628f55a4df523b3ef91a4505050565b73ffffffffffffffffffffffffffffffffffffffff821662001f1f5760405162461bcd60e51b815260206004820181905260248201527f4552433732313a206d696e7420746f20746865207a65726f20616464726573736044820152606401620008f2565b60008181526002602052604090205473ffffffffffffffffffffffffffffffffffffffff161562001f935760405162461bcd60e51b815260206004820152601c60248201527f4552433732313a20746f6b656e20616c7265616479206d696e746564000000006044820152606401620008f2565b60008181526002602052604090205473ffffffffffffffffffffffffffffffffffffffff1615620020075760405162461bcd60e51b815260206004820152601c60248201527f4552433732313a20746f6b656e20616c7265616479206d696e746564000000006044820152606401620008f2565b73ffffffffffffffffffffffffffffffffffffffff8216600081815260036020908152604080832080546001019055848352600290915280822080547fffffffffffffffffffffffff0000000000000000000000000000000000000000168417905551839291907fddf252ad1be2c89b69c2b068fc378daa952ba7f163c4a11628f55a4df523b3ef908290a45050565b60065473ffffffffffffffffffffffffffffffffffffffff163314620014065760405162461bcd60e51b815260206004820181905260248201527f4f776e61626c653a2063616c6c6572206973206e6f7420746865206f776e65726044820152606401620008f2565b6006805473ffffffffffffffffffffffffffffffffffffffff8381167fffffffffffffffffffffffff0000000000000000000000000000000000000000831681179093556040519116919082907f8be0079c531659141344cd1fd0a4f28419497f9722a3daafe3b4186f6b6457e090600090a35050565b8173ffffffffffffffffffffffffffffffffffffffff168373ffffffffffffffffffffffffffffffffffffffff1603620021f45760405162461bcd60e51b815260206004820152601960248201527f4552433732313a20617070726f766520746f2063616c6c6572000000000000006044820152606401620008f2565b73ffffffffffffffffffffffffffffffffffffffff83811660008181526005602090815260408083209487168084529482529182902080547fffffffffffffffffffffffffffffffffffffffffffffffffffffffffffffff001686151590811790915591519182527f17307eab39ab6107e8899845ad3d59bd9653f200f220920489ca2b5937696c31910160405180910390a3505050565b6200229984848462001c03565b620022a784848484620023e0565b620014b85760405162461bcd60e51b815260206004820152603260248201527f4552433732313a207472616e7366657220746f206e6f6e20455243373231526560448201527f63656976657220696d706c656d656e74657200000000000000000000000000006064820152608401620008f2565b606060006200232a83620025c5565b600101905060008167ffffffffffffffff8111156200234d576200234d62002856565b6040519080825280601f01601f19166020018201604052801562002378576020820181803683370190505b5090508181016020015b7fffffffffffffffffffffffffffffffffffffffffffffffffffffffffffffffff017f3031323334353637383961626364656600000000000000000000000000000000600a86061a8153600a85049450846200238257509392505050565b600073ffffffffffffffffffffffffffffffffffffffff84163b15620025ba576040517f150b7a0200000000000000000000000000000000000000000000000000000000815273ffffffffffffffffffffffffffffffffffffffff85169063150b7a02906200245a90339089908890889060040162002e9e565b6020604051808303816000875af1925050508015620024b6575060408051601f3d9081017fffffffffffffffffffffffffffffffffffffffffffffffffffffffffffffffe0168201909252620024b39181019062002ee9565b60015b6200256e573d808015620024e7576040519150601f19603f3d011682016040523d82523d6000602084013e620024ec565b606091505b508051600003620025665760405162461bcd60e51b815260206004820152603260248201527f4552433732313a207472616e7366657220746f206e6f6e20455243373231526560448201527f63656976657220696d706c656d656e74657200000000000000000000000000006064820152608401620008f2565b805181602001fd5b7fffffffff00000000000000000000000000000000000000000000000000000000167f150b7a020000000000000000000000000000000000000000000000000000000014905062001bfb565b506001949350505050565b6000807a184f03e93ff9f4daa797ed6e38ed64bf6a1f01000000000000000083106200260f577a184f03e93ff9f4daa797ed6e38ed64bf6a1f010000000000000000830492506040015b6d04ee2d6d415b85acef810000000083106200263c576d04ee2d6d415b85acef8100000000830492506020015b662386f26fc1000083106200265b57662386f26fc10000830492506010015b6305f5e100831062002674576305f5e100830492506008015b61271083106200268957612710830492506004015b606483106200269c576064830492506002015b600a83106200076f5760010192915050565b6109a08062002f0a83390190565b7fffffffff000000000000000000000000000000000000000000000000000000008116811462001a2557600080fd5b600060208284031215620026fe57600080fd5b81356200153481620026bc565b6000602082840312156200271e57600080fd5b5035919050565b60005b838110156200274257818101518382015260200162002728565b50506000910152565b600081518084526200276581602086016020860162002725565b601f017fffffffffffffffffffffffffffffffffffffffffffffffffffffffffffffffe0169290920160200192915050565b6020815260006200153460208301846200274b565b73ffffffffffffffffffffffffffffffffffffffff8116811462001a2557600080fd5b8035620027dc81620027ac565b919050565b60008060408385031215620027f557600080fd5b82356200280281620027ac565b946020939093013593505050565b6000806000606084860312156200282657600080fd5b83356200283381620027ac565b925060208401356200284581620027ac565b929592945050506040919091013590565b7f4e487b7100000000000000000000000000000000000000000000000000000000600052604160045260246000fd5b604051601f82017fffffffffffffffffffffffffffffffffffffffffffffffffffffffffffffffe016810167ffffffffffffffff81118282101715620028cf57620028cf62002856565b604052919050565b600082601f830112620028e957600080fd5b8135602067ffffffffffffffff82111562002908576200290862002856565b8160051b6200291982820162002885565b92835284810182019282810190878511156200293457600080fd5b83870192505b84831015620029605782356200295081620027ac565b825291830191908301906200293a565b979650505050505050565b60008060008060008060008060006101008a8c0312156200298b57600080fd5b893567ffffffffffffffff80821115620029a457600080fd5b818c0191508c601f830112620029b957600080fd5b813581811115620029c957600080fd5b8d6020828501011115620029dc57600080fd5b602083019b50809a5050620029f460208d01620027cf565b985060408c013591508082111562002a0b57600080fd5b5062002a1a8c828d01620028d7565b999c989b5096996060810135986080820135985060a0820135975060c0820135965060e090910135945092505050565b6000806040838503121562002a5e57600080fd5b50508035926020909101359150565b60006020828403121562002a8057600080fd5b81356200153481620027ac565b801515811462001a2557600080fd5b6000806040838503121562002ab057600080fd5b823562002abd81620027ac565b9150602083013562002acf8162002a8d565b809150509250929050565b6000806000806080858703121562002af157600080fd5b843562002afe81620027ac565b935060208581013562002b1181620027ac565b935060408601359250606086013567ffffffffffffffff8082111562002b3657600080fd5b818801915088601f83011262002b4b57600080fd5b81358181111562002b605762002b6062002856565b62002b92847fffffffffffffffffffffffffffffffffffffffffffffffffffffffffffffffe0601f8401160162002885565b9150808252898482850101111562002ba957600080fd5b808484018584013760008482840101525080935050505092959194509250565b6000806040838503121562002bdd57600080fd5b823562002bea81620027ac565b9150602083013562002acf81620027ac565b600181811c9082168062002c1157607f821691505b60208210810362002c4b577f4e487b7100000000000000000000000000000000000000000000000000000000600052602260045260246000fd5b50919050565b60006020828403121562002c6457600080fd5b5051919050565b7f4e487b7100000000000000000000000000000000000000000000000000000000600052601160045260246000fd5b60008262002cd1577f4e487b7100000000000000000000000000000000000000000000000000000000600052601260045260246000fd5b500490565b80820281158282048414176200076f576200076f62002c6b565b60006020828403121562002d0357600080fd5b8151620015348162002a8d565b7f4e487b7100000000000000000000000000000000000000000000000000000000600052603260045260246000fd5b60007fffffffffffffffffffffffffffffffffffffffffffffffffffffffffffffffff820362002d735762002d7362002c6b565b5060010190565b60006020828403121562002d8d57600080fd5b81516200153481620027ac565b6060815283606082015283856080830137600060808583010152600060807fffffffffffffffffffffffffffffffffffffffffffffffffffffffffffffffe0601f870116830101905073ffffffffffffffffffffffffffffffffffffffff8416602083015282604083015295945050505050565b73ffffffffffffffffffffffffffffffffffffffff8316815260406020820152600062001bfb60408301846200274b565b6000835162002e5381846020880162002725565b83519083019062002e6981836020880162002725565b01949350505050565b818103818111156200076f576200076f62002c6b565b808201808211156200076f576200076f62002c6b565b600073ffffffffffffffffffffffffffffffffffffffff80871683528086166020840152508360408301526080606083015262002edf60808301846200274b565b9695505050505050565b60006020828403121562002efc57600080fd5b81516200153481620026bc56fe60806040526040516109a03803806109a08339810160408190526100229161045b565b61002e82826000610035565b5050610585565b61003e83610100565b6040516001600160a01b038416907f1cf3b03a6cf19fa2baba4df148e9dcabedea7f8a5c07840e207e5c089be95d3e90600090a260008251118061007f5750805b156100fb576100f9836001600160a01b0316635c60da1b6040518163ffffffff1660e01b8152600401602060405180830381865afa1580156100c5573d6000803e3d6000fd5b505050506040513d601f19601f820116820180604052508101906100e9919061051b565b836102a360201b6100291760201c565b505b505050565b610113816102cf60201b6100551760201c565b6101725760405162461bcd60e51b815260206004820152602560248201527f455243313936373a206e657720626561636f6e206973206e6f74206120636f6e6044820152641d1c9858dd60da1b60648201526084015b60405180910390fd5b6101e6816001600160a01b0316635c60da1b6040518163ffffffff1660e01b8152600401602060405180830381865afa1580156101b3573d6000803e3d6000fd5b505050506040513d601f19601f820116820180604052508101906101d7919061051b565b6102cf60201b6100551760201c565b61024b5760405162461bcd60e51b815260206004820152603060248201527f455243313936373a20626561636f6e20696d706c656d656e746174696f6e206960448201526f1cc81b9bdd08184818dbdb9d1c9858dd60821b6064820152608401610169565b806102827fa3f0ad74e5423aebfd80d3ef4346578335a9a72aeaee59ff6cb3582b35133d5060001b6102de60201b6100711760201c565b80546001600160a01b0319166001600160a01b039290921691909117905550565b60606102c88383604051806060016040528060278152602001610979602791396102e1565b9392505050565b6001600160a01b03163b151590565b90565b6060600080856001600160a01b0316856040516102fe9190610536565b600060405180830381855af49150503d8060008114610339576040519150601f19603f3d011682016040523d82523d6000602084013e61033e565b606091505b5090925090506103508683838761035a565b9695505050505050565b606083156103c95782516000036103c2576001600160a01b0385163b6103c25760405162461bcd60e51b815260206004820152601d60248201527f416464726573733a2063616c6c20746f206e6f6e2d636f6e74726163740000006044820152606401610169565b50816103d3565b6103d383836103db565b949350505050565b8151156103eb5781518083602001fd5b8060405162461bcd60e51b81526004016101699190610552565b80516001600160a01b038116811461041c57600080fd5b919050565b634e487b7160e01b600052604160045260246000fd5b60005b8381101561045257818101518382015260200161043a565b50506000910152565b6000806040838503121561046e57600080fd5b61047783610405565b60208401519092506001600160401b038082111561049457600080fd5b818501915085601f8301126104a857600080fd5b8151818111156104ba576104ba610421565b604051601f8201601f19908116603f011681019083821181831017156104e2576104e2610421565b816040528281528860208487010111156104fb57600080fd5b61050c836020830160208801610437565b80955050505050509250929050565b60006020828403121561052d57600080fd5b6102c882610405565b60008251610548818460208701610437565b9190910192915050565b6020815260008251806020840152610571816040850160208701610437565b601f01601f19169190910160400192915050565b6103e5806105946000396000f3fe60806040523661001357610011610017565b005b6100115b610027610022610074565b610127565b565b606061004e83836040518060600160405280602781526020016103896027913961014b565b9392505050565b73ffffffffffffffffffffffffffffffffffffffff163b151590565b90565b60006100b47fa3f0ad74e5423aebfd80d3ef4346578335a9a72aeaee59ff6cb3582b35133d505473ffffffffffffffffffffffffffffffffffffffff1690565b73ffffffffffffffffffffffffffffffffffffffff16635c60da1b6040518163ffffffff1660e01b8152600401602060405180830381865afa1580156100fe573d6000803e3d6000fd5b505050506040513d601f19601f8201168201806040525081019061012291906102c1565b905090565b3660008037600080366000845af43d6000803e808015610146573d6000f35b3d6000fd5b60606000808573ffffffffffffffffffffffffffffffffffffffff1685604051610175919061031b565b600060405180830381855af49150503d80600081146101b0576040519150601f19603f3d011682016040523d82523d6000602084013e6101b5565b606091505b50915091506101c6868383876101d0565b9695505050505050565b6060831561026b5782516000036102645773ffffffffffffffffffffffffffffffffffffffff85163b610264576040517f08c379a000000000000000000000000000000000000000000000000000000000815260206004820152601d60248201527f416464726573733a2063616c6c20746f206e6f6e2d636f6e747261637400000060448201526064015b60405180910390fd5b5081610275565b610275838361027d565b949350505050565b81511561028d5781518083602001fd5b806040517f08c379a000000000000000000000000000000000000000000000000000000000815260040161025b9190610337565b6000602082840312156102d357600080fd5b815173ffffffffffffffffffffffffffffffffffffffff8116811461004e57600080fd5b60005b838110156103125781810151838201526020016102fa565b50506000910152565b6000825161032d8184602087016102f7565b9190910192915050565b60208152600082518060208401526103568160408501602087016102f7565b601f017fffffffffffffffffffffffffffffffffffffffffffffffffffffffffffffffe016919091016040019291505056fe416464726573733a206c6f772d6c6576656c2064656c65676174652063616c6c206661696c6564a2646970667358221220d9ac563cd689ef8df311ce8a053d76366e09f1e49f9e40ca38bdb8213e39b44864736f6c63430008110033416464726573733a206c6f772d6c6576656c2064656c65676174652063616c6c206661696c6564a2646970667358221220ac66ff6692eea456365848d58fbf88595975d8f0ace43d91fb584a71302d858864736f6c63430008110033",
    "linkReferences": {}
  },
  "methodIdentifiers": {
    "_fundIdCounter()": "1ec3e6c4",
    "admFees(uint256)": "995c8472",
    "approve(address,uint256)": "095ea7b3",
    "balanceOf(address)": "70a08231",
    "closeInvestimentTimestamps(uint256)": "069af241",
    "createFund(string,address,address[],uint256,uint256,uint256,uint256,uint256)": "5ecd5be7",
    "erc6551Implementation()": "b3dd12a2",
    "fundCreator()": "b1ef04e1",
    "fundsAddresses(uint256)": "e7e1f1c7",
    "fundsAllowedTokens(uint256,uint256)": "6166cb93",
    "getApproved(uint256)": "081812fc",
    "initialAmounts(uint256)": "fb91fb42",
    "invest(uint256,uint256)": "d87aa643",
    "isApprovedForAll(address,address)": "e985e9c5",
    "name()": "06fdde03",
    "openInvestimentTimestamps(uint256)": "1c02225f",
    "openRedeemTimestamps(uint256)": "54d89c91",
    "owner()": "8da5cb5b",
    "ownerOf(uint256)": "6352211e",
    "perfFees(uint256)": "0d0a01cf",
    "quotaTokenImplementation()": "c2ae0e3e",
    "quotasAddresses(uint256)": "4835a6be",
    "redeemYield(uint256)": "258d3c33",
    "renounceOwnership()": "715018a6",
    "safeTransferFrom(address,address,uint256)": "42842e0e",
    "safeTransferFrom(address,address,uint256,bytes)": "b88d4fde",
    "setApprovalForAll(address,bool)": "a22cb465",
    "stablecoin()": "e9cbd822",
    "supportsInterface(bytes4)": "01ffc9a7",
    "symbol()": "95d89b41",
    "tokenURI(uint256)": "c87b56dd",
    "transferFrom(address,address,uint256)": "23b872dd",
    "transferOwnership(address)": "f2fde38b",
    "whiteListedTokens(address)": "d3c26383"
  },
  "id": 31
}