{"abi":[{"type":"function","name":"current","inputs":[],"outputs":[{"name":"","type":"uint256","internalType":"uint256"}],"stateMutability":"view"},{"type":"function","name":"increment","inputs":[],"outputs":[],"stateMutability":"nonpayable"},{"type":"function","name":"number","inputs":[],"outputs":[{"name":"","type":"uint256","internalType":"uint256"}],"stateMutability":"view"},{"type":"function","name":"setNumber","inputs":[{"name":"newNumber","type":"uint256","internalType":"uint256"}],"outputs":[],"stateMutability":"nonpayable"}],"bytecode":{"object":"0x608060405234801561001057600080fd5b50610150806100206000396000f3fe608060405234801561001057600080fd5b506004361061004c5760003560e01c80633fb5c1cb146100515780638381f58a146100665780639fa6a6e314610081578063d09de08a14610089575b600080fd5b61006461005f3660046100a2565b600055565b005b61006f60005481565b60405190815260200160405180910390f35b60005461006f565b61006460008054908061009b836100bb565b9190505550565b6000602082840312156100b457600080fd5b5035919050565b60007fffffffffffffffffffffffffffffffffffffffffffffffffffffffffffffffff8203610113577f4e487b7100000000000000000000000000000000000000000000000000000000600052601160045260246000fd5b506001019056fea26469706673582212207574135d6fdbefc54b9bc1b94c388e24636d9d5fee7b9b6373030c29c74d703664736f6c63430008170033","linkReferences":{}},"methodIdentifiers":{"current()":"9fa6a6e3","increment()":"d09de08a","number()":"8381f58a","setNumber(uint256)":"3fb5c1cb"},"id":58}