{
  "abi": [
    {
      "inputs": [],
      "name": "InitializationFailed",
      "type": "error"
    },
    {
      "anonymous": false,
      "inputs": [
        {
          "indexed": false,
          "internalType": "address",
          "name": "account",
          "type": "address"
        },
        {
          "indexed": false,
          "internalType": "address",
          "name": "implementation",
          "type": "address"
        },
        {
          "indexed": false,
          "internalType": "uint256",
          "name": "chainId",
          "type": "uint256"
        },
        {
          "indexed": false,
          "internalType": "address",
          "name": "tokenContract",
          "type": "address"
        },
        {
          "indexed": false,
          "internalType": "uint256",
          "name": "tokenId",
          "type": "uint256"
        },
        {
          "indexed": false,
          "internalType": "uint256",
          "name": "salt",
          "type": "uint256"
        }
      ],
      "name": "AccountCreated",
      "type": "event"
    },
    {
      "inputs": [
        {
          "internalType": "address",
          "name": "implementation",
          "type": "address"
        },
        {
          "internalType": "uint256",
          "name": "chainId",
          "type": "uint256"
        },
        {
          "internalType": "address",
          "name": "tokenContract",
          "type": "address"
        },
        {
          "internalType": "uint256",
          "name": "tokenId",
          "type": "uint256"
        },
        {
          "internalType": "uint256",
          "name": "salt",
          "type": "uint256"
        }
      ],
      "name": "account",
      "outputs": [
        {
          "internalType": "address",
          "name": "",
          "type": "address"
        }
      ],
      "stateMutability": "view",
      "type": "function"
    },
    {
      "inputs": [
        {
          "internalType": "address",
          "name": "implementation",
          "type": "address"
        },
        {
          "internalType": "uint256",
          "name": "chainId",
          "type": "uint256"
        },
        {
          "internalType": "address",
          "name": "tokenContract",
          "type": "address"
        },
        {
          "internalType": "uint256",
          "name": "tokenId",
          "type": "uint256"
        },
        {
          "internalType": "uint256",
          "name": "salt",
          "type": "uint256"
        },
        {
          "internalType": "bytes",
          "name": "initData",
          "type": "bytes"
        }
      ],
      "name": "createAccount",
      "outputs": [
        {
          "internalType": "address",
          "name": "",
          "type": "address"
        }
      ],
      "stateMutability": "nonpayable",
      "type": "function"
    }
  ],
  "bytecode": {
    "object": "0x608060405234801561001057600080fd5b5061068d806100206000396000f3fe608060405234801561001057600080fd5b50600436106100365760003560e01c80635e9bc5361461003b578063da7323b314610077575b600080fd5b61004e61004936600461049e565b61008a565b60405173ffffffffffffffffffffffffffffffffffffffff909116815260200160405180910390f35b61004e6100853660046104ec565b6100b9565b60008061009a878787878761023f565b805160209091012090506100ae83826102d3565b979650505050505050565b6000806100c9898989898961023f565b905060006100e18660001b83805190602001206102d3565b905073ffffffffffffffffffffffffffffffffffffffff81163b156101095791506100ae9050565b610115600087846102e7565b905083156101c55760008173ffffffffffffffffffffffffffffffffffffffff16868660405161014692919061059d565b6000604051808303816000865af19150503d8060008114610183576040519150601f19603f3d011682016040523d82523d6000602084013e610188565b606091505b50509050806101c3576040517f19b991a800000000000000000000000000000000000000000000000000000000815260040160405180910390fd5b505b6040805173ffffffffffffffffffffffffffffffffffffffff83811682528c811660208301528183018c90528a1660608201526080810189905260a0810188905290517f07fba7bba1191da7ee1155dcfa0030701c9c9a9cc34a93b991fc6fd0c9268d8f9181900360c00190a19998505050505050505050565b604080516020810183905290810185905273ffffffffffffffffffffffffffffffffffffffff84166060828101919091526080820184905290869060a001604080517fffffffffffffffffffffffffffffffffffffffffffffffffffffffffffffffe0818403018152908290526102b992916020016105ad565b604051602081830303815290604052905095945050505050565b60006102e083833061044b565b9392505050565b600083471015610358576040517f08c379a000000000000000000000000000000000000000000000000000000000815260206004820152601d60248201527f437265617465323a20696e73756666696369656e742062616c616e636500000060448201526064015b60405180910390fd5b81516000036103c3576040517f08c379a000000000000000000000000000000000000000000000000000000000815260206004820181905260248201527f437265617465323a2062797465636f6465206c656e677468206973207a65726f604482015260640161034f565b8282516020840186f5905073ffffffffffffffffffffffffffffffffffffffff81166102e0576040517f08c379a000000000000000000000000000000000000000000000000000000000815260206004820152601960248201527f437265617465323a204661696c6564206f6e206465706c6f7900000000000000604482015260640161034f565b6000604051836040820152846020820152828152600b8101905060ff815360559020949350505050565b803573ffffffffffffffffffffffffffffffffffffffff8116811461049957600080fd5b919050565b600080600080600060a086880312156104b657600080fd5b6104bf86610475565b9450602086013593506104d460408701610475565b94979396509394606081013594506080013592915050565b600080600080600080600060c0888a03121561050757600080fd5b61051088610475565b96506020880135955061052560408901610475565b9450606088013593506080880135925060a088013567ffffffffffffffff8082111561055057600080fd5b818a0191508a601f83011261056457600080fd5b81358181111561057357600080fd5b8b602082850101111561058557600080fd5b60208301945080935050505092959891949750929550565b8183823760009101908152919050565b7f3d60ad80600a3d3981f3363d3d373d3d3d363d7300000000000000000000000081527fffffffffffffffffffffffffffffffffffffffff0000000000000000000000008360601b1660148201527f5af43d82803e903d91602b57fd5bf3000000000000000000000000000000000060288201526000825160005b818110156106455760208186018101516037868401015201610628565b5060009201603701918252509291505056fea264697066735822122051cae3e32da9ff8c8b479cb129d1b20a6c9753431aa5800db62d3f1bcc5aa20f64736f6c63430008110033",
    "linkReferences": {}
  },
  "methodIdentifiers": {
    "account(address,uint256,address,uint256,uint256)": "5e9bc536",
    "createAccount(address,uint256,address,uint256,uint256,bytes)": "da7323b3"
  },
  "id": 45
}