{"abi":[{"type":"function","name":"account","inputs":[{"name":"implementation","type":"address","internalType":"address"},{"name":"chainId","type":"uint256","internalType":"uint256"},{"name":"tokenContract","type":"address","internalType":"address"},{"name":"tokenId","type":"uint256","internalType":"uint256"},{"name":"salt","type":"uint256","internalType":"uint256"}],"outputs":[{"name":"","type":"address","internalType":"address"}],"stateMutability":"view"},{"type":"function","name":"createAccount","inputs":[{"name":"implementation","type":"address","internalType":"address"},{"name":"chainId","type":"uint256","internalType":"uint256"},{"name":"tokenContract","type":"address","internalType":"address"},{"name":"tokenId","type":"uint256","internalType":"uint256"},{"name":"salt","type":"uint256","internalType":"uint256"},{"name":"initData","type":"bytes","internalType":"bytes"}],"outputs":[{"name":"","type":"address","internalType":"address"}],"stateMutability":"nonpayable"},{"type":"event","name":"AccountCreated","inputs":[{"name":"account","type":"address","indexed":false,"internalType":"address"},{"name":"implementation","type":"address","indexed":false,"internalType":"address"},{"name":"chainId","type":"uint256","indexed":false,"internalType":"uint256"},{"name":"tokenContract","type":"address","indexed":false,"internalType":"address"},{"name":"tokenId","type":"uint256","indexed":false,"internalType":"uint256"},{"name":"salt","type":"uint256","indexed":false,"internalType":"uint256"}],"anonymous":false},{"type":"error","name":"Create2EmptyBytecode","inputs":[]},{"type":"error","name":"Create2FailedDeployment","inputs":[]},{"type":"error","name":"Create2InsufficientBalance","inputs":[{"name":"balance","type":"uint256","internalType":"uint256"},{"name":"needed","type":"uint256","internalType":"uint256"}]},{"type":"error","name":"InitializationFailed","inputs":[]}],"bytecode":{"object":"0x608060405234801561001057600080fd5b50610605806100206000396000f3fe608060405234801561001057600080fd5b50600436106100365760003560e01c80635e9bc5361461003b578063da7323b314610077575b600080fd5b61004e610049366004610416565b61008a565b60405173ffffffffffffffffffffffffffffffffffffffff909116815260200160405180910390f35b61004e610085366004610464565b6100b9565b60008061009a878787878761023f565b805160209091012090506100ae83826102d3565b979650505050505050565b6000806100c9898989898961023f565b905060006100e18660001b83805190602001206102d3565b905073ffffffffffffffffffffffffffffffffffffffff81163b156101095791506100ae9050565b610115600087846102e7565b905083156101c55760008173ffffffffffffffffffffffffffffffffffffffff168686604051610146929190610515565b6000604051808303816000865af19150503d8060008114610183576040519150601f19603f3d011682016040523d82523d6000602084013e610188565b606091505b50509050806101c3576040517f19b991a800000000000000000000000000000000000000000000000000000000815260040160405180910390fd5b505b6040805173ffffffffffffffffffffffffffffffffffffffff83811682528c811660208301528183018c90528a1660608201526080810189905260a0810188905290517f07fba7bba1191da7ee1155dcfa0030701c9c9a9cc34a93b991fc6fd0c9268d8f9181900360c00190a19998505050505050505050565b604080516020810183905290810185905273ffffffffffffffffffffffffffffffffffffffff84166060828101919091526080820184905290869060a001604080517fffffffffffffffffffffffffffffffffffffffffffffffffffffffffffffffe0818403018152908290526102b99291602001610525565b604051602081830303815290604052905095945050505050565b60006102e08383306103c3565b9392505050565b600083471015610330576040517fe4bbecac0000000000000000000000000000000000000000000000000000000081524760048201526024810185905260440160405180910390fd5b815160000361036b576040517f4ca249dc00000000000000000000000000000000000000000000000000000000815260040160405180910390fd5b8282516020840186f5905073ffffffffffffffffffffffffffffffffffffffff81166102e0576040517f741752c200000000000000000000000000000000000000000000000000000000815260040160405180910390fd5b6000604051836040820152846020820152828152600b8101905060ff815360559020949350505050565b803573ffffffffffffffffffffffffffffffffffffffff8116811461041157600080fd5b919050565b600080600080600060a0868803121561042e57600080fd5b610437866103ed565b94506020860135935061044c604087016103ed565b94979396509394606081013594506080013592915050565b600080600080600080600060c0888a03121561047f57600080fd5b610488886103ed565b96506020880135955061049d604089016103ed565b9450606088013593506080880135925060a088013567ffffffffffffffff808211156104c857600080fd5b818a0191508a601f8301126104dc57600080fd5b8135818111156104eb57600080fd5b8b60208285010111156104fd57600080fd5b60208301945080935050505092959891949750929550565b8183823760009101908152919050565b7f3d60ad80600a3d3981f3363d3d373d3d3d363d7300000000000000000000000081527fffffffffffffffffffffffffffffffffffffffff0000000000000000000000008360601b1660148201527f5af43d82803e903d91602b57fd5bf3000000000000000000000000000000000060288201526000825160005b818110156105bd57602081860181015160378684010152016105a0565b5060009201603701918252509291505056fea26469706673582212203b5168d3b847e85e140ac77ffd8480e222adbc9626061ce57278ecbd15d7b3d364736f6c63430008170033","linkReferences":{}},"methodIdentifiers":{"account(address,uint256,address,uint256,uint256)":"5e9bc536","createAccount(address,uint256,address,uint256,uint256,bytes)":"da7323b3"},"id":59}